{
  "contractName": "ISAOTest888Factory",
  "abi": [
    {
      "constant": true,
      "inputs": [],
      "name": "isaoAddress",
      "outputs": [
        {
          "name": "",
          "type": "address"
        }
      ],
      "payable": false,
      "stateMutability": "view",
      "type": "function"
    },
    {
      "inputs": [
        {
          "name": "_raisingPeriod",
          "type": "uint256"
        },
        {
          "name": "_distributionPeriod",
          "type": "uint256"
        },
        {
          "name": "_minimalFundSize",
          "type": "uint256"
        },
        {
          "name": "_limits",
          "type": "uint256[]"
        },
        {
          "name": "_costs",
          "type": "uint256[]"
        },
        {
          "name": "_minimalDeposit",
          "type": "uint256"
        },
        {
          "name": "_adminAddress",
          "type": "address"
        },
        {
          "name": "_paybotAddress",
          "type": "address"
        },
        {
          "name": "_erc888Address",
          "type": "address"
        },
        {
          "name": "_erc888tokenId",
          "type": "uint256"
        }
      ],
      "payable": false,
      "stateMutability": "nonpayable",
      "type": "constructor"
    }
  ],
  "bytecode": "0x608060405234801561001057600080fd5b50604051612ad8380380612ad88339810180604052810190808051906020019092919080519060200190929190805190602001909291908051820192919060200180518201929190602001805190602001909291908051906020019092919080519060200190929190805190602001909291908051906020019092919050505060008a8a8a8a8a8a8a8a6100a26104db565b8089815260200188815260200187815260200180602001806020018681526020018573ffffffffffffffffffffffffffffffffffffffff1673ffffffffffffffffffffffffffffffffffffffff1681526020018473ffffffffffffffffffffffffffffffffffffffff1673ffffffffffffffffffffffffffffffffffffffff168152602001838103835288818151815260200191508051906020019060200280838360005b83811015610162578082015181840152602081019050610147565b50505050905001838103825287818151815260200191508051906020019060200280838360005b838110156101a4578082015181840152602081019050610189565b505050509050019a5050505050505050505050604051809103906000f0801580156101d3573d6000803e3d6000fd5b506000806101000a81548173ffffffffffffffffffffffffffffffffffffffff021916908373ffffffffffffffffffffffffffffffffffffffff1602179055506000809054906101000a900473ffffffffffffffffffffffffffffffffffffffff1673ffffffffffffffffffffffffffffffffffffffff1663399ae72484846040518363ffffffff167c0100000000000000000000000000000000000000000000000000000000028152600401808373ffffffffffffffffffffffffffffffffffffffff1673ffffffffffffffffffffffffffffffffffffffff16815260200182815260200192505050602060405180830381600087803b1580156102d757600080fd5b505af11580156102eb573d6000803e3d6000fd5b505050506040513d602081101561030157600080fd5b81019080805190602001909291905050505087600189510381518110151561032557fe5b9060200190602002015190508273ffffffffffffffffffffffffffffffffffffffff1663a5843f0883600184016040518363ffffffff167c01000000000000000000000000000000000000000000000000000000000281526004018083815260200182815260200192505050600060405180830381600087803b1580156103ab57600080fd5b505af11580156103bf573d6000803e3d6000fd5b505050508273ffffffffffffffffffffffffffffffffffffffff1663f8548e36836000809054906101000a900473ffffffffffffffffffffffffffffffffffffffff16846040518463ffffffff167c0100000000000000000000000000000000000000000000000000000000028152600401808481526020018373ffffffffffffffffffffffffffffffffffffffff1673ffffffffffffffffffffffffffffffffffffffff1681526020018281526020019350505050602060405180830381600087803b15801561048f57600080fd5b505af11580156104a3573d6000803e3d6000fd5b505050506040513d60208110156104b957600080fd5b81019080805190602001909291905050505050505050505050505050506104eb565b6040516124f6806105e283390190565b60e9806104f96000396000f300608060405260043610603f576000357c0100000000000000000000000000000000000000000000000000000000900463ffffffff168063ff4bd54e146044575b600080fd5b348015604f57600080fd5b5060566098565b604051808273ffffffffffffffffffffffffffffffffffffffff1673ffffffffffffffffffffffffffffffffffffffff16815260200191505060405180910390f35b6000809054906101000a900473ffffffffffffffffffffffffffffffffffffffff16815600a165627a7a72305820d16357a315f93fc0f76f6adb8203c2150a680609980784ecd9cda35b16bfbece002960806040523480156200001157600080fd5b50604051620024f6380380620024f68339810180604052810190808051906020019092919080519060200190929190805190602001909291908051820192919060200180518201929190602001805190602001909291908051906020019092919080519060200190929190505050878787878787878787600d8190555086600e8190555082600081905550620000b8868686620001ce640100000000026401000000009004565b50620000d56004836200034d640100000000026401000000009004565b50620000f26008826200034d640100000000026401000000009004565b507f32a77d339835f060f74fc1d2d71394f25f6a037e3acd20e875be312f92deaf6f8585604051808060200180602001838103835285818151815260200191508051906020019060200280838360005b838110156200015f57808201518184015260208101905062000142565b50505050905001838103825284818151815260200191508051906020019060200280838360005b83811015620001a357808201518184015260208101905062000186565b5050505090500194505050505060405180910390a150505050505050505050505050505050620004d5565b600080600084519150835182141515620001e757600080fd5b600082111515620001f757600080fd5b600090505b60018203811015620002a95784600182018151811015156200021a57fe5b906020019060200201516003600087848151811015156200023757fe5b9060200190602002015181526020019081526020016000208190555083818151811015156200026257fe5b906020019060200201516004600087848151811015156200027f57fe5b906020019060200201518152602001908152602001600020819055508080600101915050620001fc565b8360018303815181101515620002bb57fe5b90602001906020020151600460008760018603815181101515620002db57fe5b906020019060200201518152602001908152602001600020819055508460008151811015156200030757fe5b906020019060200201516005819055508560018190555084600183038151811015156200033057fe5b906020019060200201516002819055506001925050509392505050565b600080601060008473ffffffffffffffffffffffffffffffffffffffff1673ffffffffffffffffffffffffffffffffffffffff16815260200190815260200160002060009054906101000a900460ff1660ff16148015620004135750600073ffffffffffffffffffffffffffffffffffffffff16601160008560ff1660ff16815260200190815260200160002060009054906101000a900473ffffffffffffffffffffffffffffffffffffffff1673ffffffffffffffffffffffffffffffffffffffff16145b15156200041f57600080fd5b82601060008473ffffffffffffffffffffffffffffffffffffffff1673ffffffffffffffffffffffffffffffffffffffff16815260200190815260200160002060006101000a81548160ff021916908360ff16021790555081601160008560ff1660ff16815260200190815260200160002060006101000a81548173ffffffffffffffffffffffffffffffffffffffff021916908373ffffffffffffffffffffffffffffffffffffffff16021790555092915050565b61201180620004e56000396000f300608060405260043610610154576000357c0100000000000000000000000000000000000000000000000000000000900463ffffffff168063026c4207146102ac5780630b43a09e146102d757806317d70f7c1461031c5780631865c57d14610347578063188ec356146103785780632229fdf4146103a357806331d98d21146103e8578063399ae7241461043a578063442767331461049f5780634aea6232146104fc5780634da13c2e1461056157806365cf7c9b146105835780636fe4d97a146105ae5780639b501723146105d95780639d12bf0a146106045780639d76ea581461062f578063a0a2b57314610686578063a9e966b7146106cb578063afd54d8214610710578063b54d62381461073b578063b61d27f614610780578063c173f245146107fd578063dc08826d14610842578063e20d82df14610899578063e6c3cf77146108fe578063ed48ee3d14610963575b600061015e61098e565b9050600160ff168160ff16141561017d576101776109d6565b506102a9565b600460ff168160ff16141561022c576101d533600660003373ffffffffffffffffffffffffffffffffffffffff1673ffffffffffffffffffffffffffffffffffffffff16815260200190815260200160002054610d3b565b506000341115610227573373ffffffffffffffffffffffffffffffffffffffff166108fc349081150290604051600060405180830381858888f19350505050158015610225573d6000803e3d6000fd5b505b6102a9565b600860ff168160ff1614156102a45761024d3361024833610f6d565b611007565b50600034111561029f573373ffffffffffffffffffffffffffffffffffffffff166108fc349081150290604051600060405180830381858888f1935050505015801561029d573d6000803e3d6000fd5b505b6102a9565b600080fd5b50005b3480156102b857600080fd5b506102c161111a565b6040518082815260200191505060405180910390f35b3480156102e357600080fd5b5061030260048036038101908080359060200190929190505050611120565b604051808215151515815260200191505060405180910390f35b34801561032857600080fd5b50610331611153565b6040518082815260200191505060405180910390f35b34801561035357600080fd5b5061035c611159565b604051808260ff1660ff16815260200191505060405180910390f35b34801561038457600080fd5b5061038d611168565b6040518082815260200191505060405180910390f35b3480156103af57600080fd5b506103ce60048036038101908080359060200190929190505050611177565b604051808215151515815260200191505060405180910390f35b3480156103f457600080fd5b50610420600480360381019080803560ff169060200190929190803590602001909291905050506111ab565b604051808215151515815260200191505060405180910390f35b34801561044657600080fd5b50610485600480360381019080803573ffffffffffffffffffffffffffffffffffffffff16906020019092919080359060200190929190505050611213565b604051808215151515815260200191505060405180910390f35b3480156104ab57600080fd5b506104e0600480360381019080803573ffffffffffffffffffffffffffffffffffffffff1690602001909291905050506112ed565b604051808260ff1660ff16815260200191505060405180910390f35b34801561050857600080fd5b50610547600480360381019080803573ffffffffffffffffffffffffffffffffffffffff16906020019092919080359060200190929190505050611343565b604051808215151515815260200191505060405180910390f35b6105696113bc565b604051808215151515815260200191505060405180910390f35b34801561058f57600080fd5b506105986113ec565b6040518082815260200191505060405180910390f35b3480156105ba57600080fd5b506105c36113f2565b6040518082815260200191505060405180910390f35b3480156105e557600080fd5b506105ee6113f8565b6040518082815260200191505060405180910390f35b34801561061057600080fd5b506106196113fe565b6040518082815260200191505060405180910390f35b34801561063b57600080fd5b50610644611404565b604051808273ffffffffffffffffffffffffffffffffffffffff1673ffffffffffffffffffffffffffffffffffffffff16815260200191505060405180910390f35b34801561069257600080fd5b506106b16004803603810190808035906020019092919050505061142a565b604051808215151515815260200191505060405180910390f35b3480156106d757600080fd5b506106f66004803603810190808035906020019092919050505061143e565b604051808215151515815260200191505060405180910390f35b34801561071c57600080fd5b50610725611450565b6040518082815260200191505060405180910390f35b34801561074757600080fd5b5061076660048036038101908080359060200190929190505050611456565b604051808215151515815260200191505060405180910390f35b34801561078c57600080fd5b506107e3600480360381019080803573ffffffffffffffffffffffffffffffffffffffff1690602001909291908035906020019092919080359060200190820180359060200191909192939192939050505061148a565b604051808215151515815260200191505060405180910390f35b34801561080957600080fd5b506108286004803603810190808035906020019092919050505061150c565b604051808215151515815260200191505060405180910390f35b34801561084e57600080fd5b50610883600480360381019080803573ffffffffffffffffffffffffffffffffffffffff169060200190929190505050611527565b6040518082815260200191505060405180910390f35b3480156108a557600080fd5b506108e4600480360381019080803573ffffffffffffffffffffffffffffffffffffffff16906020019092919080359060200190929190505050611539565b604051808215151515815260200191505060405180910390f35b34801561090a57600080fd5b50610949600480360381019080803573ffffffffffffffffffffffffffffffffffffffff169060200190929190803590602001909291905050506115a1565b604051808215151515815260200191505060405180910390f35b34801561096f57600080fd5b50610978611609565b6040518082815260200191505060405180910390f35b600080600080600f60009054906101000a900460ff1660ff1692506109b161160f565b60ff1691506109be611677565b60ff1690506109ce8383836116bd565b935050505090565b60008060008060008060008060005434101515156109f357600080fd5b600b54965086955060055494508493503492505b600083118015610a18575060008414155b15610b0c5760046000858152602001908152602001600020549150610a6082610a52670de0b6b3a7640000866117b890919063ffffffff16565b6117f390919063ffffffff16565b905083610a76828861180e90919063ffffffff16565b1115610aed57610acd610abe670de0b6b3a7640000610ab085610aa28b8a61182c90919063ffffffff16565b6117b890919063ffffffff16565b6117f390919063ffffffff16565b8461182c90919063ffffffff16565b925083955060036000858152602001908152602001600020549350610b07565b60009250610b04818761180e90919063ffffffff16565b95505b610a07565b8385141515610b1d57836005819055505b8587141515610c7c57610b8a610b3c888861182c90919063ffffffff16565b600660003373ffffffffffffffffffffffffffffffffffffffff1673ffffffffffffffffffffffffffffffffffffffff1681526020019081526020016000205461180e90919063ffffffff16565b600660003373ffffffffffffffffffffffffffffffffffffffff1673ffffffffffffffffffffffffffffffffffffffff16815260200190815260200160002081905550610c31610be3843461182c90919063ffffffff16565b600760003373ffffffffffffffffffffffffffffffffffffffff1673ffffffffffffffffffffffffffffffffffffffff1681526020019081526020016000205461180e90919063ffffffff16565b600760003373ffffffffffffffffffffffffffffffffffffffff1673ffffffffffffffffffffffffffffffffffffffff1681526020019081526020016000208190555085600b819055505b6000831115610ccd573373ffffffffffffffffffffffffffffffffffffffff166108fc849081150290604051600060405180830381858888f19350505050158015610ccb573d6000803e3d6000fd5b505b3373ffffffffffffffffffffffffffffffffffffffff167ff464123490dc166d6baa19aa737c29f15b3aebdf44f48937e30b5b481900f7d6610d18853461182c90919063ffffffff16565b6040518082815260200191505060405180910390a2600197505050505050505090565b6000806000806000600660008873ffffffffffffffffffffffffffffffffffffffff1673ffffffffffffffffffffffffffffffffffffffff168152602001908152602001600020549350600860008873ffffffffffffffffffffffffffffffffffffffff1673ffffffffffffffffffffffffffffffffffffffff16815260200190815260200160002054925085610ddb848661182c90919063ffffffff16565b10151515610de857600080fd5b600760008873ffffffffffffffffffffffffffffffffffffffff1673ffffffffffffffffffffffffffffffffffffffff168152602001908152602001600020549150610e4f84610e4188856117b890919063ffffffff16565b6117f390919063ffffffff16565b9050610e64868561182c90919063ffffffff16565b600660008973ffffffffffffffffffffffffffffffffffffffff1673ffffffffffffffffffffffffffffffffffffffff16815260200190815260200160002081905550610eba818361182c90919063ffffffff16565b600760008973ffffffffffffffffffffffffffffffffffffffff1673ffffffffffffffffffffffffffffffffffffffff16815260200190815260200160002081905550610f1286600b5461182c90919063ffffffff16565b600b819055508673ffffffffffffffffffffffffffffffffffffffff166108fc829081150290604051600060405180830381858888f19350505050158015610f5e573d6000803e3d6000fd5b50600194505050505092915050565b6000611000600860008473ffffffffffffffffffffffffffffffffffffffff1673ffffffffffffffffffffffffffffffffffffffff16815260200190815260200160002054600660008573ffffffffffffffffffffffffffffffffffffffff1673ffffffffffffffffffffffffffffffffffffffff1681526020019081526020016000205461182c90919063ffffffff16565b9050919050565b60008061101384610f6d565b905082811015151561102457600080fd5b61107683600860008773ffffffffffffffffffffffffffffffffffffffff1673ffffffffffffffffffffffffffffffffffffffff1681526020019081526020016000205461180e90919063ffffffff16565b600860008673ffffffffffffffffffffffffffffffffffffffff1673ffffffffffffffffffffffffffffffffffffffff168152602001908152602001600020819055508373ffffffffffffffffffffffffffffffffffffffff167fd777ee46b5c5e9bff9903e5b77152b900a28b55ea90ea99766fa3b5237f970f6846040518082815260200191505060405180910390a26111118484611845565b91505092915050565b600b5481565b60008061112b611959565b9050600460ff168160ff1614151561114257600080fd5b61114b836119ad565b915050919050565b60145481565b600061116361098e565b905090565b6000611172611af4565b905090565b60008061118261098e565b9050600460ff168160ff1614151561119957600080fd5b6111a33384610d3b565b915050919050565b60008060006111b8611959565b91506111c261098e565b9050600860ff168160ff161415156111d957600080fd5b600460ff168260ff1614806111f45750600860ff168260ff16145b15156111ff57600080fd5b6112098585611b00565b9250505092915050565b60008073ffffffffffffffffffffffffffffffffffffffff16601360009054906101000a900473ffffffffffffffffffffffffffffffffffffffff1673ffffffffffffffffffffffffffffffffffffffff1614151561127157600080fd5b82601360006101000a81548173ffffffffffffffffffffffffffffffffffffffff021916908373ffffffffffffffffffffffffffffffffffffffff160217905550816014819055506001600f60006101000a81548160ff021916908360ff1602179055506112dd611af4565b600c819055506001905092915050565b6000601060008373ffffffffffffffffffffffffffffffffffffffff1673ffffffffffffffffffffffffffffffffffffffff16815260200190815260200160002060009054906101000a900460ff169050919050565b600080600061135061098e565b915061135a611959565b9050600460ff168160ff1614806113775750600860ff168160ff16145b151561138257600080fd5b600460ff168260ff16148061139d5750600160ff168260ff16145b15156113a857600080fd5b6113b28585610d3b565b9250505092915050565b6000806113c761098e565b9050600160ff168160ff161415156113de57600080fd5b6113e66109d6565b91505090565b600c5481565b60005481565b600e5481565b60025481565b601360009054906101000a900473ffffffffffffffffffffffffffffffffffffffff1681565b600042820360128190555060019050919050565b600061144982611c18565b9050919050565b600d5481565b60008061146161098e565b9050600860ff168160ff1614151561147857600080fd5b6114823384611007565b915050919050565b6000600460ff16611499611959565b60ff161415156114a857600080fd5b601060ff166114b561098e565b60ff161415156114c457600080fd5b8473ffffffffffffffffffffffffffffffffffffffff168484846040518083838082843782019150509250505060006040518083038185875af1925050509050949350505050565b60008160126000828254019250508190555060019050919050565b600061153282610f6d565b9050919050565b6000806000611546611959565b915061155061098e565b9050600860ff168160ff1614151561156757600080fd5b600460ff168260ff1614806115825750600860ff168260ff16145b151561158d57600080fd5b6115978585611007565b9250505092915050565b60008060006115ae611959565b91506115b861098e565b9050600460ff168260ff1614806115d55750600860ff168260ff16145b15156115e057600080fd5b600060ff168160ff161415156115f557600080fd5b6115ff8585611dd1565b9250505092915050565b60015481565b6000806000600c54915061163382611625611af4565b61182c90919063ffffffff16565b905060008214156116475760009250611672565b600d5481101561165a5760019250611672565b600e5481101561166d5760089250611672565b601092505b505090565b600080611682611e25565b905061168c611e2f565b81101561169c57600191506116b9565b6116a4611e39565b8110156116b457600291506116b9565b600491505b5090565b60008060ff168414156116d357600090506117b1565b600160ff1684141561173c57600160ff1683141561170957600460ff1682141561170057600890506117b1565b600190506117b1565b600860ff1683141561173357600160ff1682141561172a57600490506117b1565b600890506117b1565b601090506117b1565b600460ff1684141561177457600160ff1683148061175d5750600860ff1683145b1561176b57600490506117b1565b601090506117b1565b600860ff168414156117ac57600160ff168314806117955750600860ff1683145b156117a357600890506117b1565b601090506117b1565b601090505b9392505050565b60008060008414156117cd57600091506117ec565b82840290508284828115156117de57fe5b041415156117e857fe5b8091505b5092915050565b600080828481151561180157fe5b0490508091505092915050565b600080828401905083811015151561182257fe5b8091505092915050565b600082821115151561183a57fe5b818303905092915050565b6000601360009054906101000a900473ffffffffffffffffffffffffffffffffffffffff1673ffffffffffffffffffffffffffffffffffffffff1663f8548e3660145485856040518463ffffffff167c0100000000000000000000000000000000000000000000000000000000028152600401808481526020018373ffffffffffffffffffffffffffffffffffffffff1673ffffffffffffffffffffffffffffffffffffffff1681526020018281526020019350505050602060405180830381600087803b15801561191657600080fd5b505af115801561192a573d6000803e3d6000fd5b505050506040513d602081101561194057600080fd5b8101908080519060200190929190505050905092915050565b6000601060003373ffffffffffffffffffffffffffffffffffffffff1673ffffffffffffffffffffffffffffffffffffffff16815260200190815260200160002060009054906101000a900460ff16905090565b6000601360009054906101000a900473ffffffffffffffffffffffffffffffffffffffff1673ffffffffffffffffffffffffffffffffffffffff16631c0f12b66014543330866040518563ffffffff167c0100000000000000000000000000000000000000000000000000000000028152600401808581526020018473ffffffffffffffffffffffffffffffffffffffff1673ffffffffffffffffffffffffffffffffffffffff1681526020018373ffffffffffffffffffffffffffffffffffffffff1673ffffffffffffffffffffffffffffffffffffffff168152602001828152602001945050505050602060405180830381600087803b158015611ab257600080fd5b505af1158015611ac6573d6000803e3d6000fd5b505050506040513d6020811015611adc57600080fd5b81019080805190602001909291905050509050919050565b60004260125401905090565b6000806000611b0e85611e43565b9150838210151515611b1f57600080fd5b611b4b84600960008860ff1660ff1681526020019081526020016000205461180e90919063ffffffff16565b600960008760ff1660ff16815260200190815260200160002081905550611b7185611e99565b90508073ffffffffffffffffffffffffffffffffffffffff166108fc859081150290604051600060405180830381858888f19350505050158015611bb9573d6000803e3d6000fd5b508073ffffffffffffffffffffffffffffffffffffffff168560ff167f0fd79c527d8fff6ba27289ff9bf7bf508210c1b8503799ff89bba54447848e8c866040518082815260200191505060405180910390a360019250505092915050565b600080600080600080600f60009054906101000a900460ff1660ff169450611c3e61160f565b60ff169350611c4b611677565b60ff169250611c5b8585856116bd565b9150611c65611959565b9050600160ff16871415611cf557600460ff168160ff161480611c8e5750600860ff168160ff16145b8015611ca05750600060ff168260ff16145b15611cf057611cad611e39565b611cb5611edc565b101515611cef57611cc4611af4565b600c819055506001600f60006101000a81548160ff021916908360ff16021790555060019550611dc7565b5b600080fd5b600860ff16871415611d5a57600460ff168160ff161480611d1c5750600860ff168160ff16145b8015611d2b5750600260ff1683145b15611d55576008600f60006101000a81548160ff021916908360ff16021790555060019550611dc7565b600080fd5b600460ff16871415611dc257600460ff168160ff161480611d815750600860ff168160ff16145b8015611d935750600160ff168260ff16145b15611dbd576004600f60006101000a81548160ff021916908360ff16021790555060019550611dc7565b600080fd5b600080fd5b5050505050919050565b600082601360006101000a81548173ffffffffffffffffffffffffffffffffffffffff021916908373ffffffffffffffffffffffffffffffffffffffff160217905550816014819055506001905092915050565b6000600b54905090565b6000600154905090565b6000600254905090565b6000600460ff168260ff16141515611e5e5760009050611e94565b600960008360ff1660ff168152602001908152602001600020543073ffffffffffffffffffffffffffffffffffffffff16310390505b919050565b6000601160008360ff1660ff16815260200190815260200160002060009054906101000a900473ffffffffffffffffffffffffffffffffffffffff169050919050565b6000601360009054906101000a900473ffffffffffffffffffffffffffffffffffffffff1673ffffffffffffffffffffffffffffffffffffffff16633656eec2601454306040518363ffffffff167c0100000000000000000000000000000000000000000000000000000000028152600401808381526020018273ffffffffffffffffffffffffffffffffffffffff1673ffffffffffffffffffffffffffffffffffffffff16815260200192505050602060405180830381600087803b158015611fa557600080fd5b505af1158015611fb9573d6000803e3d6000fd5b505050506040513d6020811015611fcf57600080fd5b81019080805190602001909291905050509050905600a165627a7a723058202bf69c747af75fafe37fd5d7f5f3b7c7018c86cc20a90fcf4ab821fa61236ea10029",
  "source": "pragma solidity ^0.4.23;\n\nimport \"./ISAOTest888.sol\";\nimport \"../../libs/token/ERC888/IERC888.sol\";\n\ncontract IERC888_2 is IERC888 {\n    function init(uint _tokenId, uint _value) external;\n}\n\ncontract ISAOTest888_2 is ISAOTest888 {\n  uint8 constant ST_RAISING = 0x01;\n  constructor(uint _raisingPeriod, \n              uint _distributionPeriod, \n              uint _minimalFundSize,\n              uint[] _limits, \n              uint[] _costs,\n              uint _minimalDeposit,\n              address _adminAddress,\n              address _paybotAddress) public ISAOTest888(_raisingPeriod, _distributionPeriod,\n              _minimalFundSize, _limits, _costs, _minimalDeposit, _adminAddress, _paybotAddress\n              ) {\n  }\n  function init (address _tokenAddress, uint _tokenId) public returns(bool) {\n    require(tokenAddress==address(0));\n    tokenAddress = _tokenAddress;\n    tokenId = _tokenId;\n    initialState_ = ST_RAISING;\n    launchTimestamp = getTimestamp_();\n    return true;\n  }\n}\n\n/// @notice  This factory is not legacy, but it is ganache-compatible. Do not write in-constructor factories for production!\ncontract ISAOTest888Factory {\n  uint8 constant ST_RAISING = 0x01;\n  address public isaoAddress;\n\n  constructor(uint _raisingPeriod, \n              uint _distributionPeriod, \n              uint _minimalFundSize,\n              uint[] _limits, \n              uint[] _costs,\n              uint _minimalDeposit,\n              address _adminAddress,\n              address _paybotAddress,\n              address _erc888Address,\n              uint _erc888tokenId) public {\n                  \n    isaoAddress = new ISAOTest888_2(_raisingPeriod, _distributionPeriod, \n      _minimalFundSize, _limits, _costs, _minimalDeposit, _adminAddress, _paybotAddress);\n    ISAOTest888_2(isaoAddress).init(_erc888Address, _erc888tokenId);\n    uint _value = _limits[_limits.length-1];\n    IERC888_2(_erc888Address).init(_erc888tokenId, _value+1);\n    IERC888_2(_erc888Address).transfer(_erc888tokenId, isaoAddress, _value);\n  }\n}",
  "sourcePath": "E:\\WORK\\BNKX-POA\\ISAO\\contracts\\testing\\ISAOTest\\ISAOTestFactory888.sol",
  "compiler": {
    "name": "solc",
    "version": "0.4.23+commit.124ca40d.Emscripten.clang"
  },
  "schemaVersion": "2.0.0",
  "updatedAt": "2018-06-22T17:16:08.766Z"
}