{
  "contractName": "MultiToken",
  "abi": [
    {
      "constant": true,
      "inputs": [],
      "name": "mask",
      "outputs": [
        {
          "name": "",
          "type": "uint256"
        }
      ],
      "payable": false,
      "stateMutability": "view",
      "type": "function"
    },
    {
      "constant": true,
      "inputs": [],
      "name": "decimals",
      "outputs": [
        {
          "name": "",
          "type": "uint8"
        }
      ],
      "payable": false,
      "stateMutability": "view",
      "type": "function"
    },
    {
      "constant": true,
      "inputs": [],
      "name": "owner",
      "outputs": [
        {
          "name": "",
          "type": "address"
        }
      ],
      "payable": false,
      "stateMutability": "view",
      "type": "function"
    },
    {
      "constant": false,
      "inputs": [
        {
          "name": "newOwner",
          "type": "address"
        }
      ],
      "name": "transferOwnership",
      "outputs": [],
      "payable": false,
      "stateMutability": "nonpayable",
      "type": "function"
    },
    {
      "anonymous": false,
      "inputs": [
        {
          "indexed": true,
          "name": "tokenId",
          "type": "uint256"
        },
        {
          "indexed": true,
          "name": "from",
          "type": "address"
        },
        {
          "indexed": true,
          "name": "to",
          "type": "address"
        },
        {
          "indexed": false,
          "name": "value",
          "type": "uint256"
        }
      ],
      "name": "Transfer",
      "type": "event"
    },
    {
      "anonymous": false,
      "inputs": [
        {
          "indexed": true,
          "name": "tokenId",
          "type": "uint256"
        },
        {
          "indexed": true,
          "name": "owner",
          "type": "address"
        },
        {
          "indexed": true,
          "name": "spender",
          "type": "address"
        },
        {
          "indexed": false,
          "name": "value",
          "type": "uint256"
        }
      ],
      "name": "Approval",
      "type": "event"
    },
    {
      "anonymous": false,
      "inputs": [
        {
          "indexed": true,
          "name": "previousOwner",
          "type": "address"
        },
        {
          "indexed": true,
          "name": "newOwner",
          "type": "address"
        }
      ],
      "name": "OwnershipTransferred",
      "type": "event"
    },
    {
      "constant": false,
      "inputs": [
        {
          "name": "_tokenId",
          "type": "uint256"
        },
        {
          "name": "_to",
          "type": "address"
        },
        {
          "name": "_value",
          "type": "uint256"
        }
      ],
      "name": "createNewSubtoken",
      "outputs": [
        {
          "name": "",
          "type": "bool"
        }
      ],
      "payable": false,
      "stateMutability": "nonpayable",
      "type": "function"
    },
    {
      "constant": true,
      "inputs": [
        {
          "name": "_tokenId",
          "type": "uint256"
        }
      ],
      "name": "totalSupply",
      "outputs": [
        {
          "name": "",
          "type": "uint256"
        }
      ],
      "payable": false,
      "stateMutability": "view",
      "type": "function"
    },
    {
      "constant": true,
      "inputs": [
        {
          "name": "_tokenId",
          "type": "uint256"
        },
        {
          "name": "_owner",
          "type": "address"
        }
      ],
      "name": "balanceOf",
      "outputs": [
        {
          "name": "",
          "type": "uint256"
        }
      ],
      "payable": false,
      "stateMutability": "view",
      "type": "function"
    },
    {
      "constant": true,
      "inputs": [
        {
          "name": "_tokenId",
          "type": "uint256"
        },
        {
          "name": "_owner",
          "type": "address"
        },
        {
          "name": "_spender",
          "type": "address"
        }
      ],
      "name": "allowance",
      "outputs": [
        {
          "name": "",
          "type": "uint256"
        }
      ],
      "payable": false,
      "stateMutability": "view",
      "type": "function"
    },
    {
      "constant": false,
      "inputs": [
        {
          "name": "_tokenId",
          "type": "uint256"
        },
        {
          "name": "_to",
          "type": "address"
        },
        {
          "name": "_value",
          "type": "uint256"
        }
      ],
      "name": "transfer",
      "outputs": [
        {
          "name": "",
          "type": "bool"
        }
      ],
      "payable": false,
      "stateMutability": "nonpayable",
      "type": "function"
    },
    {
      "constant": false,
      "inputs": [
        {
          "name": "_tokenId",
          "type": "uint256"
        },
        {
          "name": "_from",
          "type": "address"
        },
        {
          "name": "_to",
          "type": "address"
        },
        {
          "name": "_value",
          "type": "uint256"
        }
      ],
      "name": "transferFrom",
      "outputs": [
        {
          "name": "",
          "type": "bool"
        }
      ],
      "payable": false,
      "stateMutability": "nonpayable",
      "type": "function"
    },
    {
      "constant": false,
      "inputs": [
        {
          "name": "_tokenId",
          "type": "uint256"
        },
        {
          "name": "_spender",
          "type": "address"
        },
        {
          "name": "_value",
          "type": "uint256"
        }
      ],
      "name": "approve",
      "outputs": [
        {
          "name": "",
          "type": "bool"
        }
      ],
      "payable": false,
      "stateMutability": "nonpayable",
      "type": "function"
    },
    {
      "constant": false,
      "inputs": [
        {
          "name": "_tokenId",
          "type": "uint256"
        },
        {
          "name": "_spender",
          "type": "address"
        },
        {
          "name": "_addedValue",
          "type": "uint256"
        }
      ],
      "name": "increaseApproval",
      "outputs": [
        {
          "name": "",
          "type": "bool"
        }
      ],
      "payable": false,
      "stateMutability": "nonpayable",
      "type": "function"
    },
    {
      "constant": false,
      "inputs": [
        {
          "name": "_tokenId",
          "type": "uint256"
        },
        {
          "name": "_spender",
          "type": "address"
        },
        {
          "name": "_subtractedValue",
          "type": "uint256"
        }
      ],
      "name": "decreaseApproval",
      "outputs": [
        {
          "name": "",
          "type": "bool"
        }
      ],
      "payable": false,
      "stateMutability": "nonpayable",
      "type": "function"
    }
  ],
  "bytecode": "0x60806040526012600460006101000a81548160ff021916908360ff16021790555063ffffffff600555336000806101000a81548173ffffffffffffffffffffffffffffffffffffffff021916908373ffffffffffffffffffffffffffffffffffffffff1602179055506117a7806100776000396000f3006080604052600436106100c5576000357c0100000000000000000000000000000000000000000000000000000000900463ffffffff168063090e871f146100ca5780630d550b7514610139578063116134ee146101ba5780631c0f12b6146101e5578063313ce567146102745780633656eec2146102a55780638cb0a511146103065780638da5cb5b14610375578063bb88c016146103cc578063bd85b0391461043b578063c9101f6c1461047c578063f2fde38b146104eb578063f8548e361461052e575b600080fd5b3480156100d657600080fd5b5061011f60048036038101908080359060200190929190803573ffffffffffffffffffffffffffffffffffffffff1690602001909291908035906020019092919050505061059d565b604051808215151515815260200191505060405180910390f35b34801561014557600080fd5b506101a460048036038101908080359060200190929190803573ffffffffffffffffffffffffffffffffffffffff169060200190929190803573ffffffffffffffffffffffffffffffffffffffff16906020019092919050505061071b565b6040518082815260200191505060405180910390f35b3480156101c657600080fd5b506101cf6107e7565b6040518082815260200191505060405180910390f35b3480156101f157600080fd5b5061025a60048036038101908080359060200190929190803573ffffffffffffffffffffffffffffffffffffffff169060200190929190803573ffffffffffffffffffffffffffffffffffffffff169060200190929190803590602001909291905050506107ed565b604051808215151515815260200191505060405180910390f35b34801561028057600080fd5b50610289610c0e565b604051808260ff1660ff16815260200191505060405180910390f35b3480156102b157600080fd5b506102f060048036038101908080359060200190929190803573ffffffffffffffffffffffffffffffffffffffff169060200190929190505050610c21565b6040518082815260200191505060405180910390f35b34801561031257600080fd5b5061035b60048036038101908080359060200190929190803573ffffffffffffffffffffffffffffffffffffffff16906020019092919080359060200190929190505050610caf565b604051808215151515815260200191505060405180910390f35b34801561038157600080fd5b5061038a610db9565b604051808273ffffffffffffffffffffffffffffffffffffffff1673ffffffffffffffffffffffffffffffffffffffff16815260200191505060405180910390f35b3480156103d857600080fd5b5061042160048036038101908080359060200190929190803573ffffffffffffffffffffffffffffffffffffffff16906020019092919080359060200190929190505050610dde565b604051808215151515815260200191505060405180910390f35b34801561044757600080fd5b50610466600480360381019080803590602001909291905050506110bb565b6040518082815260200191505060405180910390f35b34801561048857600080fd5b506104d160048036038101908080359060200190929190803573ffffffffffffffffffffffffffffffffffffffff1690602001909291908035906020019092919050505061110b565b604051808215151515815260200191505060405180910390f35b3480156104f757600080fd5b5061052c600480360381019080803573ffffffffffffffffffffffffffffffffffffffff169060200190929190505050611341565b005b34801561053a57600080fd5b5061058360048036038101908080359060200190929190803573ffffffffffffffffffffffffffffffffffffffff16906020019092919080359060200190929190505050611496565b604051808215151515815260200191505060405180910390f35b600083600060036000838152602001908152602001600020541480156105c65750806005548216145b15156105d157600080fd5b6000809054906101000a900473ffffffffffffffffffffffffffffffffffffffff1673ffffffffffffffffffffffffffffffffffffffff163373ffffffffffffffffffffffffffffffffffffffff1614151561062c57600080fd5b60008311151561063b57600080fd5b826002600087815260200190815260200160002060008673ffffffffffffffffffffffffffffffffffffffff1673ffffffffffffffffffffffffffffffffffffffff168152602001908152602001600020819055508260036000878152602001908152602001600020819055508373ffffffffffffffffffffffffffffffffffffffff16600073ffffffffffffffffffffffffffffffffffffffff16867ff2dbd98d79f00f7aff338b824931d607bfcc63d47307162470f25a055102d3b0866040518082815260200191505060405180910390a460019150509392505050565b600083600060036000838152602001908152602001600020541180156107445750806005548216145b151561074f57600080fd5b6001600086815260200190815260200160002060008573ffffffffffffffffffffffffffffffffffffffff1673ffffffffffffffffffffffffffffffffffffffff16815260200190815260200160002060008473ffffffffffffffffffffffffffffffffffffffff1673ffffffffffffffffffffffffffffffffffffffff168152602001908152602001600020549150509392505050565b60055481565b600080600080876000600360008381526020019081526020016000205411801561081a5750806005548216145b151561082557600080fd5b339350600260008a81526020019081526020016000209250600160008a81526020019081526020016000209150600073ffffffffffffffffffffffffffffffffffffffff168773ffffffffffffffffffffffffffffffffffffffff161415151561088e57600080fd5b8260008973ffffffffffffffffffffffffffffffffffffffff1673ffffffffffffffffffffffffffffffffffffffff1681526020019081526020016000205486111515156108db57600080fd5b8160008973ffffffffffffffffffffffffffffffffffffffff1673ffffffffffffffffffffffffffffffffffffffff16815260200190815260200160002060008573ffffffffffffffffffffffffffffffffffffffff1673ffffffffffffffffffffffffffffffffffffffff16815260200190815260200160002054861115151561096557600080fd5b6109b6868460008b73ffffffffffffffffffffffffffffffffffffffff1673ffffffffffffffffffffffffffffffffffffffff1681526020019081526020016000205461174490919063ffffffff16565b8360008a73ffffffffffffffffffffffffffffffffffffffff1673ffffffffffffffffffffffffffffffffffffffff16815260200190815260200160002081905550610a49868460008a73ffffffffffffffffffffffffffffffffffffffff1673ffffffffffffffffffffffffffffffffffffffff1681526020019081526020016000205461175d90919063ffffffff16565b8360008973ffffffffffffffffffffffffffffffffffffffff1673ffffffffffffffffffffffffffffffffffffffff16815260200190815260200160002081905550610b19868360008b73ffffffffffffffffffffffffffffffffffffffff1673ffffffffffffffffffffffffffffffffffffffff16815260200190815260200160002060008773ffffffffffffffffffffffffffffffffffffffff1673ffffffffffffffffffffffffffffffffffffffff1681526020019081526020016000205461174490919063ffffffff16565b8260008a73ffffffffffffffffffffffffffffffffffffffff1673ffffffffffffffffffffffffffffffffffffffff16815260200190815260200160002060008673ffffffffffffffffffffffffffffffffffffffff1673ffffffffffffffffffffffffffffffffffffffff168152602001908152602001600020819055508673ffffffffffffffffffffffffffffffffffffffff168873ffffffffffffffffffffffffffffffffffffffff168a7ff2dbd98d79f00f7aff338b824931d607bfcc63d47307162470f25a055102d3b0896040518082815260200191505060405180910390a46001945050505050949350505050565b600460009054906101000a900460ff1681565b60008260006003600083815260200190815260200160002054118015610c4a5750806005548216145b1515610c5557600080fd5b6002600085815260200190815260200160002060008473ffffffffffffffffffffffffffffffffffffffff1673ffffffffffffffffffffffffffffffffffffffff1681526020019081526020016000205491505092915050565b600080339050826001600087815260200190815260200160002060008373ffffffffffffffffffffffffffffffffffffffff1673ffffffffffffffffffffffffffffffffffffffff16815260200190815260200160002060008673ffffffffffffffffffffffffffffffffffffffff1673ffffffffffffffffffffffffffffffffffffffff168152602001908152602001600020819055508373ffffffffffffffffffffffffffffffffffffffff168173ffffffffffffffffffffffffffffffffffffffff16867f69e4aaf23f9318cf40839ac20453d8fbedaac2955eb08a27ae5189cc71925716866040518082815260200191505060405180910390a460019150509392505050565b6000809054906101000a900473ffffffffffffffffffffffffffffffffffffffff1681565b60008060003391506001600087815260200190815260200160002060008373ffffffffffffffffffffffffffffffffffffffff1673ffffffffffffffffffffffffffffffffffffffff16815260200190815260200160002060008673ffffffffffffffffffffffffffffffffffffffff1673ffffffffffffffffffffffffffffffffffffffff16815260200190815260200160002054905080841115610f165760006001600088815260200190815260200160002060008473ffffffffffffffffffffffffffffffffffffffff1673ffffffffffffffffffffffffffffffffffffffff16815260200190815260200160002060008773ffffffffffffffffffffffffffffffffffffffff1673ffffffffffffffffffffffffffffffffffffffff16815260200190815260200160002081905550610fbb565b610f29848261174490919063ffffffff16565b6001600088815260200190815260200160002060008473ffffffffffffffffffffffffffffffffffffffff1673ffffffffffffffffffffffffffffffffffffffff16815260200190815260200160002060008773ffffffffffffffffffffffffffffffffffffffff1673ffffffffffffffffffffffffffffffffffffffff168152602001908152602001600020819055505b8473ffffffffffffffffffffffffffffffffffffffff168273ffffffffffffffffffffffffffffffffffffffff16877f69e4aaf23f9318cf40839ac20453d8fbedaac2955eb08a27ae5189cc71925716600160008b815260200190815260200160002060008773ffffffffffffffffffffffffffffffffffffffff1673ffffffffffffffffffffffffffffffffffffffff16815260200190815260200160002060008a73ffffffffffffffffffffffffffffffffffffffff1673ffffffffffffffffffffffffffffffffffffffff168152602001908152602001600020546040518082815260200191505060405180910390a46001925050509392505050565b600081600060036000838152602001908152602001600020541180156110e45750806005548216145b15156110ef57600080fd5b6003600084815260200190815260200160002054915050919050565b6000803390506111b1836001600088815260200190815260200160002060008473ffffffffffffffffffffffffffffffffffffffff1673ffffffffffffffffffffffffffffffffffffffff16815260200190815260200160002060008773ffffffffffffffffffffffffffffffffffffffff1673ffffffffffffffffffffffffffffffffffffffff1681526020019081526020016000205461175d90919063ffffffff16565b6001600087815260200190815260200160002060008373ffffffffffffffffffffffffffffffffffffffff1673ffffffffffffffffffffffffffffffffffffffff16815260200190815260200160002060008673ffffffffffffffffffffffffffffffffffffffff1673ffffffffffffffffffffffffffffffffffffffff168152602001908152602001600020819055508373ffffffffffffffffffffffffffffffffffffffff168173ffffffffffffffffffffffffffffffffffffffff16867f69e4aaf23f9318cf40839ac20453d8fbedaac2955eb08a27ae5189cc71925716600160008a815260200190815260200160002060008673ffffffffffffffffffffffffffffffffffffffff1673ffffffffffffffffffffffffffffffffffffffff16815260200190815260200160002060008973ffffffffffffffffffffffffffffffffffffffff1673ffffffffffffffffffffffffffffffffffffffff168152602001908152602001600020546040518082815260200191505060405180910390a460019150509392505050565b6000809054906101000a900473ffffffffffffffffffffffffffffffffffffffff1673ffffffffffffffffffffffffffffffffffffffff163373ffffffffffffffffffffffffffffffffffffffff1614151561139c57600080fd5b600073ffffffffffffffffffffffffffffffffffffffff168173ffffffffffffffffffffffffffffffffffffffff16141515156113d857600080fd5b8073ffffffffffffffffffffffffffffffffffffffff166000809054906101000a900473ffffffffffffffffffffffffffffffffffffffff1673ffffffffffffffffffffffffffffffffffffffff167f8be0079c531659141344cd1fd0a4f28419497f9722a3daafe3b4186f6b6457e060405160405180910390a3806000806101000a81548173ffffffffffffffffffffffffffffffffffffffff021916908373ffffffffffffffffffffffffffffffffffffffff16021790555050565b600080600085600060036000838152602001908152602001600020541180156114c25750806005548216145b15156114cd57600080fd5b600073ffffffffffffffffffffffffffffffffffffffff168673ffffffffffffffffffffffffffffffffffffffff161415151561150957600080fd5b339250600260008881526020019081526020016000209150600073ffffffffffffffffffffffffffffffffffffffff168673ffffffffffffffffffffffffffffffffffffffff161415151561155d57600080fd5b8160008473ffffffffffffffffffffffffffffffffffffffff1673ffffffffffffffffffffffffffffffffffffffff1681526020019081526020016000205485111515156115aa57600080fd5b6115fb858360008673ffffffffffffffffffffffffffffffffffffffff1673ffffffffffffffffffffffffffffffffffffffff1681526020019081526020016000205461174490919063ffffffff16565b8260008573ffffffffffffffffffffffffffffffffffffffff1673ffffffffffffffffffffffffffffffffffffffff1681526020019081526020016000208190555061168e858360008973ffffffffffffffffffffffffffffffffffffffff1673ffffffffffffffffffffffffffffffffffffffff1681526020019081526020016000205461175d90919063ffffffff16565b8260008873ffffffffffffffffffffffffffffffffffffffff1673ffffffffffffffffffffffffffffffffffffffff168152602001908152602001600020819055508573ffffffffffffffffffffffffffffffffffffffff168373ffffffffffffffffffffffffffffffffffffffff16887ff2dbd98d79f00f7aff338b824931d607bfcc63d47307162470f25a055102d3b0886040518082815260200191505060405180910390a4600193505050509392505050565b600082821115151561175257fe5b818303905092915050565b600080828401905083811015151561177157fe5b80915050929150505600a165627a7a7230582087b573bf95d88d73259c614c062d56ed278834a356ec1d2d9328a4352097acf30029",
  "source": "pragma solidity ^0.4.18;\r\n\r\nimport \"../../math/SafeMath.sol\";\r\nimport \"../../ownership/Ownable.sol\";\r\nimport \"./MultiTokenBasics.sol\";\r\n\r\n\r\ncontract MultiToken is Ownable, MultiTokenBasics {\r\n\tusing SafeMath for uint256;\r\n\r\n\tmapping(uint256 => mapping(address => mapping(address => uint256))) private allowed;\r\n\tmapping(uint256 => mapping(address => uint256)) private balance;\r\n\tmapping(uint256 => uint256) private totalSupply_;\r\n\r\n\r\n\tuint8 public decimals = 18;\r\n\tuint256 public mask = 0xffffffff;\r\n\r\n\r\n\r\n\t/**\r\n    * @dev Throws if _tokenId not exists\r\n    * @param _tokenId uint256 is subtoken identifier\r\n    */\r\n\r\n\tmodifier existingToken(uint256 _tokenId) {\r\n\t\trequire(totalSupply_[_tokenId] > 0 && (_tokenId & mask == _tokenId));\r\n\t\t_;\r\n\t}\r\n\r\n\t/**\r\n    * @dev Throws if  _tokenId exists\r\n    * @param _tokenId uint256 is subtoken identifier\r\n    */\r\n\r\n\tmodifier notExistingToken(uint256 _tokenId) {\r\n\t\trequire(totalSupply_[_tokenId] == 0 && (_tokenId & mask == _tokenId));\r\n\t\t_;\r\n\t}\r\n\r\n\r\n\r\n\r\n\r\n\t/**\r\n    * @dev create new subtoken with unique tokenId\r\n    * @param _tokenId uint256 is subtoken identifier\r\n    * @param _to The address to transfer to.\r\n    * @param _value The amount to be transferred.\r\n    * @return uint256 representing the total amount of tokens\r\n    */\r\n\r\n\tfunction createNewSubtoken(uint256 _tokenId, address _to, uint256 _value) notExistingToken(_tokenId) onlyOwner() public returns (bool) {\r\n\t\trequire(_value > 0);\r\n\t\tbalance[_tokenId][_to] = _value;\r\n\t\ttotalSupply_[_tokenId] = _value;\r\n\t\tTransfer(_tokenId, address(0), _to, _value);\r\n\t\treturn true;\r\n\t}\r\n\r\n\r\n\t/**\r\n    * @dev Gets the total amount of tokens stored by the contract\r\n    * @param _tokenId uint256 is subtoken identifier\r\n    * @return uint256 representing the total amount of tokens\r\n    */\r\n\r\n\tfunction totalSupply(uint256 _tokenId) existingToken(_tokenId) public view returns (uint256) {\r\n\t\treturn totalSupply_[_tokenId];\r\n\t}\r\n\r\n\t/**\r\n    * @dev Gets the balance of the specified address\r\n    * @param _tokenId uint256 is subtoken identifier\r\n    * @param _owner address to query the balance of\r\n    * @return uint256 representing the amount owned by the passed address\r\n    */\r\n\r\n\tfunction balanceOf(uint256 _tokenId, address _owner) existingToken(_tokenId) public view returns (uint256) {\r\n\t\treturn balance[_tokenId][_owner];\r\n\t}\r\n\r\n\r\n\r\n\t/**\r\n    * @dev Function to check the amount of tokens that an owner allowed to a spender.\r\n    * @param _tokenId uint256 is subtoken identifier\r\n    * @param _owner address The address which owns the funds.\r\n    * @param _spender address The address which will spend the funds.\r\n    * @return A uint256 specifying the amount of tokens still available for the spender.\r\n    */\r\n\r\n\tfunction allowance(uint256 _tokenId, address _owner, address _spender) existingToken(_tokenId) public view returns (uint256) {\r\n\t\treturn allowed[_tokenId][_owner][_spender];\r\n\t}\r\n\r\n\r\n\r\n\t/**\r\n    * @dev transfer token for a specified address\r\n    * @param _tokenId uint256 is subtoken identifier\r\n    * @param _to The address to transfer to.\r\n    * @param _value The amount to be transferred.\r\n    */\r\n\r\n\tfunction transfer(uint256 _tokenId, address _to, uint256 _value) existingToken(_tokenId) public returns (bool) {\r\n\t\trequire(_to != address(0));\r\n\t\tvar _sender = msg.sender;\r\n\t\tvar balances = balance[_tokenId];\r\n\t\trequire(_to != address(0));\r\n\t\trequire(_value <= balances[_sender]);\r\n\r\n\t\t// SafeMath.sub will throw if there is not enough balance.\r\n\t\tbalances[_sender] = balances[_sender].sub(_value);\r\n\t\tbalances[_to] = balances[_to].add(_value);\r\n\t\tTransfer(_tokenId, _sender, _to, _value);\r\n\t\treturn true;\r\n\t}\r\n\r\n\r\n\t/**\r\n    * @dev Transfer tokens from one address to another\r\n    * @param _tokenId uint256 is subtoken identifier\r\n    * @param _from address The address which you want to send tokens from\r\n    * @param _to address The address which you want to transfer to\r\n    * @param _value uint256 the amount of tokens to be transferred\r\n    */\r\n\r\n\tfunction transferFrom(uint256 _tokenId, address _from, address _to, uint256 _value) existingToken(_tokenId) public returns (bool) {\r\n\t\taddress _sender = msg.sender;\r\n\t\tvar balances = balance[_tokenId];\r\n\t\tvar tokenAllowed = allowed[_tokenId];\r\n\r\n\t\trequire(_to != address(0));\r\n\t\trequire(_value <= balances[_from]);\r\n\t\trequire(_value <= tokenAllowed[_from][_sender]);\r\n\r\n\t\tbalances[_from] = balances[_from].sub(_value);\r\n\t\tbalances[_to] = balances[_to].add(_value);\r\n\t\ttokenAllowed[_from][_sender] = tokenAllowed[_from][_sender].sub(_value);\r\n\t\tTransfer(_tokenId, _from, _to, _value);\r\n\t\treturn true;\r\n\t}\r\n\r\n\r\n\r\n\t/**\r\n    * @dev Approve the passed address to spend the specified amount of tokens on behalf of msg.sender.\r\n    *\r\n    * Beware that changing an allowance with this method brings the risk that someone may use both the old\r\n    * and the new allowance by unfortunate transaction ordering. One possible solution to mitigate this\r\n    * race condition is to first reduce the spender's allowance to 0 and set the desired value afterwards:\r\n    * https://github.com/ethereum/EIPs/issues/20#issuecomment-263524729\r\n    * @param _tokenId uint256 is subtoken identifier\r\n    * @param _spender The address which will spend the funds.\r\n    * @param _value The amount of tokens to be spent.\r\n    */\r\n\r\n\r\n\r\n\tfunction approve(uint256 _tokenId, address _spender, uint256 _value) public returns (bool) {\r\n\t\tvar _sender = msg.sender;\r\n\t\tallowed[_tokenId][_sender][_spender] = _value;\r\n\t\tApproval(_tokenId, _sender, _spender, _value);\r\n\t\treturn true;\r\n\t}\r\n\r\n\r\n\t/**\r\n\t * @dev Increase the amount of tokens that an owner allowed to a spender.\r\n\t * @param _tokenId uint256 is subtoken identifier.\r\n\t * @param _spender The address which will spend the funds.\r\n     * @param _addedValue The amount of tokens to increase the allowance by.\r\n\t */\r\n\r\n\tfunction increaseApproval(uint256 _tokenId, address _spender, uint _addedValue) public returns (bool) {\r\n\t\tvar _sender = msg.sender;\r\n    \tallowed[_tokenId][_sender][_spender] = allowed[_tokenId][_sender][_spender].add(_addedValue);\r\n    \tApproval(_tokenId, _sender, _spender, allowed[_tokenId][_sender][_spender]);\r\n    \treturn true;\r\n    }\r\n\r\n\t/**\r\n   \t * @dev Decrease the amount of tokens that an owner allowed to a spender.\r\n\t * \r\n     * @param _tokenId uint256 is subtoken identifier.\r\n     * @param _spender The address which will spend the funds.\r\n     * @param _subtractedValue The amount of tokens to decrease the allowance by.\r\n     */\r\n    function decreaseApproval(uint256 _tokenId, address _spender, uint _subtractedValue) public returns (bool) {\r\n\t\tvar _sender = msg.sender;\r\n    \tuint oldValue = allowed[_tokenId][_sender][_spender];\r\n    \tif (_subtractedValue > oldValue) {\r\n        \tallowed[_tokenId][_sender][_spender] = 0;\r\n      \t} else {\r\n    \t\tallowed[_tokenId][_sender][_spender] = oldValue.sub(_subtractedValue);\r\n      \t}\r\n      \tApproval(_tokenId, _sender, _spender, allowed[_tokenId][_sender][_spender]);\r\n      \treturn true;\r\n    }\r\n}\r\n",
  "sourcePath": "C:\\Work\\Projects\\multi_token\\contracts\\token\\multiToken\\MultiToken.sol",
  "compiler": {
    "name": "solc",
    "version": "0.4.23+commit.124ca40d.Emscripten.clang"
  },
  "schemaVersion": "2.0.0",
  "updatedAt": "2018-04-26T17:42:46.761Z"
}