{
  "contractName": "ISAOTestFactory",
  "abi": [
    {
      "constant": true,
      "inputs": [],
      "name": "erc20Address",
      "outputs": [
        {
          "name": "",
          "type": "address"
        }
      ],
      "payable": false,
      "stateMutability": "view",
      "type": "function"
    },
    {
      "constant": true,
      "inputs": [],
      "name": "isaoAddress",
      "outputs": [
        {
          "name": "",
          "type": "address"
        }
      ],
      "payable": false,
      "stateMutability": "view",
      "type": "function"
    },
    {
      "inputs": [
        {
          "name": "_raisingPeriod",
          "type": "uint256"
        },
        {
          "name": "_distributionPeriod",
          "type": "uint256"
        },
        {
          "name": "_minimalFundSize",
          "type": "uint256"
        },
        {
          "name": "_limits",
          "type": "uint256[]"
        },
        {
          "name": "_costs",
          "type": "uint256[]"
        },
        {
          "name": "_minimalDeposit",
          "type": "uint256"
        },
        {
          "name": "_adminAddress",
          "type": "address"
        },
        {
          "name": "_paybotAddress",
          "type": "address"
        }
      ],
      "payable": false,
      "stateMutability": "nonpayable",
      "type": "constructor"
    }
  ],
  "bytecode": "0x608060405234801561001057600080fd5b50604051613ceb380380613ceb83398101806040528101908080519060200190929190805190602001909291908051906020019092919080518201929190602001805182019291906020018051906020019092919080519060200190929190805190602001909291905050506100846104c6565b604051809103906000f0801580156100a0573d6000803e3d6000fd5b50600160006101000a81548173ffffffffffffffffffffffffffffffffffffffff021916908373ffffffffffffffffffffffffffffffffffffffff16021790555087878787878787876100f16104d6565b8089815260200188815260200187815260200180602001806020018681526020018573ffffffffffffffffffffffffffffffffffffffff1673ffffffffffffffffffffffffffffffffffffffff1681526020018473ffffffffffffffffffffffffffffffffffffffff1673ffffffffffffffffffffffffffffffffffffffff168152602001838103835288818151815260200191508051906020019060200280838360005b838110156101b1578082015181840152602081019050610196565b50505050905001838103825287818151815260200191508051906020019060200280838360005b838110156101f35780820151818401526020810190506101d8565b505050509050019a5050505050505050505050604051809103906000f080158015610222573d6000803e3d6000fd5b506000806101000a81548173ffffffffffffffffffffffffffffffffffffffff021916908373ffffffffffffffffffffffffffffffffffffffff1602179055506000809054906101000a900473ffffffffffffffffffffffffffffffffffffffff1673ffffffffffffffffffffffffffffffffffffffff166319ab453c600160009054906101000a900473ffffffffffffffffffffffffffffffffffffffff166040518263ffffffff167c0100000000000000000000000000000000000000000000000000000000028152600401808273ffffffffffffffffffffffffffffffffffffffff1673ffffffffffffffffffffffffffffffffffffffff168152602001915050602060405180830381600087803b15801561034057600080fd5b505af1158015610354573d6000803e3d6000fd5b505050506040513d602081101561036a57600080fd5b810190808051906020019092919050505050600160009054906101000a900473ffffffffffffffffffffffffffffffffffffffff1673ffffffffffffffffffffffffffffffffffffffff166340c10f196000809054906101000a900473ffffffffffffffffffffffffffffffffffffffff168760018951038151811015156103ee57fe5b906020019060200201516040518363ffffffff167c0100000000000000000000000000000000000000000000000000000000028152600401808373ffffffffffffffffffffffffffffffffffffffff1673ffffffffffffffffffffffffffffffffffffffff16815260200182815260200192505050602060405180830381600087803b15801561047d57600080fd5b505af1158015610491573d6000803e3d6000fd5b505050506040513d60208110156104a757600080fd5b81019080805190602001909291905050505050505050505050506104e6565b60405161120e8061066b83390190565b6040516124728061187983390190565b610176806104f56000396000f30060806040526004361061004c576000357c0100000000000000000000000000000000000000000000000000000000900463ffffffff168063276184ae14610051578063ff4bd54e146100a8575b600080fd5b34801561005d57600080fd5b506100666100ff565b604051808273ffffffffffffffffffffffffffffffffffffffff1673ffffffffffffffffffffffffffffffffffffffff16815260200191505060405180910390f35b3480156100b457600080fd5b506100bd610125565b604051808273ffffffffffffffffffffffffffffffffffffffff1673ffffffffffffffffffffffffffffffffffffffff16815260200191505060405180910390f35b600160009054906101000a900473ffffffffffffffffffffffffffffffffffffffff1681565b6000809054906101000a900473ffffffffffffffffffffffffffffffffffffffff16815600a165627a7a72305820d71238b1925e1b3b6d7f06819a4f31d949669dba024153c1354317f3ad78aeb9002960806040526040805190810160405280600a81526020017f4953414f20546f6b656e000000000000000000000000000000000000000000008152506003908051906020019062000051929190620000d0565b506040805190810160405280600581526020017f4953414f54000000000000000000000000000000000000000000000000000000815250600490805190602001906200009f929190620000d0565b506012600560006101000a81548160ff021916908360ff160217905550348015620000c957600080fd5b506200017f565b828054600181600116156101000203166002900490600052602060002090601f016020900481019282601f106200011357805160ff191683800117855562000144565b8280016001018555821562000144579182015b828111156200014357825182559160200191906001019062000126565b5b50905062000153919062000157565b5090565b6200017c91905b80821115620001785760008160009055506001016200015e565b5090565b90565b61107f806200018f6000396000f3006080604052600436106100ba576000357c0100000000000000000000000000000000000000000000000000000000900463ffffffff16806306fdde03146100bf578063095ea7b31461014f57806318160ddd146101b457806323b872dd146101df578063313ce5671461026457806340c10f191461029557806366188463146102fa57806370a082311461035f57806395d89b41146103b6578063a9059cbb14610446578063d73dd623146104ab578063dd62ed3e14610510575b600080fd5b3480156100cb57600080fd5b506100d4610587565b6040518080602001828103825283818151815260200191508051906020019080838360005b838110156101145780820151818401526020810190506100f9565b50505050905090810190601f1680156101415780820380516001836020036101000a031916815260200191505b509250505060405180910390f35b34801561015b57600080fd5b5061019a600480360381019080803573ffffffffffffffffffffffffffffffffffffffff16906020019092919080359060200190929190505050610625565b604051808215151515815260200191505060405180910390f35b3480156101c057600080fd5b506101c9610717565b6040518082815260200191505060405180910390f35b3480156101eb57600080fd5b5061024a600480360381019080803573ffffffffffffffffffffffffffffffffffffffff169060200190929190803573ffffffffffffffffffffffffffffffffffffffff16906020019092919080359060200190929190505050610721565b604051808215151515815260200191505060405180910390f35b34801561027057600080fd5b50610279610737565b604051808260ff1660ff16815260200191505060405180910390f35b3480156102a157600080fd5b506102e0600480360381019080803573ffffffffffffffffffffffffffffffffffffffff1690602001909291908035906020019092919050505061074a565b604051808215151515815260200191505060405180910390f35b34801561030657600080fd5b50610345600480360381019080803573ffffffffffffffffffffffffffffffffffffffff16906020019092919080359060200190929190505050610816565b604051808215151515815260200191505060405180910390f35b34801561036b57600080fd5b506103a0600480360381019080803573ffffffffffffffffffffffffffffffffffffffff1690602001909291905050506109b0565b6040518082815260200191505060405180910390f35b3480156103c257600080fd5b506103cb6109f8565b6040518080602001828103825283818151815260200191508051906020019080838360005b8381101561040b5780820151818401526020810190506103f0565b50505050905090810190601f1680156104385780820380516001836020036101000a031916815260200191505b509250505060405180910390f35b34801561045257600080fd5b50610491600480360381019080803573ffffffffffffffffffffffffffffffffffffffff16906020019092919080359060200190929190505050610a96565b604051808215151515815260200191505060405180910390f35b3480156104b757600080fd5b506104f6600480360381019080803573ffffffffffffffffffffffffffffffffffffffff16906020019092919080359060200190929190505050610aab565b604051808215151515815260200191505060405180910390f35b34801561051c57600080fd5b50610571600480360381019080803573ffffffffffffffffffffffffffffffffffffffff169060200190929190803573ffffffffffffffffffffffffffffffffffffffff169060200190929190505050610c33565b6040518082815260200191505060405180910390f35b60038054600181600116156101000203166002900480601f01602080910402602001604051908101604052809291908181526020018280546001816001161561010002031660029004801561061d5780601f106105f25761010080835404028352916020019161061d565b820191906000526020600020905b81548152906001019060200180831161060057829003601f168201915b505050505081565b600081600160003373ffffffffffffffffffffffffffffffffffffffff1673ffffffffffffffffffffffffffffffffffffffff16815260200190815260200160002060008573ffffffffffffffffffffffffffffffffffffffff1673ffffffffffffffffffffffffffffffffffffffff168152602001908152602001600020819055508273ffffffffffffffffffffffffffffffffffffffff163373ffffffffffffffffffffffffffffffffffffffff167f8c5be1e5ebec7d5bd14f71427d1e84f3dd0314c0f7b2291e5b200ac8c7c3b925846040518082815260200191505060405180910390a36001905092915050565b6000600254905090565b600061072e848484610cba565b90509392505050565b600560009054906101000a900460ff1681565b60008060025414151561075c57600080fd5b81600281905550816000808573ffffffffffffffffffffffffffffffffffffffff1673ffffffffffffffffffffffffffffffffffffffff168152602001908152602001600020819055508273ffffffffffffffffffffffffffffffffffffffff16600073ffffffffffffffffffffffffffffffffffffffff167fddf252ad1be2c89b69c2b068fc378daa952ba7f163c4a11628f55a4df523b3ef846040518082815260200191505060405180910390a36001905092915050565b600080600160003373ffffffffffffffffffffffffffffffffffffffff1673ffffffffffffffffffffffffffffffffffffffff16815260200190815260200160002060008573ffffffffffffffffffffffffffffffffffffffff1673ffffffffffffffffffffffffffffffffffffffff168152602001908152602001600020549050808311156108a957600090506108bf565b6108bc8382610df390919063ffffffff16565b90505b80600160003373ffffffffffffffffffffffffffffffffffffffff1673ffffffffffffffffffffffffffffffffffffffff16815260200190815260200160002060008673ffffffffffffffffffffffffffffffffffffffff1673ffffffffffffffffffffffffffffffffffffffff168152602001908152602001600020819055508373ffffffffffffffffffffffffffffffffffffffff163373ffffffffffffffffffffffffffffffffffffffff167f8c5be1e5ebec7d5bd14f71427d1e84f3dd0314c0f7b2291e5b200ac8c7c3b925836040518082815260200191505060405180910390a3600191505092915050565b60008060008373ffffffffffffffffffffffffffffffffffffffff1673ffffffffffffffffffffffffffffffffffffffff168152602001908152602001600020549050919050565b60048054600181600116156101000203166002900480601f016020809104026020016040519081016040528092919081815260200182805460018160011615610100020316600290048015610a8e5780601f10610a6357610100808354040283529160200191610a8e565b820191906000526020600020905b815481529060010190602001808311610a7157829003601f168201915b505050505081565b6000610aa3338484610e0c565b905092915050565b600080600160003373ffffffffffffffffffffffffffffffffffffffff1673ffffffffffffffffffffffffffffffffffffffff16815260200190815260200160002060008573ffffffffffffffffffffffffffffffffffffffff1673ffffffffffffffffffffffffffffffffffffffff168152602001908152602001600020549050610b40838261103590919063ffffffff16565b905080600160003373ffffffffffffffffffffffffffffffffffffffff1673ffffffffffffffffffffffffffffffffffffffff16815260200190815260200160002060008673ffffffffffffffffffffffffffffffffffffffff1673ffffffffffffffffffffffffffffffffffffffff168152602001908152602001600020819055508373ffffffffffffffffffffffffffffffffffffffff163373ffffffffffffffffffffffffffffffffffffffff167f8c5be1e5ebec7d5bd14f71427d1e84f3dd0314c0f7b2291e5b200ac8c7c3b925836040518082815260200191505060405180910390a3600191505092915050565b6000600160008473ffffffffffffffffffffffffffffffffffffffff1673ffffffffffffffffffffffffffffffffffffffff16815260200190815260200160002060008373ffffffffffffffffffffffffffffffffffffffff1673ffffffffffffffffffffffffffffffffffffffff16815260200190815260200160002054905092915050565b600080600160008673ffffffffffffffffffffffffffffffffffffffff1673ffffffffffffffffffffffffffffffffffffffff16815260200190815260200160002060003373ffffffffffffffffffffffffffffffffffffffff1673ffffffffffffffffffffffffffffffffffffffff168152602001908152602001600020549050808311151515610d4b57600080fd5b610d5e8382610df390919063ffffffff16565b600160008773ffffffffffffffffffffffffffffffffffffffff1673ffffffffffffffffffffffffffffffffffffffff16815260200190815260200160002060003373ffffffffffffffffffffffffffffffffffffffff1673ffffffffffffffffffffffffffffffffffffffff16815260200190815260200160002081905550610de9858585610e0c565b9150509392505050565b6000828211151515610e0157fe5b818303905092915050565b60008060008473ffffffffffffffffffffffffffffffffffffffff168673ffffffffffffffffffffffffffffffffffffffff1614151515610e4c57600080fd5b6000808773ffffffffffffffffffffffffffffffffffffffff1673ffffffffffffffffffffffffffffffffffffffff1681526020019081526020016000205491506000808673ffffffffffffffffffffffffffffffffffffffff1673ffffffffffffffffffffffffffffffffffffffff168152602001908152602001600020549050600073ffffffffffffffffffffffffffffffffffffffff168573ffffffffffffffffffffffffffffffffffffffff1614151515610f0a57600080fd5b818411151515610f1957600080fd5b610f2c8483610df390919063ffffffff16565b6000808873ffffffffffffffffffffffffffffffffffffffff1673ffffffffffffffffffffffffffffffffffffffff16815260200190815260200160002081905550610f81848261103590919063ffffffff16565b6000808773ffffffffffffffffffffffffffffffffffffffff1673ffffffffffffffffffffffffffffffffffffffff168152602001908152602001600020819055508473ffffffffffffffffffffffffffffffffffffffff168673ffffffffffffffffffffffffffffffffffffffff167fddf252ad1be2c89b69c2b068fc378daa952ba7f163c4a11628f55a4df523b3ef866040518082815260200191505060405180910390a36001925050509392505050565b600080828401905083811015151561104957fe5b80915050929150505600a165627a7a7230582077dfcdffb98639e7818f5c55782e4f7b3437cde7616c6229a01d27439cd3fa1b002960806040523480156200001157600080fd5b5060405162002472380380620024728339810180604052810190808051906020019092919080519060200190929190805190602001909291908051820192919060200180518201929190602001805190602001909291908051906020019092919080519060200190929190505050878787878787878787600d8190555086600e8190555082600081905550620000b8868686620001ce640100000000026401000000009004565b50620000d56004836200034d640100000000026401000000009004565b50620000f26008826200034d640100000000026401000000009004565b507f32a77d339835f060f74fc1d2d71394f25f6a037e3acd20e875be312f92deaf6f8585604051808060200180602001838103835285818151815260200191508051906020019060200280838360005b838110156200015f57808201518184015260208101905062000142565b50505050905001838103825284818151815260200191508051906020019060200280838360005b83811015620001a357808201518184015260208101905062000186565b5050505090500194505050505060405180910390a150505050505050505050505050505050620004d5565b600080600084519150835182141515620001e757600080fd5b600082111515620001f757600080fd5b600090505b60018203811015620002a95784600182018151811015156200021a57fe5b906020019060200201516003600087848151811015156200023757fe5b9060200190602002015181526020019081526020016000208190555083818151811015156200026257fe5b906020019060200201516004600087848151811015156200027f57fe5b906020019060200201518152602001908152602001600020819055508080600101915050620001fc565b8360018303815181101515620002bb57fe5b90602001906020020151600460008760018603815181101515620002db57fe5b906020019060200201518152602001908152602001600020819055508460008151811015156200030757fe5b906020019060200201516005819055508560018190555084600183038151811015156200033057fe5b906020019060200201516002819055506001925050509392505050565b600080601060008473ffffffffffffffffffffffffffffffffffffffff1673ffffffffffffffffffffffffffffffffffffffff16815260200190815260200160002060009054906101000a900460ff1660ff16148015620004135750600073ffffffffffffffffffffffffffffffffffffffff16601160008560ff1660ff16815260200190815260200160002060009054906101000a900473ffffffffffffffffffffffffffffffffffffffff1673ffffffffffffffffffffffffffffffffffffffff16145b15156200041f57600080fd5b82601060008473ffffffffffffffffffffffffffffffffffffffff1673ffffffffffffffffffffffffffffffffffffffff16815260200190815260200160002060006101000a81548160ff021916908360ff16021790555081601160008560ff1660ff16815260200190815260200160002060006101000a81548173ffffffffffffffffffffffffffffffffffffffff021916908373ffffffffffffffffffffffffffffffffffffffff16021790555092915050565b611f8d80620004e56000396000f300608060405260043610610149576000357c0100000000000000000000000000000000000000000000000000000000900463ffffffff168063026c4207146102a15780630b43a09e146102cc5780631865c57d14610311578063188ec3561461034257806319ab453c1461036d5780632229fdf4146103c857806331d98d211461040d578063442767331461045f5780634aea6232146104bc5780634da13c2e1461052157806365cf7c9b146105435780636fe4d97a1461056e5780639b501723146105995780639d12bf0a146105c45780639d76ea58146105ef578063a0a2b57314610646578063a9e966b71461068b578063afd54d82146106d0578063b54d6238146106fb578063b61d27f614610740578063c173f245146107bd578063dc08826d14610802578063de56248714610859578063e20d82df146108b4578063ed48ee3d14610919575b6000610153610944565b9050600160ff168160ff1614156101725761016c61098c565b5061029e565b600460ff168160ff161415610221576101ca33600660003373ffffffffffffffffffffffffffffffffffffffff1673ffffffffffffffffffffffffffffffffffffffff16815260200190815260200160002054610cf1565b50600034111561021c573373ffffffffffffffffffffffffffffffffffffffff166108fc349081150290604051600060405180830381858888f1935050505015801561021a573d6000803e3d6000fd5b505b61029e565b600860ff168160ff161415610299576102423361023d33610f23565b610fbd565b506000341115610294573373ffffffffffffffffffffffffffffffffffffffff166108fc349081150290604051600060405180830381858888f19350505050158015610292573d6000803e3d6000fd5b505b61029e565b600080fd5b50005b3480156102ad57600080fd5b506102b66110d0565b6040518082815260200191505060405180910390f35b3480156102d857600080fd5b506102f7600480360381019080803590602001909291905050506110d6565b604051808215151515815260200191505060405180910390f35b34801561031d57600080fd5b50610326611109565b604051808260ff1660ff16815260200191505060405180910390f35b34801561034e57600080fd5b50610357611118565b6040518082815260200191505060405180910390f35b34801561037957600080fd5b506103ae600480360381019080803573ffffffffffffffffffffffffffffffffffffffff169060200190929190505050611127565b604051808215151515815260200191505060405180910390f35b3480156103d457600080fd5b506103f3600480360381019080803590602001909291905050506111f9565b604051808215151515815260200191505060405180910390f35b34801561041957600080fd5b50610445600480360381019080803560ff1690602001909291908035906020019092919050505061122d565b604051808215151515815260200191505060405180910390f35b34801561046b57600080fd5b506104a0600480360381019080803573ffffffffffffffffffffffffffffffffffffffff169060200190929190505050611295565b604051808260ff1660ff16815260200191505060405180910390f35b3480156104c857600080fd5b50610507600480360381019080803573ffffffffffffffffffffffffffffffffffffffff169060200190929190803590602001909291905050506112eb565b604051808215151515815260200191505060405180910390f35b610529611364565b604051808215151515815260200191505060405180910390f35b34801561054f57600080fd5b50610558611394565b6040518082815260200191505060405180910390f35b34801561057a57600080fd5b5061058361139a565b6040518082815260200191505060405180910390f35b3480156105a557600080fd5b506105ae6113a0565b6040518082815260200191505060405180910390f35b3480156105d057600080fd5b506105d96113a6565b6040518082815260200191505060405180910390f35b3480156105fb57600080fd5b506106046113ac565b604051808273ffffffffffffffffffffffffffffffffffffffff1673ffffffffffffffffffffffffffffffffffffffff16815260200191505060405180910390f35b34801561065257600080fd5b50610671600480360381019080803590602001909291905050506113d2565b604051808215151515815260200191505060405180910390f35b34801561069757600080fd5b506106b6600480360381019080803590602001909291905050506113e6565b604051808215151515815260200191505060405180910390f35b3480156106dc57600080fd5b506106e56113f8565b6040518082815260200191505060405180910390f35b34801561070757600080fd5b50610726600480360381019080803590602001909291905050506113fe565b604051808215151515815260200191505060405180910390f35b34801561074c57600080fd5b506107a3600480360381019080803573ffffffffffffffffffffffffffffffffffffffff16906020019092919080359060200190929190803590602001908201803590602001919091929391929390505050611432565b604051808215151515815260200191505060405180910390f35b3480156107c957600080fd5b506107e8600480360381019080803590602001909291905050506114b4565b604051808215151515815260200191505060405180910390f35b34801561080e57600080fd5b50610843600480360381019080803573ffffffffffffffffffffffffffffffffffffffff1690602001909291905050506114cf565b6040518082815260200191505060405180910390f35b34801561086557600080fd5b5061089a600480360381019080803573ffffffffffffffffffffffffffffffffffffffff1690602001909291905050506114e1565b604051808215151515815260200191505060405180910390f35b3480156108c057600080fd5b506108ff600480360381019080803573ffffffffffffffffffffffffffffffffffffffff16906020019092919080359060200190929190505050611547565b604051808215151515815260200191505060405180910390f35b34801561092557600080fd5b5061092e6115af565b6040518082815260200191505060405180910390f35b600080600080600f60009054906101000a900460ff1660ff1692506109676115b5565b60ff16915061097461161d565b60ff169050610984838383611663565b935050505090565b60008060008060008060008060005434101515156109a957600080fd5b600b54965086955060055494508493503492505b6000831180156109ce575060008414155b15610ac25760046000858152602001908152602001600020549150610a1682610a08670de0b6b3a76400008661175e90919063ffffffff16565b61179990919063ffffffff16565b905083610a2c82886117b490919063ffffffff16565b1115610aa357610a83610a74670de0b6b3a7640000610a6685610a588b8a6117d290919063ffffffff16565b61175e90919063ffffffff16565b61179990919063ffffffff16565b846117d290919063ffffffff16565b925083955060036000858152602001908152602001600020549350610abd565b60009250610aba81876117b490919063ffffffff16565b95505b6109bd565b8385141515610ad357836005819055505b8587141515610c3257610b40610af288886117d290919063ffffffff16565b600660003373ffffffffffffffffffffffffffffffffffffffff1673ffffffffffffffffffffffffffffffffffffffff168152602001908152602001600020546117b490919063ffffffff16565b600660003373ffffffffffffffffffffffffffffffffffffffff1673ffffffffffffffffffffffffffffffffffffffff16815260200190815260200160002081905550610be7610b9984346117d290919063ffffffff16565b600760003373ffffffffffffffffffffffffffffffffffffffff1673ffffffffffffffffffffffffffffffffffffffff168152602001908152602001600020546117b490919063ffffffff16565b600760003373ffffffffffffffffffffffffffffffffffffffff1673ffffffffffffffffffffffffffffffffffffffff1681526020019081526020016000208190555085600b819055505b6000831115610c83573373ffffffffffffffffffffffffffffffffffffffff166108fc849081150290604051600060405180830381858888f19350505050158015610c81573d6000803e3d6000fd5b505b3373ffffffffffffffffffffffffffffffffffffffff167ff464123490dc166d6baa19aa737c29f15b3aebdf44f48937e30b5b481900f7d6610cce85346117d290919063ffffffff16565b6040518082815260200191505060405180910390a2600197505050505050505090565b6000806000806000600660008873ffffffffffffffffffffffffffffffffffffffff1673ffffffffffffffffffffffffffffffffffffffff168152602001908152602001600020549350600860008873ffffffffffffffffffffffffffffffffffffffff1673ffffffffffffffffffffffffffffffffffffffff16815260200190815260200160002054925085610d9184866117d290919063ffffffff16565b10151515610d9e57600080fd5b600760008873ffffffffffffffffffffffffffffffffffffffff1673ffffffffffffffffffffffffffffffffffffffff168152602001908152602001600020549150610e0584610df7888561175e90919063ffffffff16565b61179990919063ffffffff16565b9050610e1a86856117d290919063ffffffff16565b600660008973ffffffffffffffffffffffffffffffffffffffff1673ffffffffffffffffffffffffffffffffffffffff16815260200190815260200160002081905550610e7081836117d290919063ffffffff16565b600760008973ffffffffffffffffffffffffffffffffffffffff1673ffffffffffffffffffffffffffffffffffffffff16815260200190815260200160002081905550610ec886600b546117d290919063ffffffff16565b600b819055508673ffffffffffffffffffffffffffffffffffffffff166108fc829081150290604051600060405180830381858888f19350505050158015610f14573d6000803e3d6000fd5b50600194505050505092915050565b6000610fb6600860008473ffffffffffffffffffffffffffffffffffffffff1673ffffffffffffffffffffffffffffffffffffffff16815260200190815260200160002054600660008573ffffffffffffffffffffffffffffffffffffffff1673ffffffffffffffffffffffffffffffffffffffff168152602001908152602001600020546117d290919063ffffffff16565b9050919050565b600080610fc984610f23565b9050828110151515610fda57600080fd5b61102c83600860008773ffffffffffffffffffffffffffffffffffffffff1673ffffffffffffffffffffffffffffffffffffffff168152602001908152602001600020546117b490919063ffffffff16565b600860008673ffffffffffffffffffffffffffffffffffffffff1673ffffffffffffffffffffffffffffffffffffffff168152602001908152602001600020819055508373ffffffffffffffffffffffffffffffffffffffff167fd777ee46b5c5e9bff9903e5b77152b900a28b55ea90ea99766fa3b5237f970f6846040518082815260200191505060405180910390a26110c784846117eb565b91505092915050565b600b5481565b6000806110e16118f5565b9050600460ff168160ff161415156110f857600080fd5b61110183611949565b915050919050565b6000611113610944565b905090565b6000611122611a86565b905090565b60008073ffffffffffffffffffffffffffffffffffffffff16601360009054906101000a900473ffffffffffffffffffffffffffffffffffffffff1673ffffffffffffffffffffffffffffffffffffffff1614151561118557600080fd5b81601360006101000a81548173ffffffffffffffffffffffffffffffffffffffff021916908373ffffffffffffffffffffffffffffffffffffffff1602179055506001600f60006101000a81548160ff021916908360ff1602179055506111ea611a86565b600c8190555060019050919050565b600080611204610944565b9050600460ff168160ff1614151561121b57600080fd5b6112253384610cf1565b915050919050565b600080600061123a6118f5565b9150611244610944565b9050600860ff168160ff1614151561125b57600080fd5b600460ff168260ff1614806112765750600860ff168260ff16145b151561128157600080fd5b61128b8585611a92565b9250505092915050565b6000601060008373ffffffffffffffffffffffffffffffffffffffff1673ffffffffffffffffffffffffffffffffffffffff16815260200190815260200160002060009054906101000a900460ff169050919050565b60008060006112f8610944565b91506113026118f5565b9050600460ff168160ff16148061131f5750600860ff168160ff16145b151561132a57600080fd5b600460ff168260ff1614806113455750600160ff168260ff16145b151561135057600080fd5b61135a8585610cf1565b9250505092915050565b60008061136f610944565b9050600160ff168160ff1614151561138657600080fd5b61138e61098c565b91505090565b600c5481565b60005481565b600e5481565b60025481565b601360009054906101000a900473ffffffffffffffffffffffffffffffffffffffff1681565b600042820360128190555060019050919050565b60006113f182611baa565b9050919050565b600d5481565b600080611409610944565b9050600860ff168160ff1614151561142057600080fd5b61142a3384610fbd565b915050919050565b6000600460ff166114416118f5565b60ff1614151561145057600080fd5b601060ff1661145d610944565b60ff1614151561146c57600080fd5b8473ffffffffffffffffffffffffffffffffffffffff168484846040518083838082843782019150509250505060006040518083038185875af1925050509050949350505050565b60008160126000828254019250508190555060019050919050565b60006114da82610f23565b9050919050565b60008060006114ee6118f5565b91506114f8610944565b9050600460ff168260ff1614806115155750600860ff168260ff16145b151561152057600080fd5b600060ff168160ff1614151561153557600080fd5b61153e84611d63565b92505050919050565b60008060006115546118f5565b915061155e610944565b9050600860ff168160ff1614151561157557600080fd5b600460ff168260ff1614806115905750600860ff168260ff16145b151561159b57600080fd5b6115a58585610fbd565b9250505092915050565b60015481565b6000806000600c5491506115d9826115cb611a86565b6117d290919063ffffffff16565b905060008214156115ed5760009250611618565b600d548110156116005760019250611618565b600e548110156116135760089250611618565b601092505b505090565b600080611628611dab565b9050611632611db5565b811015611642576001915061165f565b61164a611dbf565b81101561165a576002915061165f565b600491505b5090565b60008060ff168414156116795760009050611757565b600160ff168414156116e257600160ff168314156116af57600460ff168214156116a65760089050611757565b60019050611757565b600860ff168314156116d957600160ff168214156116d05760049050611757565b60089050611757565b60109050611757565b600460ff1684141561171a57600160ff168314806117035750600860ff1683145b156117115760049050611757565b60109050611757565b600860ff1684141561175257600160ff1683148061173b5750600860ff1683145b156117495760089050611757565b60109050611757565b601090505b9392505050565b60008060008414156117735760009150611792565b828402905082848281151561178457fe5b0414151561178e57fe5b8091505b5092915050565b60008082848115156117a757fe5b0490508091505092915050565b60008082840190508381101515156117c857fe5b8091505092915050565b60008282111515156117e057fe5b818303905092915050565b6000601360009054906101000a900473ffffffffffffffffffffffffffffffffffffffff1673ffffffffffffffffffffffffffffffffffffffff1663a9059cbb84846040518363ffffffff167c0100000000000000000000000000000000000000000000000000000000028152600401808373ffffffffffffffffffffffffffffffffffffffff1673ffffffffffffffffffffffffffffffffffffffff16815260200182815260200192505050602060405180830381600087803b1580156118b257600080fd5b505af11580156118c6573d6000803e3d6000fd5b505050506040513d60208110156118dc57600080fd5b8101908080519060200190929190505050905092915050565b6000601060003373ffffffffffffffffffffffffffffffffffffffff1673ffffffffffffffffffffffffffffffffffffffff16815260200190815260200160002060009054906101000a900460ff16905090565b6000601360009054906101000a900473ffffffffffffffffffffffffffffffffffffffff1673ffffffffffffffffffffffffffffffffffffffff166323b872dd3330856040518463ffffffff167c0100000000000000000000000000000000000000000000000000000000028152600401808473ffffffffffffffffffffffffffffffffffffffff1673ffffffffffffffffffffffffffffffffffffffff1681526020018373ffffffffffffffffffffffffffffffffffffffff1673ffffffffffffffffffffffffffffffffffffffff1681526020018281526020019350505050602060405180830381600087803b158015611a4457600080fd5b505af1158015611a58573d6000803e3d6000fd5b505050506040513d6020811015611a6e57600080fd5b81019080805190602001909291905050509050919050565b60004260125401905090565b6000806000611aa085611dc9565b9150838210151515611ab157600080fd5b611add84600960008860ff1660ff168152602001908152602001600020546117b490919063ffffffff16565b600960008760ff1660ff16815260200190815260200160002081905550611b0385611e1f565b90508073ffffffffffffffffffffffffffffffffffffffff166108fc859081150290604051600060405180830381858888f19350505050158015611b4b573d6000803e3d6000fd5b508073ffffffffffffffffffffffffffffffffffffffff168560ff167f0fd79c527d8fff6ba27289ff9bf7bf508210c1b8503799ff89bba54447848e8c866040518082815260200191505060405180910390a360019250505092915050565b600080600080600080600f60009054906101000a900460ff1660ff169450611bd06115b5565b60ff169350611bdd61161d565b60ff169250611bed858585611663565b9150611bf76118f5565b9050600160ff16871415611c8757600460ff168160ff161480611c205750600860ff168160ff16145b8015611c325750600060ff168260ff16145b15611c8257611c3f611dbf565b611c47611e62565b101515611c8157611c56611a86565b600c819055506001600f60006101000a81548160ff021916908360ff16021790555060019550611d59565b5b600080fd5b600860ff16871415611cec57600460ff168160ff161480611cae5750600860ff168160ff16145b8015611cbd5750600260ff1683145b15611ce7576008600f60006101000a81548160ff021916908360ff16021790555060019550611d59565b600080fd5b600460ff16871415611d5457600460ff168160ff161480611d135750600860ff168160ff16145b8015611d255750600160ff168260ff16145b15611d4f576004600f60006101000a81548160ff021916908360ff16021790555060019550611d59565b600080fd5b600080fd5b5050505050919050565b600081601360006101000a81548173ffffffffffffffffffffffffffffffffffffffff021916908373ffffffffffffffffffffffffffffffffffffffff160217905550919050565b6000600b54905090565b6000600154905090565b6000600254905090565b6000600460ff168260ff16141515611de45760009050611e1a565b600960008360ff1660ff168152602001908152602001600020543073ffffffffffffffffffffffffffffffffffffffff16310390505b919050565b6000601160008360ff1660ff16815260200190815260200160002060009054906101000a900473ffffffffffffffffffffffffffffffffffffffff169050919050565b6000601360009054906101000a900473ffffffffffffffffffffffffffffffffffffffff1673ffffffffffffffffffffffffffffffffffffffff166370a08231306040518263ffffffff167c0100000000000000000000000000000000000000000000000000000000028152600401808273ffffffffffffffffffffffffffffffffffffffff1673ffffffffffffffffffffffffffffffffffffffff168152602001915050602060405180830381600087803b158015611f2157600080fd5b505af1158015611f35573d6000803e3d6000fd5b505050506040513d6020811015611f4b57600080fd5b81019080805190602001909291905050509050905600a165627a7a723058203058a5de7a7652680d4d80675f82297e96e6bd8c7d3a2b73c02f21e8a6d549a90029",
  "source": "pragma solidity ^0.4.23;\n\nimport \"./ISAOTest.sol\";\nimport \"../../libs/token/ERC20/ERC20.sol\";\n\n\ncontract ERC20Test is ERC20 {\n\n  string public name = \"ISAO Token\";\n  string public symbol = \"ISAOT\";\n  uint8 public decimals = 18;\n  \n  function mint(address _for, uint _value) public returns (bool) {\n    require(totalSupply_==0);\n    totalSupply_ = _value;\n    balances[_for] = _value;\n    emit Transfer(address(0), _for, _value);\n    return true;\n  }\n}\n\ncontract ISAOTest2 is ISAOTest {\n  uint8 constant ST_RAISING = 0x01;\n  constructor(uint _raisingPeriod, \n              uint _distributionPeriod, \n              uint _minimalFundSize,\n              uint[] _limits, \n              uint[] _costs,\n              uint _minimalDeposit,\n              address _adminAddress,\n              address _paybotAddress) public ISAOTest(_raisingPeriod, _distributionPeriod,\n              _minimalFundSize, _limits, _costs, _minimalDeposit, _adminAddress, _paybotAddress\n              ) {\n  }\n  function init (address _tokenAddress) public returns(bool) {\n    require(tokenAddress==address(0));\n    tokenAddress=_tokenAddress;\n    initialState_ = ST_RAISING;\n    launchTimestamp = getTimestamp_();\n    return true;\n  }\n}\n\n/// @notice  This factory is not legacy, but it is ganache-compatible. Do not write in-constructor factories for production!\ncontract ISAOTestFactory {\n  uint8 constant ST_RAISING = 0x01;\n  address public isaoAddress;\n  address public erc20Address;\n\n  constructor(uint _raisingPeriod, \n              uint _distributionPeriod, \n              uint _minimalFundSize,\n              uint[] _limits, \n              uint[] _costs,\n              uint _minimalDeposit,\n              address _adminAddress,\n              address _paybotAddress) public {\n                  \n    erc20Address = new ERC20Test();\n    isaoAddress = new ISAOTest2(_raisingPeriod, _distributionPeriod, \n      _minimalFundSize, _limits, _costs, _minimalDeposit, _adminAddress, _paybotAddress);\n    ISAOTest2(isaoAddress).init(erc20Address);\n    ERC20Test(erc20Address).mint(isaoAddress, _limits[_limits.length-1]);\n\n  }\n}",
  "sourcePath": "E:\\WORK\\BNKX-POA\\ISAO\\contracts\\testing\\ISAOTest\\ISAOTestFactory.sol",
  "compiler": {
    "name": "solc",
    "version": "0.4.23+commit.124ca40d.Emscripten.clang"
  },
  "schemaVersion": "2.0.0",
  "updatedAt": "2018-06-22T17:16:10.792Z"
}