{
  "contractName": "ISAOTest",
  "abi": [
    {
      "constant": true,
      "inputs": [],
      "name": "getState",
      "outputs": [
        {
          "name": "",
          "type": "uint8"
        }
      ],
      "payable": false,
      "stateMutability": "view",
      "type": "function"
    },
    {
      "constant": false,
      "inputs": [
        {
          "name": "_value",
          "type": "uint256"
        }
      ],
      "name": "refundShare",
      "outputs": [
        {
          "name": "",
          "type": "bool"
        }
      ],
      "payable": false,
      "stateMutability": "nonpayable",
      "type": "function"
    },
    {
      "constant": false,
      "inputs": [
        {
          "name": "_for",
          "type": "uint8"
        },
        {
          "name": "_value",
          "type": "uint256"
        }
      ],
      "name": "releaseEtherToStakeholderForce",
      "outputs": [
        {
          "name": "",
          "type": "bool"
        }
      ],
      "payable": false,
      "stateMutability": "nonpayable",
      "type": "function"
    },
    {
      "constant": true,
      "inputs": [
        {
          "name": "_targetAddress",
          "type": "address"
        }
      ],
      "name": "getRole",
      "outputs": [
        {
          "name": "",
          "type": "uint8"
        }
      ],
      "payable": false,
      "stateMutability": "view",
      "type": "function"
    },
    {
      "constant": false,
      "inputs": [
        {
          "name": "_for",
          "type": "address"
        },
        {
          "name": "_value",
          "type": "uint256"
        }
      ],
      "name": "refundShareForce",
      "outputs": [
        {
          "name": "",
          "type": "bool"
        }
      ],
      "payable": false,
      "stateMutability": "nonpayable",
      "type": "function"
    },
    {
      "constant": false,
      "inputs": [],
      "name": "buyShare",
      "outputs": [
        {
          "name": "",
          "type": "bool"
        }
      ],
      "payable": true,
      "stateMutability": "payable",
      "type": "function"
    },
    {
      "constant": true,
      "inputs": [],
      "name": "launchTimestamp",
      "outputs": [
        {
          "name": "",
          "type": "uint256"
        }
      ],
      "payable": false,
      "stateMutability": "view",
      "type": "function"
    },
    {
      "constant": true,
      "inputs": [],
      "name": "minimalDeposit",
      "outputs": [
        {
          "name": "",
          "type": "uint256"
        }
      ],
      "payable": false,
      "stateMutability": "view",
      "type": "function"
    },
    {
      "constant": true,
      "inputs": [],
      "name": "distributionPeriod",
      "outputs": [
        {
          "name": "",
          "type": "uint256"
        }
      ],
      "payable": false,
      "stateMutability": "view",
      "type": "function"
    },
    {
      "constant": true,
      "inputs": [],
      "name": "maximalFundSize",
      "outputs": [
        {
          "name": "",
          "type": "uint256"
        }
      ],
      "payable": false,
      "stateMutability": "view",
      "type": "function"
    },
    {
      "constant": true,
      "inputs": [],
      "name": "tokenAddress",
      "outputs": [
        {
          "name": "",
          "type": "address"
        }
      ],
      "payable": false,
      "stateMutability": "view",
      "type": "function"
    },
    {
      "constant": false,
      "inputs": [
        {
          "name": "_time",
          "type": "uint256"
        }
      ],
      "name": "setTimestamp",
      "outputs": [
        {
          "name": "",
          "type": "bool"
        }
      ],
      "payable": false,
      "stateMutability": "nonpayable",
      "type": "function"
    },
    {
      "constant": false,
      "inputs": [
        {
          "name": "newState",
          "type": "uint256"
        }
      ],
      "name": "setState",
      "outputs": [
        {
          "name": "",
          "type": "bool"
        }
      ],
      "payable": false,
      "stateMutability": "nonpayable",
      "type": "function"
    },
    {
      "constant": true,
      "inputs": [],
      "name": "raisingPeriod",
      "outputs": [
        {
          "name": "",
          "type": "uint256"
        }
      ],
      "payable": false,
      "stateMutability": "view",
      "type": "function"
    },
    {
      "constant": false,
      "inputs": [
        {
          "name": "_value",
          "type": "uint256"
        }
      ],
      "name": "releaseToken",
      "outputs": [
        {
          "name": "",
          "type": "bool"
        }
      ],
      "payable": false,
      "stateMutability": "nonpayable",
      "type": "function"
    },
    {
      "constant": false,
      "inputs": [
        {
          "name": "_dTime",
          "type": "uint256"
        }
      ],
      "name": "incTimestamp",
      "outputs": [
        {
          "name": "",
          "type": "bool"
        }
      ],
      "payable": false,
      "stateMutability": "nonpayable",
      "type": "function"
    },
    {
      "constant": false,
      "inputs": [
        {
          "name": "_tokenAddress",
          "type": "address"
        }
      ],
      "name": "setERC20Token",
      "outputs": [
        {
          "name": "",
          "type": "bool"
        }
      ],
      "payable": false,
      "stateMutability": "nonpayable",
      "type": "function"
    },
    {
      "constant": false,
      "inputs": [
        {
          "name": "_for",
          "type": "address"
        },
        {
          "name": "_value",
          "type": "uint256"
        }
      ],
      "name": "releaseTokenForce",
      "outputs": [
        {
          "name": "",
          "type": "bool"
        }
      ],
      "payable": false,
      "stateMutability": "nonpayable",
      "type": "function"
    },
    {
      "constant": true,
      "inputs": [],
      "name": "minimalFundSize",
      "outputs": [
        {
          "name": "",
          "type": "uint256"
        }
      ],
      "payable": false,
      "stateMutability": "view",
      "type": "function"
    },
    {
      "inputs": [
        {
          "name": "_raisingPeriod",
          "type": "uint256"
        },
        {
          "name": "_distributionPeriod",
          "type": "uint256"
        },
        {
          "name": "_minimalFundSize",
          "type": "uint256"
        },
        {
          "name": "_limits",
          "type": "uint256[]"
        },
        {
          "name": "_costs",
          "type": "uint256[]"
        },
        {
          "name": "_minimalDeposit",
          "type": "uint256"
        },
        {
          "name": "_paybotAddress",
          "type": "address"
        }
      ],
      "payable": false,
      "stateMutability": "nonpayable",
      "type": "constructor"
    },
    {
      "payable": true,
      "stateMutability": "payable",
      "type": "fallback"
    },
    {
      "anonymous": false,
      "inputs": [
        {
          "indexed": false,
          "name": "limits",
          "type": "uint256[]"
        },
        {
          "indexed": false,
          "name": "costs",
          "type": "uint256[]"
        }
      ],
      "name": "CostStairs",
      "type": "event"
    },
    {
      "anonymous": false,
      "inputs": [
        {
          "indexed": true,
          "name": "addr",
          "type": "address"
        },
        {
          "indexed": false,
          "name": "value",
          "type": "uint256"
        }
      ],
      "name": "BuyShare",
      "type": "event"
    },
    {
      "anonymous": false,
      "inputs": [
        {
          "indexed": true,
          "name": "addr",
          "type": "address"
        },
        {
          "indexed": false,
          "name": "value",
          "type": "uint256"
        }
      ],
      "name": "RefundShare",
      "type": "event"
    },
    {
      "anonymous": false,
      "inputs": [
        {
          "indexed": true,
          "name": "role",
          "type": "uint8"
        },
        {
          "indexed": true,
          "name": "addr",
          "type": "address"
        },
        {
          "indexed": false,
          "name": "value",
          "type": "uint256"
        }
      ],
      "name": "ReleaseEtherToStakeholder",
      "type": "event"
    },
    {
      "anonymous": false,
      "inputs": [
        {
          "indexed": true,
          "name": "role",
          "type": "uint8"
        },
        {
          "indexed": true,
          "name": "addr",
          "type": "address"
        },
        {
          "indexed": false,
          "name": "value",
          "type": "uint256"
        }
      ],
      "name": "ReleaseTokenToStakeholder",
      "type": "event"
    },
    {
      "anonymous": false,
      "inputs": [
        {
          "indexed": true,
          "name": "addr",
          "type": "address"
        },
        {
          "indexed": false,
          "name": "value",
          "type": "uint256"
        }
      ],
      "name": "ReleaseEther",
      "type": "event"
    },
    {
      "anonymous": false,
      "inputs": [
        {
          "indexed": true,
          "name": "addr",
          "type": "address"
        },
        {
          "indexed": false,
          "name": "value",
          "type": "uint256"
        }
      ],
      "name": "ReleaseToken",
      "type": "event"
    }
  ],
  "bytecode": "0x60806040523480156200001157600080fd5b5060405162001ef038038062001ef08339810180604052810190808051906020019092919080519060200190929190805190602001909291908051820192919060200180518201929190602001805190602001909291908051906020019092919050505086600d8190555085600e8190555081600081905550620000a6858585620001b3640100000000026401000000009004565b50620000c360043362000332640100000000026401000000009004565b50620000e060088262000332640100000000026401000000009004565b507f32a77d339835f060f74fc1d2d71394f25f6a037e3acd20e875be312f92deaf6f8484604051808060200180602001838103835285818151815260200191508051906020019060200280838360005b838110156200014d57808201518184015260208101905062000130565b50505050905001838103825284818151815260200191508051906020019060200280838360005b838110156200019157808201518184015260208101905062000174565b5050505090500194505050505060405180910390a150505050505050620004ba565b600080600084519150835182141515620001cc57600080fd5b600082111515620001dc57600080fd5b600090505b600182038110156200028e578460018201815181101515620001ff57fe5b906020019060200201516003600087848151811015156200021c57fe5b9060200190602002015181526020019081526020016000208190555083818151811015156200024757fe5b906020019060200201516004600087848151811015156200026457fe5b906020019060200201518152602001908152602001600020819055508080600101915050620001e1565b8360018303815181101515620002a057fe5b90602001906020020151600460008760018603815181101515620002c057fe5b90602001906020020151815260200190815260200160002081905550846000815181101515620002ec57fe5b906020019060200201516005819055508560018190555083600183038151811015156200031557fe5b906020019060200201516002819055506001925050509392505050565b600080601060008473ffffffffffffffffffffffffffffffffffffffff1673ffffffffffffffffffffffffffffffffffffffff16815260200190815260200160002060009054906101000a900460ff1660ff16148015620003f85750600073ffffffffffffffffffffffffffffffffffffffff16601160008560ff1660ff16815260200190815260200160002060009054906101000a900473ffffffffffffffffffffffffffffffffffffffff1673ffffffffffffffffffffffffffffffffffffffff16145b15156200040457600080fd5b82601060008473ffffffffffffffffffffffffffffffffffffffff1673ffffffffffffffffffffffffffffffffffffffff16815260200190815260200160002060006101000a81548160ff021916908360ff16021790555081601160008560ff1660ff16815260200190815260200160002060006101000a81548173ffffffffffffffffffffffffffffffffffffffff021916908373ffffffffffffffffffffffffffffffffffffffff16021790555092915050565b611a2680620004ca6000396000f300608060405260043610610107576000357c0100000000000000000000000000000000000000000000000000000000900463ffffffff1680631865c57d1461025f5780632229fdf41461029057806331d98d21146102d557806344276733146103275780634aea6232146103845780634da13c2e146103e957806365cf7c9b1461040b5780636fe4d97a146104365780639b501723146104615780639d12bf0a1461048c5780639d76ea58146104b7578063a0a2b5731461050e578063a9e966b714610553578063afd54d8214610598578063b54d6238146105c3578063c173f24514610608578063de5624871461064d578063e20d82df146106a8578063ed48ee3d1461070d575b6000610111610738565b9050600160ff168160ff1614156101305761012a610780565b5061025c565b600460ff168160ff1614156101df5761018833600660003373ffffffffffffffffffffffffffffffffffffffff1673ffffffffffffffffffffffffffffffffffffffff16815260200190815260200160002054610a85565b5060003411156101da573373ffffffffffffffffffffffffffffffffffffffff166108fc349081150290604051600060405180830381858888f193505050501580156101d8573d6000803e3d6000fd5b505b61025c565b600860ff168160ff16141561025757610200336101fb33610cb7565b610d51565b506000341115610252573373ffffffffffffffffffffffffffffffffffffffff166108fc349081150290604051600060405180830381858888f19350505050158015610250573d6000803e3d6000fd5b505b61025c565b600080fd5b50005b34801561026b57600080fd5b50610274610e64565b604051808260ff1660ff16815260200191505060405180910390f35b34801561029c57600080fd5b506102bb60048036038101908080359060200190929190505050610e73565b604051808215151515815260200191505060405180910390f35b3480156102e157600080fd5b5061030d600480360381019080803560ff16906020019092919080359060200190929190505050610ea7565b604051808215151515815260200191505060405180910390f35b34801561033357600080fd5b50610368600480360381019080803573ffffffffffffffffffffffffffffffffffffffff169060200190929190505050610f0f565b604051808260ff1660ff16815260200191505060405180910390f35b34801561039057600080fd5b506103cf600480360381019080803573ffffffffffffffffffffffffffffffffffffffff16906020019092919080359060200190929190505050610f65565b604051808215151515815260200191505060405180910390f35b6103f1610fde565b604051808215151515815260200191505060405180910390f35b34801561041757600080fd5b5061042061100e565b6040518082815260200191505060405180910390f35b34801561044257600080fd5b5061044b611014565b6040518082815260200191505060405180910390f35b34801561046d57600080fd5b5061047661101a565b6040518082815260200191505060405180910390f35b34801561049857600080fd5b506104a1611020565b6040518082815260200191505060405180910390f35b3480156104c357600080fd5b506104cc611026565b604051808273ffffffffffffffffffffffffffffffffffffffff1673ffffffffffffffffffffffffffffffffffffffff16815260200191505060405180910390f35b34801561051a57600080fd5b506105396004803603810190808035906020019092919050505061104c565b604051808215151515815260200191505060405180910390f35b34801561055f57600080fd5b5061057e60048036038101908080359060200190929190505050611060565b604051808215151515815260200191505060405180910390f35b3480156105a457600080fd5b506105ad611072565b6040518082815260200191505060405180910390f35b3480156105cf57600080fd5b506105ee60048036038101908080359060200190929190505050611078565b604051808215151515815260200191505060405180910390f35b34801561061457600080fd5b50610633600480360381019080803590602001909291905050506110ac565b604051808215151515815260200191505060405180910390f35b34801561065957600080fd5b5061068e600480360381019080803573ffffffffffffffffffffffffffffffffffffffff1690602001909291905050506110c7565b604051808215151515815260200191505060405180910390f35b3480156106b457600080fd5b506106f3600480360381019080803573ffffffffffffffffffffffffffffffffffffffff1690602001909291908035906020019092919050505061112d565b604051808215151515815260200191505060405180910390f35b34801561071957600080fd5b50610722611195565b6040518082815260200191505060405180910390f35b600080600080600f60009054906101000a900460ff1660ff16925061075b61119b565b60ff1691506107686111f3565b60ff169050610778838383611239565b935050505090565b600080600080600080600080600054341015151561079d57600080fd5b600b54965086955060055494508493503492505b6000831180156107c2575060008414155b156108b6576004600085815260200190815260200160002054915061080a826107fc670de0b6b3a76400008661133490919063ffffffff16565b61136f90919063ffffffff16565b905083610820828861138a90919063ffffffff16565b111561089757610877610868670de0b6b3a764000061085a8561084c8b8a6113a890919063ffffffff16565b61133490919063ffffffff16565b61136f90919063ffffffff16565b846113a890919063ffffffff16565b9250839550600360008581526020019081526020016000205493506108b1565b600092506108ae818761138a90919063ffffffff16565b95505b6107b1565b83851415156108c757836005819055505b8587141515610a26576109346108e688886113a890919063ffffffff16565b600660003373ffffffffffffffffffffffffffffffffffffffff1673ffffffffffffffffffffffffffffffffffffffff1681526020019081526020016000205461138a90919063ffffffff16565b600660003373ffffffffffffffffffffffffffffffffffffffff1673ffffffffffffffffffffffffffffffffffffffff168152602001908152602001600020819055506109db61098d84346113a890919063ffffffff16565b600760003373ffffffffffffffffffffffffffffffffffffffff1673ffffffffffffffffffffffffffffffffffffffff1681526020019081526020016000205461138a90919063ffffffff16565b600760003373ffffffffffffffffffffffffffffffffffffffff1673ffffffffffffffffffffffffffffffffffffffff1681526020019081526020016000208190555085600b819055505b6000831115610a77573373ffffffffffffffffffffffffffffffffffffffff166108fc849081150290604051600060405180830381858888f19350505050158015610a75573d6000803e3d6000fd5b505b600197505050505050505090565b6000806000806000600660008873ffffffffffffffffffffffffffffffffffffffff1673ffffffffffffffffffffffffffffffffffffffff168152602001908152602001600020549350600860008873ffffffffffffffffffffffffffffffffffffffff1673ffffffffffffffffffffffffffffffffffffffff16815260200190815260200160002054925085610b2584866113a890919063ffffffff16565b10151515610b3257600080fd5b600760008873ffffffffffffffffffffffffffffffffffffffff1673ffffffffffffffffffffffffffffffffffffffff168152602001908152602001600020549150610b9984610b8b888561133490919063ffffffff16565b61136f90919063ffffffff16565b9050610bae86856113a890919063ffffffff16565b600660008973ffffffffffffffffffffffffffffffffffffffff1673ffffffffffffffffffffffffffffffffffffffff16815260200190815260200160002081905550610c0481836113a890919063ffffffff16565b600760008973ffffffffffffffffffffffffffffffffffffffff1673ffffffffffffffffffffffffffffffffffffffff16815260200190815260200160002081905550610c5c86600b546113a890919063ffffffff16565b600b819055508673ffffffffffffffffffffffffffffffffffffffff166108fc829081150290604051600060405180830381858888f19350505050158015610ca8573d6000803e3d6000fd5b50600194505050505092915050565b6000610d4a600860008473ffffffffffffffffffffffffffffffffffffffff1673ffffffffffffffffffffffffffffffffffffffff16815260200190815260200160002054600660008573ffffffffffffffffffffffffffffffffffffffff1673ffffffffffffffffffffffffffffffffffffffff168152602001908152602001600020546113a890919063ffffffff16565b9050919050565b600080610d5d84610cb7565b9050828110151515610d6e57600080fd5b610dc083600860008773ffffffffffffffffffffffffffffffffffffffff1673ffffffffffffffffffffffffffffffffffffffff1681526020019081526020016000205461138a90919063ffffffff16565b600860008673ffffffffffffffffffffffffffffffffffffffff1673ffffffffffffffffffffffffffffffffffffffff168152602001908152602001600020819055508373ffffffffffffffffffffffffffffffffffffffff167fd777ee46b5c5e9bff9903e5b77152b900a28b55ea90ea99766fa3b5237f970f6846040518082815260200191505060405180910390a2610e5b84846113c1565b91505092915050565b6000610e6e610738565b905090565b600080610e7e610738565b9050600460ff168160ff16141515610e9557600080fd5b610e9f3384610a85565b915050919050565b6000806000610eb46114cb565b9150610ebe610738565b9050600860ff168160ff16141515610ed557600080fd5b600460ff168260ff161480610ef05750600860ff168260ff16145b1515610efb57600080fd5b610f05858561151f565b9250505092915050565b6000601060008373ffffffffffffffffffffffffffffffffffffffff1673ffffffffffffffffffffffffffffffffffffffff16815260200190815260200160002060009054906101000a900460ff169050919050565b6000806000610f72610738565b9150610f7c6114cb565b9050600460ff168160ff161480610f995750600860ff168160ff16145b1515610fa457600080fd5b600460ff168260ff161480610fbf5750600160ff168260ff16145b1515610fca57600080fd5b610fd48585610a85565b9250505092915050565b600080610fe9610738565b9050600160ff168160ff1614151561100057600080fd5b611008610780565b91505090565b600c5481565b60005481565b600e5481565b60025481565b601360009054906101000a900473ffffffffffffffffffffffffffffffffffffffff1681565b600042820360128190555060019050919050565b600061106b82611637565b9050919050565b600d5481565b600080611083610738565b9050600860ff168160ff1614151561109a57600080fd5b6110a43384610d51565b915050919050565b60008160126000828254019250508190555060019050919050565b60008060006110d46114cb565b91506110de610738565b9050600460ff168260ff1614806110fb5750600860ff168260ff16145b151561110657600080fd5b600060ff168160ff1614151561111b57600080fd5b611124846117f0565b92505050919050565b600080600061113a6114cb565b9150611144610738565b9050600860ff168160ff1614151561115b57600080fd5b600460ff168260ff1614806111765750600860ff168260ff16145b151561118157600080fd5b61118b8585610d51565b9250505092915050565b60015481565b6000806000600c549150816111ae611838565b03905060008214156111c357600092506111ee565b600d548110156111d657600192506111ee565b600e548110156111e957600892506111ee565b601092505b505090565b6000806111fe611844565b905061120861184e565b8110156112185760019150611235565b611220611858565b8110156112305760029150611235565b600491505b5090565b60008060ff1684141561124f576000905061132d565b600160ff168414156112b857600160ff1683141561128557600460ff1682141561127c576008905061132d565b6001905061132d565b600160ff1682141561129a576004905061132d565b600860ff168314156112af576008905061132d565b6010905061132d565b600460ff168414156112f057600160ff168314806112d95750600860ff1683145b156112e7576004905061132d565b6010905061132d565b600860ff1684141561132857600160ff168314806113115750600860ff1683145b1561131f576008905061132d565b6010905061132d565b601090505b9392505050565b60008060008414156113495760009150611368565b828402905082848281151561135a57fe5b0414151561136457fe5b8091505b5092915050565b600080828481151561137d57fe5b0490508091505092915050565b600080828401905083811015151561139e57fe5b8091505092915050565b60008282111515156113b657fe5b818303905092915050565b6000601360009054906101000a900473ffffffffffffffffffffffffffffffffffffffff1673ffffffffffffffffffffffffffffffffffffffff1663a9059cbb84846040518363ffffffff167c0100000000000000000000000000000000000000000000000000000000028152600401808373ffffffffffffffffffffffffffffffffffffffff1673ffffffffffffffffffffffffffffffffffffffff16815260200182815260200192505050602060405180830381600087803b15801561148857600080fd5b505af115801561149c573d6000803e3d6000fd5b505050506040513d60208110156114b257600080fd5b8101908080519060200190929190505050905092915050565b6000601060003373ffffffffffffffffffffffffffffffffffffffff1673ffffffffffffffffffffffffffffffffffffffff16815260200190815260200160002060009054906101000a900460ff16905090565b600080600061152d85611862565b915083821015151561153e57600080fd5b61156a84600960008860ff1660ff1681526020019081526020016000205461138a90919063ffffffff16565b600960008760ff1660ff16815260200190815260200160002081905550611590856118b8565b90508073ffffffffffffffffffffffffffffffffffffffff166108fc859081150290604051600060405180830381858888f193505050501580156115d8573d6000803e3d6000fd5b508073ffffffffffffffffffffffffffffffffffffffff168560ff167f0fd79c527d8fff6ba27289ff9bf7bf508210c1b8503799ff89bba54447848e8c866040518082815260200191505060405180910390a360019250505092915050565b600080600080600080600f60009054906101000a900460ff1660ff16945061165d61119b565b60ff16935061166a6111f3565b60ff16925061167a858585611239565b91506116846114cb565b9050600160ff1687141561171457600460ff168160ff1614806116ad5750600860ff168160ff16145b80156116bf5750600060ff168260ff16145b1561170f576116cc61184e565b6116d46118fb565b10151561170e576116e3611838565b600c819055506001600f60006101000a81548160ff021916908360ff160217905550600195506117e6565b5b600080fd5b600860ff1687141561177957600460ff168160ff16148061173b5750600860ff168160ff16145b801561174a5750600260ff1683145b15611774576008600f60006101000a81548160ff021916908360ff160217905550600195506117e6565b600080fd5b600460ff168714156117e157600460ff168160ff1614806117a05750600860ff168160ff16145b80156117b25750600160ff168260ff16145b156117dc576004600f60006101000a81548160ff021916908360ff160217905550600195506117e6565b600080fd5b600080fd5b5050505050919050565b600081601360006101000a81548173ffffffffffffffffffffffffffffffffffffffff021916908373ffffffffffffffffffffffffffffffffffffffff160217905550919050565b60004260125401905090565b6000600b54905090565b6000600154905090565b6000600254905090565b6000600460ff168260ff1614151561187d57600090506118b3565b600960008360ff1660ff168152602001908152602001600020543073ffffffffffffffffffffffffffffffffffffffff16310390505b919050565b6000601160008360ff1660ff16815260200190815260200160002060009054906101000a900473ffffffffffffffffffffffffffffffffffffffff169050919050565b6000601360009054906101000a900473ffffffffffffffffffffffffffffffffffffffff1673ffffffffffffffffffffffffffffffffffffffff166370a08231306040518263ffffffff167c0100000000000000000000000000000000000000000000000000000000028152600401808273ffffffffffffffffffffffffffffffffffffffff1673ffffffffffffffffffffffffffffffffffffffff168152602001915050602060405180830381600087803b1580156119ba57600080fd5b505af11580156119ce573d6000803e3d6000fd5b505050506040513d60208110156119e457600080fd5b81019080805190602001909291905050509050905600a165627a7a7230582045d5297e0f2df1e870ddd70340adf8ff6daef2bf5b9edd27b9092890ee8f69590029",
  "source": "pragma solidity ^0.4.23;\n\nimport \"../../abstract/ISAO/ISAO.sol\";\nimport \"../../abstract/TimeMachine/TimeMachineT.sol\";\nimport \"../../abstract/Cassette/ERC20Cassette.sol\";\n\ncontract ISAOTest is ISAO, TimeMachineT, ERC20Cassette {\n  uint constant DECIMAL_MULTIPLIER = 1e18;\n\n  event CostStairs(uint[] limits, uint[] costs);\n  \n  constructor(uint _raisingPeriod, \n              uint _distributionPeriod, \n              uint _minimalFundSize, \n              uint[] _limits, \n              uint[] _costs,\n              uint _minimalDeposit,\n              address _paybotAddress) public {\n    raisingPeriod = _raisingPeriod;\n    distributionPeriod = _distributionPeriod;\n\n    minimalDeposit = _minimalDeposit;\n    setCosts_(_minimalFundSize, _limits, _costs);\n\n    setRole_(RL_ADMIN, msg.sender);\n    setRole_(RL_PAYBOT, _paybotAddress);\n    emit CostStairs(_limits, _costs);\n  }\n}",
  "sourcePath": "E:\\WORK\\BNKX-POA\\ISAO\\contracts\\testing\\ISAOTest\\ISAOTest.sol",
  "compiler": {
    "name": "solc",
    "version": "0.4.23+commit.124ca40d.Emscripten.clang"
  },
  "schemaVersion": "2.0.0",
  "updatedAt": "2018-06-11T21:09:39.967Z"
}