{
  "contractName": "ISAOTest",
  "abi": [
    {
      "constant": false,
      "inputs": [
        {
          "name": "_value",
          "type": "uint256"
        }
      ],
      "name": "acceptAbstractToken",
      "outputs": [
        {
          "name": "",
          "type": "bool"
        }
      ],
      "payable": false,
      "stateMutability": "nonpayable",
      "type": "function"
    },
    {
      "constant": true,
      "inputs": [],
      "name": "getState",
      "outputs": [
        {
          "name": "",
          "type": "uint8"
        }
      ],
      "payable": false,
      "stateMutability": "view",
      "type": "function"
    },
    {
      "constant": false,
      "inputs": [
        {
          "name": "_value",
          "type": "uint256"
        }
      ],
      "name": "refundShare",
      "outputs": [
        {
          "name": "",
          "type": "bool"
        }
      ],
      "payable": false,
      "stateMutability": "nonpayable",
      "type": "function"
    },
    {
      "constant": false,
      "inputs": [
        {
          "name": "_for",
          "type": "uint8"
        },
        {
          "name": "_value",
          "type": "uint256"
        }
      ],
      "name": "releaseEtherToStakeholderForce",
      "outputs": [
        {
          "name": "",
          "type": "bool"
        }
      ],
      "payable": false,
      "stateMutability": "nonpayable",
      "type": "function"
    },
    {
      "constant": true,
      "inputs": [
        {
          "name": "_targetAddress",
          "type": "address"
        }
      ],
      "name": "getRole",
      "outputs": [
        {
          "name": "",
          "type": "uint8"
        }
      ],
      "payable": false,
      "stateMutability": "view",
      "type": "function"
    },
    {
      "constant": false,
      "inputs": [
        {
          "name": "_for",
          "type": "address"
        },
        {
          "name": "_value",
          "type": "uint256"
        }
      ],
      "name": "refundShareForce",
      "outputs": [
        {
          "name": "",
          "type": "bool"
        }
      ],
      "payable": false,
      "stateMutability": "nonpayable",
      "type": "function"
    },
    {
      "constant": false,
      "inputs": [],
      "name": "buyShare",
      "outputs": [
        {
          "name": "",
          "type": "bool"
        }
      ],
      "payable": true,
      "stateMutability": "payable",
      "type": "function"
    },
    {
      "constant": true,
      "inputs": [],
      "name": "launchTimestamp",
      "outputs": [
        {
          "name": "",
          "type": "uint256"
        }
      ],
      "payable": false,
      "stateMutability": "view",
      "type": "function"
    },
    {
      "constant": true,
      "inputs": [],
      "name": "minimalDeposit",
      "outputs": [
        {
          "name": "",
          "type": "uint256"
        }
      ],
      "payable": false,
      "stateMutability": "view",
      "type": "function"
    },
    {
      "constant": true,
      "inputs": [],
      "name": "distributionPeriod",
      "outputs": [
        {
          "name": "",
          "type": "uint256"
        }
      ],
      "payable": false,
      "stateMutability": "view",
      "type": "function"
    },
    {
      "constant": true,
      "inputs": [],
      "name": "maximalFundSize",
      "outputs": [
        {
          "name": "",
          "type": "uint256"
        }
      ],
      "payable": false,
      "stateMutability": "view",
      "type": "function"
    },
    {
      "constant": true,
      "inputs": [],
      "name": "tokenAddress",
      "outputs": [
        {
          "name": "",
          "type": "address"
        }
      ],
      "payable": false,
      "stateMutability": "view",
      "type": "function"
    },
    {
      "constant": false,
      "inputs": [
        {
          "name": "_time",
          "type": "uint256"
        }
      ],
      "name": "setTimestamp",
      "outputs": [
        {
          "name": "",
          "type": "bool"
        }
      ],
      "payable": false,
      "stateMutability": "nonpayable",
      "type": "function"
    },
    {
      "constant": false,
      "inputs": [
        {
          "name": "newState",
          "type": "uint256"
        }
      ],
      "name": "setState",
      "outputs": [
        {
          "name": "",
          "type": "bool"
        }
      ],
      "payable": false,
      "stateMutability": "nonpayable",
      "type": "function"
    },
    {
      "constant": true,
      "inputs": [],
      "name": "raisingPeriod",
      "outputs": [
        {
          "name": "",
          "type": "uint256"
        }
      ],
      "payable": false,
      "stateMutability": "view",
      "type": "function"
    },
    {
      "constant": false,
      "inputs": [
        {
          "name": "_value",
          "type": "uint256"
        }
      ],
      "name": "releaseToken",
      "outputs": [
        {
          "name": "",
          "type": "bool"
        }
      ],
      "payable": false,
      "stateMutability": "nonpayable",
      "type": "function"
    },
    {
      "constant": false,
      "inputs": [
        {
          "name": "_dTime",
          "type": "uint256"
        }
      ],
      "name": "incTimestamp",
      "outputs": [
        {
          "name": "",
          "type": "bool"
        }
      ],
      "payable": false,
      "stateMutability": "nonpayable",
      "type": "function"
    },
    {
      "constant": false,
      "inputs": [
        {
          "name": "_tokenAddress",
          "type": "address"
        }
      ],
      "name": "setERC20Token",
      "outputs": [
        {
          "name": "",
          "type": "bool"
        }
      ],
      "payable": false,
      "stateMutability": "nonpayable",
      "type": "function"
    },
    {
      "constant": false,
      "inputs": [
        {
          "name": "_for",
          "type": "address"
        },
        {
          "name": "_value",
          "type": "uint256"
        }
      ],
      "name": "releaseTokenForce",
      "outputs": [
        {
          "name": "",
          "type": "bool"
        }
      ],
      "payable": false,
      "stateMutability": "nonpayable",
      "type": "function"
    },
    {
      "constant": true,
      "inputs": [],
      "name": "minimalFundSize",
      "outputs": [
        {
          "name": "",
          "type": "uint256"
        }
      ],
      "payable": false,
      "stateMutability": "view",
      "type": "function"
    },
    {
      "inputs": [
        {
          "name": "_raisingPeriod",
          "type": "uint256"
        },
        {
          "name": "_distributionPeriod",
          "type": "uint256"
        },
        {
          "name": "_minimalFundSize",
          "type": "uint256"
        },
        {
          "name": "_limits",
          "type": "uint256[]"
        },
        {
          "name": "_costs",
          "type": "uint256[]"
        },
        {
          "name": "_minimalDeposit",
          "type": "uint256"
        },
        {
          "name": "_paybotAddress",
          "type": "address"
        }
      ],
      "payable": false,
      "stateMutability": "nonpayable",
      "type": "constructor"
    },
    {
      "payable": true,
      "stateMutability": "payable",
      "type": "fallback"
    },
    {
      "anonymous": false,
      "inputs": [
        {
          "indexed": false,
          "name": "limits",
          "type": "uint256[]"
        },
        {
          "indexed": false,
          "name": "costs",
          "type": "uint256[]"
        }
      ],
      "name": "CostStairs",
      "type": "event"
    },
    {
      "anonymous": false,
      "inputs": [
        {
          "indexed": true,
          "name": "addr",
          "type": "address"
        },
        {
          "indexed": false,
          "name": "value",
          "type": "uint256"
        }
      ],
      "name": "BuyShare",
      "type": "event"
    },
    {
      "anonymous": false,
      "inputs": [
        {
          "indexed": true,
          "name": "addr",
          "type": "address"
        },
        {
          "indexed": false,
          "name": "value",
          "type": "uint256"
        }
      ],
      "name": "RefundShare",
      "type": "event"
    },
    {
      "anonymous": false,
      "inputs": [
        {
          "indexed": true,
          "name": "role",
          "type": "uint8"
        },
        {
          "indexed": true,
          "name": "addr",
          "type": "address"
        },
        {
          "indexed": false,
          "name": "value",
          "type": "uint256"
        }
      ],
      "name": "ReleaseEtherToStakeholder",
      "type": "event"
    },
    {
      "anonymous": false,
      "inputs": [
        {
          "indexed": true,
          "name": "role",
          "type": "uint8"
        },
        {
          "indexed": true,
          "name": "addr",
          "type": "address"
        },
        {
          "indexed": false,
          "name": "value",
          "type": "uint256"
        }
      ],
      "name": "ReleaseTokenToStakeholder",
      "type": "event"
    },
    {
      "anonymous": false,
      "inputs": [
        {
          "indexed": true,
          "name": "addr",
          "type": "address"
        },
        {
          "indexed": false,
          "name": "value",
          "type": "uint256"
        }
      ],
      "name": "ReleaseEther",
      "type": "event"
    },
    {
      "anonymous": false,
      "inputs": [
        {
          "indexed": true,
          "name": "addr",
          "type": "address"
        },
        {
          "indexed": false,
          "name": "value",
          "type": "uint256"
        }
      ],
      "name": "ReleaseToken",
      "type": "event"
    }
  ],
  "bytecode": "0x60806040523480156200001157600080fd5b50604051620020b0380380620020b08339810180604052810190808051906020019092919080519060200190929190805190602001909291908051820192919060200180518201929190602001805190602001909291908051906020019092919050505086600d8190555085600e8190555081600081905550620000a6858585620001b3640100000000026401000000009004565b50620000c360043362000332640100000000026401000000009004565b50620000e060088262000332640100000000026401000000009004565b507f32a77d339835f060f74fc1d2d71394f25f6a037e3acd20e875be312f92deaf6f8484604051808060200180602001838103835285818151815260200191508051906020019060200280838360005b838110156200014d57808201518184015260208101905062000130565b50505050905001838103825284818151815260200191508051906020019060200280838360005b838110156200019157808201518184015260208101905062000174565b5050505090500194505050505060405180910390a150505050505050620004ba565b600080600084519150835182141515620001cc57600080fd5b600082111515620001dc57600080fd5b600090505b600182038110156200028e578460018201815181101515620001ff57fe5b906020019060200201516003600087848151811015156200021c57fe5b9060200190602002015181526020019081526020016000208190555083818151811015156200024757fe5b906020019060200201516004600087848151811015156200026457fe5b906020019060200201518152602001908152602001600020819055508080600101915050620001e1565b8360018303815181101515620002a057fe5b90602001906020020151600460008760018603815181101515620002c057fe5b90602001906020020151815260200190815260200160002081905550846000815181101515620002ec57fe5b906020019060200201516005819055508560018190555083600183038151811015156200031557fe5b906020019060200201516002819055506001925050509392505050565b600080601060008473ffffffffffffffffffffffffffffffffffffffff1673ffffffffffffffffffffffffffffffffffffffff16815260200190815260200160002060009054906101000a900460ff1660ff16148015620003f85750600073ffffffffffffffffffffffffffffffffffffffff16601160008560ff1660ff16815260200190815260200160002060009054906101000a900473ffffffffffffffffffffffffffffffffffffffff1673ffffffffffffffffffffffffffffffffffffffff16145b15156200040457600080fd5b82601060008473ffffffffffffffffffffffffffffffffffffffff1673ffffffffffffffffffffffffffffffffffffffff16815260200190815260200160002060006101000a81548160ff021916908360ff16021790555081601160008560ff1660ff16815260200190815260200160002060006101000a81548173ffffffffffffffffffffffffffffffffffffffff021916908373ffffffffffffffffffffffffffffffffffffffff16021790555092915050565b611be680620004ca6000396000f300608060405260043610610112576000357c0100000000000000000000000000000000000000000000000000000000900463ffffffff1680630b43a09e1461026a5780631865c57d146102af5780632229fdf4146102e057806331d98d211461032557806344276733146103775780634aea6232146103d45780634da13c2e1461043957806365cf7c9b1461045b5780636fe4d97a146104865780639b501723146104b15780639d12bf0a146104dc5780639d76ea5814610507578063a0a2b5731461055e578063a9e966b7146105a3578063afd54d82146105e8578063b54d623814610613578063c173f24514610658578063de5624871461069d578063e20d82df146106f8578063ed48ee3d1461075d575b600061011c610788565b9050600160ff168160ff16141561013b576101356107d0565b50610267565b600460ff168160ff1614156101ea5761019333600660003373ffffffffffffffffffffffffffffffffffffffff1673ffffffffffffffffffffffffffffffffffffffff16815260200190815260200160002054610ad5565b5060003411156101e5573373ffffffffffffffffffffffffffffffffffffffff166108fc349081150290604051600060405180830381858888f193505050501580156101e3573d6000803e3d6000fd5b505b610267565b600860ff168160ff1614156102625761020b3361020633610d07565b610da1565b50600034111561025d573373ffffffffffffffffffffffffffffffffffffffff166108fc349081150290604051600060405180830381858888f1935050505015801561025b573d6000803e3d6000fd5b505b610267565b600080fd5b50005b34801561027657600080fd5b5061029560048036038101908080359060200190929190505050610eb4565b604051808215151515815260200191505060405180910390f35b3480156102bb57600080fd5b506102c4610ee7565b604051808260ff1660ff16815260200191505060405180910390f35b3480156102ec57600080fd5b5061030b60048036038101908080359060200190929190505050610ef6565b604051808215151515815260200191505060405180910390f35b34801561033157600080fd5b5061035d600480360381019080803560ff16906020019092919080359060200190929190505050610f2a565b604051808215151515815260200191505060405180910390f35b34801561038357600080fd5b506103b8600480360381019080803573ffffffffffffffffffffffffffffffffffffffff169060200190929190505050610f92565b604051808260ff1660ff16815260200191505060405180910390f35b3480156103e057600080fd5b5061041f600480360381019080803573ffffffffffffffffffffffffffffffffffffffff16906020019092919080359060200190929190505050610fe8565b604051808215151515815260200191505060405180910390f35b610441611061565b604051808215151515815260200191505060405180910390f35b34801561046757600080fd5b50610470611091565b6040518082815260200191505060405180910390f35b34801561049257600080fd5b5061049b611097565b6040518082815260200191505060405180910390f35b3480156104bd57600080fd5b506104c661109d565b6040518082815260200191505060405180910390f35b3480156104e857600080fd5b506104f16110a3565b6040518082815260200191505060405180910390f35b34801561051357600080fd5b5061051c6110a9565b604051808273ffffffffffffffffffffffffffffffffffffffff1673ffffffffffffffffffffffffffffffffffffffff16815260200191505060405180910390f35b34801561056a57600080fd5b50610589600480360381019080803590602001909291905050506110cf565b604051808215151515815260200191505060405180910390f35b3480156105af57600080fd5b506105ce600480360381019080803590602001909291905050506110e3565b604051808215151515815260200191505060405180910390f35b3480156105f457600080fd5b506105fd6110f5565b6040518082815260200191505060405180910390f35b34801561061f57600080fd5b5061063e600480360381019080803590602001909291905050506110fb565b604051808215151515815260200191505060405180910390f35b34801561066457600080fd5b506106836004803603810190808035906020019092919050505061112f565b604051808215151515815260200191505060405180910390f35b3480156106a957600080fd5b506106de600480360381019080803573ffffffffffffffffffffffffffffffffffffffff16906020019092919050505061114a565b604051808215151515815260200191505060405180910390f35b34801561070457600080fd5b50610743600480360381019080803573ffffffffffffffffffffffffffffffffffffffff169060200190929190803590602001909291905050506111b0565b604051808215151515815260200191505060405180910390f35b34801561076957600080fd5b50610772611218565b6040518082815260200191505060405180910390f35b600080600080600f60009054906101000a900460ff1660ff1692506107ab61121e565b60ff1691506107b8611276565b60ff1690506107c88383836112bc565b935050505090565b60008060008060008060008060005434101515156107ed57600080fd5b600b54965086955060055494508493503492505b600083118015610812575060008414155b15610906576004600085815260200190815260200160002054915061085a8261084c670de0b6b3a7640000866113b790919063ffffffff16565b6113f290919063ffffffff16565b905083610870828861140d90919063ffffffff16565b11156108e7576108c76108b8670de0b6b3a76400006108aa8561089c8b8a61142b90919063ffffffff16565b6113b790919063ffffffff16565b6113f290919063ffffffff16565b8461142b90919063ffffffff16565b925083955060036000858152602001908152602001600020549350610901565b600092506108fe818761140d90919063ffffffff16565b95505b610801565b838514151561091757836005819055505b8587141515610a7657610984610936888861142b90919063ffffffff16565b600660003373ffffffffffffffffffffffffffffffffffffffff1673ffffffffffffffffffffffffffffffffffffffff1681526020019081526020016000205461140d90919063ffffffff16565b600660003373ffffffffffffffffffffffffffffffffffffffff1673ffffffffffffffffffffffffffffffffffffffff16815260200190815260200160002081905550610a2b6109dd843461142b90919063ffffffff16565b600760003373ffffffffffffffffffffffffffffffffffffffff1673ffffffffffffffffffffffffffffffffffffffff1681526020019081526020016000205461140d90919063ffffffff16565b600760003373ffffffffffffffffffffffffffffffffffffffff1673ffffffffffffffffffffffffffffffffffffffff1681526020019081526020016000208190555085600b819055505b6000831115610ac7573373ffffffffffffffffffffffffffffffffffffffff166108fc849081150290604051600060405180830381858888f19350505050158015610ac5573d6000803e3d6000fd5b505b600197505050505050505090565b6000806000806000600660008873ffffffffffffffffffffffffffffffffffffffff1673ffffffffffffffffffffffffffffffffffffffff168152602001908152602001600020549350600860008873ffffffffffffffffffffffffffffffffffffffff1673ffffffffffffffffffffffffffffffffffffffff16815260200190815260200160002054925085610b75848661142b90919063ffffffff16565b10151515610b8257600080fd5b600760008873ffffffffffffffffffffffffffffffffffffffff1673ffffffffffffffffffffffffffffffffffffffff168152602001908152602001600020549150610be984610bdb88856113b790919063ffffffff16565b6113f290919063ffffffff16565b9050610bfe868561142b90919063ffffffff16565b600660008973ffffffffffffffffffffffffffffffffffffffff1673ffffffffffffffffffffffffffffffffffffffff16815260200190815260200160002081905550610c54818361142b90919063ffffffff16565b600760008973ffffffffffffffffffffffffffffffffffffffff1673ffffffffffffffffffffffffffffffffffffffff16815260200190815260200160002081905550610cac86600b5461142b90919063ffffffff16565b600b819055508673ffffffffffffffffffffffffffffffffffffffff166108fc829081150290604051600060405180830381858888f19350505050158015610cf8573d6000803e3d6000fd5b50600194505050505092915050565b6000610d9a600860008473ffffffffffffffffffffffffffffffffffffffff1673ffffffffffffffffffffffffffffffffffffffff16815260200190815260200160002054600660008573ffffffffffffffffffffffffffffffffffffffff1673ffffffffffffffffffffffffffffffffffffffff1681526020019081526020016000205461142b90919063ffffffff16565b9050919050565b600080610dad84610d07565b9050828110151515610dbe57600080fd5b610e1083600860008773ffffffffffffffffffffffffffffffffffffffff1673ffffffffffffffffffffffffffffffffffffffff1681526020019081526020016000205461140d90919063ffffffff16565b600860008673ffffffffffffffffffffffffffffffffffffffff1673ffffffffffffffffffffffffffffffffffffffff168152602001908152602001600020819055508373ffffffffffffffffffffffffffffffffffffffff167fd777ee46b5c5e9bff9903e5b77152b900a28b55ea90ea99766fa3b5237f970f6846040518082815260200191505060405180910390a2610eab8484611444565b91505092915050565b600080610ebf61154e565b9050600460ff168160ff16141515610ed657600080fd5b610edf836115a2565b915050919050565b6000610ef1610788565b905090565b600080610f01610788565b9050600460ff168160ff16141515610f1857600080fd5b610f223384610ad5565b915050919050565b6000806000610f3761154e565b9150610f41610788565b9050600860ff168160ff16141515610f5857600080fd5b600460ff168260ff161480610f735750600860ff168260ff16145b1515610f7e57600080fd5b610f8885856116df565b9250505092915050565b6000601060008373ffffffffffffffffffffffffffffffffffffffff1673ffffffffffffffffffffffffffffffffffffffff16815260200190815260200160002060009054906101000a900460ff169050919050565b6000806000610ff5610788565b9150610fff61154e565b9050600460ff168160ff16148061101c5750600860ff168160ff16145b151561102757600080fd5b600460ff168260ff1614806110425750600160ff168260ff16145b151561104d57600080fd5b6110578585610ad5565b9250505092915050565b60008061106c610788565b9050600160ff168160ff1614151561108357600080fd5b61108b6107d0565b91505090565b600c5481565b60005481565b600e5481565b60025481565b601360009054906101000a900473ffffffffffffffffffffffffffffffffffffffff1681565b600042820360128190555060019050919050565b60006110ee826117f7565b9050919050565b600d5481565b600080611106610788565b9050600860ff168160ff1614151561111d57600080fd5b6111273384610da1565b915050919050565b60008160126000828254019250508190555060019050919050565b600080600061115761154e565b9150611161610788565b9050600460ff168260ff16148061117e5750600860ff168260ff16145b151561118957600080fd5b600060ff168160ff1614151561119e57600080fd5b6111a7846119b0565b92505050919050565b60008060006111bd61154e565b91506111c7610788565b9050600860ff168160ff161415156111de57600080fd5b600460ff168260ff1614806111f95750600860ff168260ff16145b151561120457600080fd5b61120e8585610da1565b9250505092915050565b60015481565b6000806000600c549150816112316119f8565b03905060008214156112465760009250611271565b600d548110156112595760019250611271565b600e5481101561126c5760089250611271565b601092505b505090565b600080611281611a04565b905061128b611a0e565b81101561129b57600191506112b8565b6112a3611a18565b8110156112b357600291506112b8565b600491505b5090565b60008060ff168414156112d257600090506113b0565b600160ff1684141561133b57600160ff1683141561130857600460ff168214156112ff57600890506113b0565b600190506113b0565b600160ff1682141561131d57600490506113b0565b600860ff1683141561133257600890506113b0565b601090506113b0565b600460ff1684141561137357600160ff1683148061135c5750600860ff1683145b1561136a57600490506113b0565b601090506113b0565b600860ff168414156113ab57600160ff168314806113945750600860ff1683145b156113a257600890506113b0565b601090506113b0565b601090505b9392505050565b60008060008414156113cc57600091506113eb565b82840290508284828115156113dd57fe5b041415156113e757fe5b8091505b5092915050565b600080828481151561140057fe5b0490508091505092915050565b600080828401905083811015151561142157fe5b8091505092915050565b600082821115151561143957fe5b818303905092915050565b6000601360009054906101000a900473ffffffffffffffffffffffffffffffffffffffff1673ffffffffffffffffffffffffffffffffffffffff1663a9059cbb84846040518363ffffffff167c0100000000000000000000000000000000000000000000000000000000028152600401808373ffffffffffffffffffffffffffffffffffffffff1673ffffffffffffffffffffffffffffffffffffffff16815260200182815260200192505050602060405180830381600087803b15801561150b57600080fd5b505af115801561151f573d6000803e3d6000fd5b505050506040513d602081101561153557600080fd5b8101908080519060200190929190505050905092915050565b6000601060003373ffffffffffffffffffffffffffffffffffffffff1673ffffffffffffffffffffffffffffffffffffffff16815260200190815260200160002060009054906101000a900460ff16905090565b6000601360009054906101000a900473ffffffffffffffffffffffffffffffffffffffff1673ffffffffffffffffffffffffffffffffffffffff166323b872dd3330856040518463ffffffff167c0100000000000000000000000000000000000000000000000000000000028152600401808473ffffffffffffffffffffffffffffffffffffffff1673ffffffffffffffffffffffffffffffffffffffff1681526020018373ffffffffffffffffffffffffffffffffffffffff1673ffffffffffffffffffffffffffffffffffffffff1681526020018281526020019350505050602060405180830381600087803b15801561169d57600080fd5b505af11580156116b1573d6000803e3d6000fd5b505050506040513d60208110156116c757600080fd5b81019080805190602001909291905050509050919050565b60008060006116ed85611a22565b91508382101515156116fe57600080fd5b61172a84600960008860ff1660ff1681526020019081526020016000205461140d90919063ffffffff16565b600960008760ff1660ff1681526020019081526020016000208190555061175085611a78565b90508073ffffffffffffffffffffffffffffffffffffffff166108fc859081150290604051600060405180830381858888f19350505050158015611798573d6000803e3d6000fd5b508073ffffffffffffffffffffffffffffffffffffffff168560ff167f0fd79c527d8fff6ba27289ff9bf7bf508210c1b8503799ff89bba54447848e8c866040518082815260200191505060405180910390a360019250505092915050565b600080600080600080600f60009054906101000a900460ff1660ff16945061181d61121e565b60ff16935061182a611276565b60ff16925061183a8585856112bc565b915061184461154e565b9050600160ff168714156118d457600460ff168160ff16148061186d5750600860ff168160ff16145b801561187f5750600060ff168260ff16145b156118cf5761188c611a0e565b611894611abb565b1015156118ce576118a36119f8565b600c819055506001600f60006101000a81548160ff021916908360ff160217905550600195506119a6565b5b600080fd5b600860ff1687141561193957600460ff168160ff1614806118fb5750600860ff168160ff16145b801561190a5750600260ff1683145b15611934576008600f60006101000a81548160ff021916908360ff160217905550600195506119a6565b600080fd5b600460ff168714156119a157600460ff168160ff1614806119605750600860ff168160ff16145b80156119725750600160ff168260ff16145b1561199c576004600f60006101000a81548160ff021916908360ff160217905550600195506119a6565b600080fd5b600080fd5b5050505050919050565b600081601360006101000a81548173ffffffffffffffffffffffffffffffffffffffff021916908373ffffffffffffffffffffffffffffffffffffffff160217905550919050565b60004260125401905090565b6000600b54905090565b6000600154905090565b6000600254905090565b6000600460ff168260ff16141515611a3d5760009050611a73565b600960008360ff1660ff168152602001908152602001600020543073ffffffffffffffffffffffffffffffffffffffff16310390505b919050565b6000601160008360ff1660ff16815260200190815260200160002060009054906101000a900473ffffffffffffffffffffffffffffffffffffffff169050919050565b6000601360009054906101000a900473ffffffffffffffffffffffffffffffffffffffff1673ffffffffffffffffffffffffffffffffffffffff166370a08231306040518263ffffffff167c0100000000000000000000000000000000000000000000000000000000028152600401808273ffffffffffffffffffffffffffffffffffffffff1673ffffffffffffffffffffffffffffffffffffffff168152602001915050602060405180830381600087803b158015611b7a57600080fd5b505af1158015611b8e573d6000803e3d6000fd5b505050506040513d6020811015611ba457600080fd5b81019080805190602001909291905050509050905600a165627a7a7230582094c7ea4f98e2487af8c9fd3ac7d1dc5b6c9a86fd1911e02e1f9d4744ccd54e390029",
  "source": "pragma solidity ^0.4.23;\n\nimport \"../../abstract/ISAO/ISAO.sol\";\nimport \"../../abstract/TimeMachine/TimeMachineT.sol\";\nimport \"../../abstract/Cassette/ERC20Cassette.sol\";\n\ncontract ISAOTest is ISAO, TimeMachineT, ERC20Cassette {\n  uint constant DECIMAL_MULTIPLIER = 1e18;\n\n  event CostStairs(uint[] limits, uint[] costs);\n  \n  constructor(uint _raisingPeriod, \n              uint _distributionPeriod, \n              uint _minimalFundSize, \n              uint[] _limits, \n              uint[] _costs,\n              uint _minimalDeposit,\n              address _paybotAddress) public {\n    raisingPeriod = _raisingPeriod;\n    distributionPeriod = _distributionPeriod;\n\n    minimalDeposit = _minimalDeposit;\n    setCosts_(_minimalFundSize, _limits, _costs);\n\n    setRole_(RL_ADMIN, msg.sender);\n    setRole_(RL_PAYBOT, _paybotAddress);\n    emit CostStairs(_limits, _costs);\n  }\n}",
  "sourcePath": "E:\\WORK\\BNKX-POA\\ISAO\\contracts\\testing\\ISAOTest\\ISAOTest.sol",
  "compiler": {
    "name": "solc",
    "version": "0.4.23+commit.124ca40d.Emscripten.clang"
  },
  "schemaVersion": "2.0.0",
  "updatedAt": "2018-06-14T08:29:23.796Z"
}