{
  "contractName": "ISAOTest",
  "abi": [
    {
      "constant": true,
      "inputs": [],
      "name": "totalShare",
      "outputs": [
        {
          "name": "",
          "type": "uint256"
        }
      ],
      "payable": false,
      "stateMutability": "view",
      "type": "function"
    },
    {
      "constant": false,
      "inputs": [
        {
          "name": "_value",
          "type": "uint256"
        }
      ],
      "name": "acceptAbstractToken",
      "outputs": [
        {
          "name": "",
          "type": "bool"
        }
      ],
      "payable": false,
      "stateMutability": "nonpayable",
      "type": "function"
    },
    {
      "constant": true,
      "inputs": [],
      "name": "getState",
      "outputs": [
        {
          "name": "",
          "type": "uint8"
        }
      ],
      "payable": false,
      "stateMutability": "view",
      "type": "function"
    },
    {
      "constant": true,
      "inputs": [],
      "name": "getTimestamp",
      "outputs": [
        {
          "name": "",
          "type": "uint256"
        }
      ],
      "payable": false,
      "stateMutability": "view",
      "type": "function"
    },
    {
      "constant": false,
      "inputs": [
        {
          "name": "_value",
          "type": "uint256"
        }
      ],
      "name": "refundShare",
      "outputs": [
        {
          "name": "",
          "type": "bool"
        }
      ],
      "payable": false,
      "stateMutability": "nonpayable",
      "type": "function"
    },
    {
      "constant": false,
      "inputs": [
        {
          "name": "_for",
          "type": "uint8"
        },
        {
          "name": "_value",
          "type": "uint256"
        }
      ],
      "name": "releaseEtherToStakeholderForce",
      "outputs": [
        {
          "name": "",
          "type": "bool"
        }
      ],
      "payable": false,
      "stateMutability": "nonpayable",
      "type": "function"
    },
    {
      "constant": true,
      "inputs": [
        {
          "name": "_targetAddress",
          "type": "address"
        }
      ],
      "name": "getRole",
      "outputs": [
        {
          "name": "",
          "type": "uint8"
        }
      ],
      "payable": false,
      "stateMutability": "view",
      "type": "function"
    },
    {
      "constant": false,
      "inputs": [
        {
          "name": "_for",
          "type": "address"
        },
        {
          "name": "_value",
          "type": "uint256"
        }
      ],
      "name": "refundShareForce",
      "outputs": [
        {
          "name": "",
          "type": "bool"
        }
      ],
      "payable": false,
      "stateMutability": "nonpayable",
      "type": "function"
    },
    {
      "constant": false,
      "inputs": [],
      "name": "buyShare",
      "outputs": [
        {
          "name": "",
          "type": "bool"
        }
      ],
      "payable": true,
      "stateMutability": "payable",
      "type": "function"
    },
    {
      "constant": true,
      "inputs": [],
      "name": "launchTimestamp",
      "outputs": [
        {
          "name": "",
          "type": "uint256"
        }
      ],
      "payable": false,
      "stateMutability": "view",
      "type": "function"
    },
    {
      "constant": true,
      "inputs": [],
      "name": "minimalDeposit",
      "outputs": [
        {
          "name": "",
          "type": "uint256"
        }
      ],
      "payable": false,
      "stateMutability": "view",
      "type": "function"
    },
    {
      "constant": true,
      "inputs": [],
      "name": "distributionPeriod",
      "outputs": [
        {
          "name": "",
          "type": "uint256"
        }
      ],
      "payable": false,
      "stateMutability": "view",
      "type": "function"
    },
    {
      "constant": true,
      "inputs": [],
      "name": "maximalFundSize",
      "outputs": [
        {
          "name": "",
          "type": "uint256"
        }
      ],
      "payable": false,
      "stateMutability": "view",
      "type": "function"
    },
    {
      "constant": true,
      "inputs": [],
      "name": "tokenAddress",
      "outputs": [
        {
          "name": "",
          "type": "address"
        }
      ],
      "payable": false,
      "stateMutability": "view",
      "type": "function"
    },
    {
      "constant": false,
      "inputs": [
        {
          "name": "_time",
          "type": "uint256"
        }
      ],
      "name": "setTimestamp",
      "outputs": [
        {
          "name": "",
          "type": "bool"
        }
      ],
      "payable": false,
      "stateMutability": "nonpayable",
      "type": "function"
    },
    {
      "constant": false,
      "inputs": [
        {
          "name": "newState",
          "type": "uint256"
        }
      ],
      "name": "setState",
      "outputs": [
        {
          "name": "",
          "type": "bool"
        }
      ],
      "payable": false,
      "stateMutability": "nonpayable",
      "type": "function"
    },
    {
      "constant": true,
      "inputs": [],
      "name": "raisingPeriod",
      "outputs": [
        {
          "name": "",
          "type": "uint256"
        }
      ],
      "payable": false,
      "stateMutability": "view",
      "type": "function"
    },
    {
      "constant": false,
      "inputs": [
        {
          "name": "_value",
          "type": "uint256"
        }
      ],
      "name": "releaseToken",
      "outputs": [
        {
          "name": "",
          "type": "bool"
        }
      ],
      "payable": false,
      "stateMutability": "nonpayable",
      "type": "function"
    },
    {
      "constant": false,
      "inputs": [
        {
          "name": "_dTime",
          "type": "uint256"
        }
      ],
      "name": "incTimestamp",
      "outputs": [
        {
          "name": "",
          "type": "bool"
        }
      ],
      "payable": false,
      "stateMutability": "nonpayable",
      "type": "function"
    },
    {
      "constant": true,
      "inputs": [
        {
          "name": "_for",
          "type": "address"
        }
      ],
      "name": "getBalanceTokenOf",
      "outputs": [
        {
          "name": "",
          "type": "uint256"
        }
      ],
      "payable": false,
      "stateMutability": "view",
      "type": "function"
    },
    {
      "constant": false,
      "inputs": [
        {
          "name": "_tokenAddress",
          "type": "address"
        }
      ],
      "name": "setERC20Token",
      "outputs": [
        {
          "name": "",
          "type": "bool"
        }
      ],
      "payable": false,
      "stateMutability": "nonpayable",
      "type": "function"
    },
    {
      "constant": false,
      "inputs": [
        {
          "name": "_for",
          "type": "address"
        },
        {
          "name": "_value",
          "type": "uint256"
        }
      ],
      "name": "releaseTokenForce",
      "outputs": [
        {
          "name": "",
          "type": "bool"
        }
      ],
      "payable": false,
      "stateMutability": "nonpayable",
      "type": "function"
    },
    {
      "constant": true,
      "inputs": [],
      "name": "minimalFundSize",
      "outputs": [
        {
          "name": "",
          "type": "uint256"
        }
      ],
      "payable": false,
      "stateMutability": "view",
      "type": "function"
    },
    {
      "inputs": [
        {
          "name": "_raisingPeriod",
          "type": "uint256"
        },
        {
          "name": "_distributionPeriod",
          "type": "uint256"
        },
        {
          "name": "_minimalFundSize",
          "type": "uint256"
        },
        {
          "name": "_limits",
          "type": "uint256[]"
        },
        {
          "name": "_costs",
          "type": "uint256[]"
        },
        {
          "name": "_minimalDeposit",
          "type": "uint256"
        },
        {
          "name": "_paybotAddress",
          "type": "address"
        }
      ],
      "payable": false,
      "stateMutability": "nonpayable",
      "type": "constructor"
    },
    {
      "payable": true,
      "stateMutability": "payable",
      "type": "fallback"
    },
    {
      "anonymous": false,
      "inputs": [
        {
          "indexed": false,
          "name": "limits",
          "type": "uint256[]"
        },
        {
          "indexed": false,
          "name": "costs",
          "type": "uint256[]"
        }
      ],
      "name": "CostStairs",
      "type": "event"
    },
    {
      "anonymous": false,
      "inputs": [
        {
          "indexed": true,
          "name": "addr",
          "type": "address"
        },
        {
          "indexed": false,
          "name": "value",
          "type": "uint256"
        }
      ],
      "name": "BuyShare",
      "type": "event"
    },
    {
      "anonymous": false,
      "inputs": [
        {
          "indexed": true,
          "name": "addr",
          "type": "address"
        },
        {
          "indexed": false,
          "name": "value",
          "type": "uint256"
        }
      ],
      "name": "RefundShare",
      "type": "event"
    },
    {
      "anonymous": false,
      "inputs": [
        {
          "indexed": true,
          "name": "role",
          "type": "uint8"
        },
        {
          "indexed": true,
          "name": "addr",
          "type": "address"
        },
        {
          "indexed": false,
          "name": "value",
          "type": "uint256"
        }
      ],
      "name": "ReleaseEtherToStakeholder",
      "type": "event"
    },
    {
      "anonymous": false,
      "inputs": [
        {
          "indexed": true,
          "name": "role",
          "type": "uint8"
        },
        {
          "indexed": true,
          "name": "addr",
          "type": "address"
        },
        {
          "indexed": false,
          "name": "value",
          "type": "uint256"
        }
      ],
      "name": "ReleaseTokenToStakeholder",
      "type": "event"
    },
    {
      "anonymous": false,
      "inputs": [
        {
          "indexed": true,
          "name": "addr",
          "type": "address"
        },
        {
          "indexed": false,
          "name": "value",
          "type": "uint256"
        }
      ],
      "name": "ReleaseEther",
      "type": "event"
    },
    {
      "anonymous": false,
      "inputs": [
        {
          "indexed": true,
          "name": "addr",
          "type": "address"
        },
        {
          "indexed": false,
          "name": "value",
          "type": "uint256"
        }
      ],
      "name": "ReleaseToken",
      "type": "event"
    }
  ],
  "bytecode": "0x60806040523480156200001157600080fd5b5060405162002205380380620022058339810180604052810190808051906020019092919080519060200190929190805190602001909291908051820192919060200180518201929190602001805190602001909291908051906020019092919050505086600d8190555085600e8190555081600081905550620000a6858585620001b3640100000000026401000000009004565b50620000c360043362000332640100000000026401000000009004565b50620000e060088262000332640100000000026401000000009004565b507f32a77d339835f060f74fc1d2d71394f25f6a037e3acd20e875be312f92deaf6f8484604051808060200180602001838103835285818151815260200191508051906020019060200280838360005b838110156200014d57808201518184015260208101905062000130565b50505050905001838103825284818151815260200191508051906020019060200280838360005b838110156200019157808201518184015260208101905062000174565b5050505090500194505050505060405180910390a150505050505050620004ba565b600080600084519150835182141515620001cc57600080fd5b600082111515620001dc57600080fd5b600090505b600182038110156200028e578460018201815181101515620001ff57fe5b906020019060200201516003600087848151811015156200021c57fe5b9060200190602002015181526020019081526020016000208190555083818151811015156200024757fe5b906020019060200201516004600087848151811015156200026457fe5b906020019060200201518152602001908152602001600020819055508080600101915050620001e1565b8360018303815181101515620002a057fe5b90602001906020020151600460008760018603815181101515620002c057fe5b90602001906020020151815260200190815260200160002081905550846000815181101515620002ec57fe5b906020019060200201516005819055508560018190555084600183038151811015156200031557fe5b906020019060200201516002819055506001925050509392505050565b600080601060008473ffffffffffffffffffffffffffffffffffffffff1673ffffffffffffffffffffffffffffffffffffffff16815260200190815260200160002060009054906101000a900460ff1660ff16148015620003f85750600073ffffffffffffffffffffffffffffffffffffffff16601160008560ff1660ff16815260200190815260200160002060009054906101000a900473ffffffffffffffffffffffffffffffffffffffff1673ffffffffffffffffffffffffffffffffffffffff16145b15156200040457600080fd5b82601060008473ffffffffffffffffffffffffffffffffffffffff1673ffffffffffffffffffffffffffffffffffffffff16815260200190815260200160002060006101000a81548160ff021916908360ff16021790555081601160008560ff1660ff16815260200190815260200160002060006101000a81548173ffffffffffffffffffffffffffffffffffffffff021916908373ffffffffffffffffffffffffffffffffffffffff16021790555092915050565b611d3b80620004ca6000396000f300608060405260043610610133576000357c0100000000000000000000000000000000000000000000000000000000900463ffffffff168063026c42071461028b5780630b43a09e146102b65780631865c57d146102fb578063188ec3561461032c5780632229fdf41461035757806331d98d211461039c57806344276733146103ee5780634aea62321461044b5780634da13c2e146104b057806365cf7c9b146104d25780636fe4d97a146104fd5780639b501723146105285780639d12bf0a146105535780639d76ea581461057e578063a0a2b573146105d5578063a9e966b71461061a578063afd54d821461065f578063b54d62381461068a578063c173f245146106cf578063dc08826d14610714578063de5624871461076b578063e20d82df146107c6578063ed48ee3d1461082b575b600061013d610856565b9050600160ff168160ff16141561015c5761015661089e565b50610288565b600460ff168160ff16141561020b576101b433600660003373ffffffffffffffffffffffffffffffffffffffff1673ffffffffffffffffffffffffffffffffffffffff16815260200190815260200160002054610c03565b506000341115610206573373ffffffffffffffffffffffffffffffffffffffff166108fc349081150290604051600060405180830381858888f19350505050158015610204573d6000803e3d6000fd5b505b610288565b600860ff168160ff1614156102835761022c3361022733610e35565b610ecf565b50600034111561027e573373ffffffffffffffffffffffffffffffffffffffff166108fc349081150290604051600060405180830381858888f1935050505015801561027c573d6000803e3d6000fd5b505b610288565b600080fd5b50005b34801561029757600080fd5b506102a0610fe2565b6040518082815260200191505060405180910390f35b3480156102c257600080fd5b506102e160048036038101908080359060200190929190505050610fe8565b604051808215151515815260200191505060405180910390f35b34801561030757600080fd5b5061031061101b565b604051808260ff1660ff16815260200191505060405180910390f35b34801561033857600080fd5b5061034161102a565b6040518082815260200191505060405180910390f35b34801561036357600080fd5b5061038260048036038101908080359060200190929190505050611039565b604051808215151515815260200191505060405180910390f35b3480156103a857600080fd5b506103d4600480360381019080803560ff1690602001909291908035906020019092919050505061106d565b604051808215151515815260200191505060405180910390f35b3480156103fa57600080fd5b5061042f600480360381019080803573ffffffffffffffffffffffffffffffffffffffff1690602001909291905050506110d5565b604051808260ff1660ff16815260200191505060405180910390f35b34801561045757600080fd5b50610496600480360381019080803573ffffffffffffffffffffffffffffffffffffffff1690602001909291908035906020019092919050505061112b565b604051808215151515815260200191505060405180910390f35b6104b86111a4565b604051808215151515815260200191505060405180910390f35b3480156104de57600080fd5b506104e76111d4565b6040518082815260200191505060405180910390f35b34801561050957600080fd5b506105126111da565b6040518082815260200191505060405180910390f35b34801561053457600080fd5b5061053d6111e0565b6040518082815260200191505060405180910390f35b34801561055f57600080fd5b506105686111e6565b6040518082815260200191505060405180910390f35b34801561058a57600080fd5b506105936111ec565b604051808273ffffffffffffffffffffffffffffffffffffffff1673ffffffffffffffffffffffffffffffffffffffff16815260200191505060405180910390f35b3480156105e157600080fd5b5061060060048036038101908080359060200190929190505050611212565b604051808215151515815260200191505060405180910390f35b34801561062657600080fd5b5061064560048036038101908080359060200190929190505050611226565b604051808215151515815260200191505060405180910390f35b34801561066b57600080fd5b50610674611238565b6040518082815260200191505060405180910390f35b34801561069657600080fd5b506106b56004803603810190808035906020019092919050505061123e565b604051808215151515815260200191505060405180910390f35b3480156106db57600080fd5b506106fa60048036038101908080359060200190929190505050611272565b604051808215151515815260200191505060405180910390f35b34801561072057600080fd5b50610755600480360381019080803573ffffffffffffffffffffffffffffffffffffffff16906020019092919050505061128d565b6040518082815260200191505060405180910390f35b34801561077757600080fd5b506107ac600480360381019080803573ffffffffffffffffffffffffffffffffffffffff16906020019092919050505061129f565b604051808215151515815260200191505060405180910390f35b3480156107d257600080fd5b50610811600480360381019080803573ffffffffffffffffffffffffffffffffffffffff16906020019092919080359060200190929190505050611305565b604051808215151515815260200191505060405180910390f35b34801561083757600080fd5b5061084061136d565b6040518082815260200191505060405180910390f35b600080600080600f60009054906101000a900460ff1660ff169250610879611373565b60ff1691506108866113cb565b60ff169050610896838383611411565b935050505090565b60008060008060008060008060005434101515156108bb57600080fd5b600b54965086955060055494508493503492505b6000831180156108e0575060008414155b156109d457600460008581526020019081526020016000205491506109288261091a670de0b6b3a76400008661150c90919063ffffffff16565b61154790919063ffffffff16565b90508361093e828861156290919063ffffffff16565b11156109b557610995610986670de0b6b3a76400006109788561096a8b8a61158090919063ffffffff16565b61150c90919063ffffffff16565b61154790919063ffffffff16565b8461158090919063ffffffff16565b9250839550600360008581526020019081526020016000205493506109cf565b600092506109cc818761156290919063ffffffff16565b95505b6108cf565b83851415156109e557836005819055505b8587141515610b4457610a52610a04888861158090919063ffffffff16565b600660003373ffffffffffffffffffffffffffffffffffffffff1673ffffffffffffffffffffffffffffffffffffffff1681526020019081526020016000205461156290919063ffffffff16565b600660003373ffffffffffffffffffffffffffffffffffffffff1673ffffffffffffffffffffffffffffffffffffffff16815260200190815260200160002081905550610af9610aab843461158090919063ffffffff16565b600760003373ffffffffffffffffffffffffffffffffffffffff1673ffffffffffffffffffffffffffffffffffffffff1681526020019081526020016000205461156290919063ffffffff16565b600760003373ffffffffffffffffffffffffffffffffffffffff1673ffffffffffffffffffffffffffffffffffffffff1681526020019081526020016000208190555085600b819055505b6000831115610b95573373ffffffffffffffffffffffffffffffffffffffff166108fc849081150290604051600060405180830381858888f19350505050158015610b93573d6000803e3d6000fd5b505b3373ffffffffffffffffffffffffffffffffffffffff167ff464123490dc166d6baa19aa737c29f15b3aebdf44f48937e30b5b481900f7d6610be0853461158090919063ffffffff16565b6040518082815260200191505060405180910390a2600197505050505050505090565b6000806000806000600660008873ffffffffffffffffffffffffffffffffffffffff1673ffffffffffffffffffffffffffffffffffffffff168152602001908152602001600020549350600860008873ffffffffffffffffffffffffffffffffffffffff1673ffffffffffffffffffffffffffffffffffffffff16815260200190815260200160002054925085610ca3848661158090919063ffffffff16565b10151515610cb057600080fd5b600760008873ffffffffffffffffffffffffffffffffffffffff1673ffffffffffffffffffffffffffffffffffffffff168152602001908152602001600020549150610d1784610d09888561150c90919063ffffffff16565b61154790919063ffffffff16565b9050610d2c868561158090919063ffffffff16565b600660008973ffffffffffffffffffffffffffffffffffffffff1673ffffffffffffffffffffffffffffffffffffffff16815260200190815260200160002081905550610d82818361158090919063ffffffff16565b600760008973ffffffffffffffffffffffffffffffffffffffff1673ffffffffffffffffffffffffffffffffffffffff16815260200190815260200160002081905550610dda86600b5461158090919063ffffffff16565b600b819055508673ffffffffffffffffffffffffffffffffffffffff166108fc829081150290604051600060405180830381858888f19350505050158015610e26573d6000803e3d6000fd5b50600194505050505092915050565b6000610ec8600860008473ffffffffffffffffffffffffffffffffffffffff1673ffffffffffffffffffffffffffffffffffffffff16815260200190815260200160002054600660008573ffffffffffffffffffffffffffffffffffffffff1673ffffffffffffffffffffffffffffffffffffffff1681526020019081526020016000205461158090919063ffffffff16565b9050919050565b600080610edb84610e35565b9050828110151515610eec57600080fd5b610f3e83600860008773ffffffffffffffffffffffffffffffffffffffff1673ffffffffffffffffffffffffffffffffffffffff1681526020019081526020016000205461156290919063ffffffff16565b600860008673ffffffffffffffffffffffffffffffffffffffff1673ffffffffffffffffffffffffffffffffffffffff168152602001908152602001600020819055508373ffffffffffffffffffffffffffffffffffffffff167fd777ee46b5c5e9bff9903e5b77152b900a28b55ea90ea99766fa3b5237f970f6846040518082815260200191505060405180910390a2610fd98484611599565b91505092915050565b600b5481565b600080610ff36116a3565b9050600460ff168160ff1614151561100a57600080fd5b611013836116f7565b915050919050565b6000611025610856565b905090565b6000611034611834565b905090565b600080611044610856565b9050600460ff168160ff1614151561105b57600080fd5b6110653384610c03565b915050919050565b600080600061107a6116a3565b9150611084610856565b9050600860ff168160ff1614151561109b57600080fd5b600460ff168260ff1614806110b65750600860ff168260ff16145b15156110c157600080fd5b6110cb8585611840565b9250505092915050565b6000601060008373ffffffffffffffffffffffffffffffffffffffff1673ffffffffffffffffffffffffffffffffffffffff16815260200190815260200160002060009054906101000a900460ff169050919050565b6000806000611138610856565b91506111426116a3565b9050600460ff168160ff16148061115f5750600860ff168160ff16145b151561116a57600080fd5b600460ff168260ff1614806111855750600160ff168260ff16145b151561119057600080fd5b61119a8585610c03565b9250505092915050565b6000806111af610856565b9050600160ff168160ff161415156111c657600080fd5b6111ce61089e565b91505090565b600c5481565b60005481565b600e5481565b60025481565b601360009054906101000a900473ffffffffffffffffffffffffffffffffffffffff1681565b600042820360128190555060019050919050565b600061123182611958565b9050919050565b600d5481565b600080611249610856565b9050600860ff168160ff1614151561126057600080fd5b61126a3384610ecf565b915050919050565b60008160126000828254019250508190555060019050919050565b600061129882610e35565b9050919050565b60008060006112ac6116a3565b91506112b6610856565b9050600460ff168260ff1614806112d35750600860ff168260ff16145b15156112de57600080fd5b600060ff168160ff161415156112f357600080fd5b6112fc84611b11565b92505050919050565b60008060006113126116a3565b915061131c610856565b9050600860ff168160ff1614151561133357600080fd5b600460ff168260ff16148061134e5750600860ff168260ff16145b151561135957600080fd5b6113638585610ecf565b9250505092915050565b60015481565b6000806000600c54915081611386611834565b039050600082141561139b57600092506113c6565b600d548110156113ae57600192506113c6565b600e548110156113c157600892506113c6565b601092505b505090565b6000806113d6611b59565b90506113e0611b63565b8110156113f0576001915061140d565b6113f8611b6d565b811015611408576002915061140d565b600491505b5090565b60008060ff168414156114275760009050611505565b600160ff1684141561149057600160ff1683141561145d57600460ff168214156114545760089050611505565b60019050611505565b600160ff168214156114725760049050611505565b600860ff168314156114875760089050611505565b60109050611505565b600460ff168414156114c857600160ff168314806114b15750600860ff1683145b156114bf5760049050611505565b60109050611505565b600860ff1684141561150057600160ff168314806114e95750600860ff1683145b156114f75760089050611505565b60109050611505565b601090505b9392505050565b60008060008414156115215760009150611540565b828402905082848281151561153257fe5b0414151561153c57fe5b8091505b5092915050565b600080828481151561155557fe5b0490508091505092915050565b600080828401905083811015151561157657fe5b8091505092915050565b600082821115151561158e57fe5b818303905092915050565b6000601360009054906101000a900473ffffffffffffffffffffffffffffffffffffffff1673ffffffffffffffffffffffffffffffffffffffff1663a9059cbb84846040518363ffffffff167c0100000000000000000000000000000000000000000000000000000000028152600401808373ffffffffffffffffffffffffffffffffffffffff1673ffffffffffffffffffffffffffffffffffffffff16815260200182815260200192505050602060405180830381600087803b15801561166057600080fd5b505af1158015611674573d6000803e3d6000fd5b505050506040513d602081101561168a57600080fd5b8101908080519060200190929190505050905092915050565b6000601060003373ffffffffffffffffffffffffffffffffffffffff1673ffffffffffffffffffffffffffffffffffffffff16815260200190815260200160002060009054906101000a900460ff16905090565b6000601360009054906101000a900473ffffffffffffffffffffffffffffffffffffffff1673ffffffffffffffffffffffffffffffffffffffff166323b872dd3330856040518463ffffffff167c0100000000000000000000000000000000000000000000000000000000028152600401808473ffffffffffffffffffffffffffffffffffffffff1673ffffffffffffffffffffffffffffffffffffffff1681526020018373ffffffffffffffffffffffffffffffffffffffff1673ffffffffffffffffffffffffffffffffffffffff1681526020018281526020019350505050602060405180830381600087803b1580156117f257600080fd5b505af1158015611806573d6000803e3d6000fd5b505050506040513d602081101561181c57600080fd5b81019080805190602001909291905050509050919050565b60004260125401905090565b600080600061184e85611b77565b915083821015151561185f57600080fd5b61188b84600960008860ff1660ff1681526020019081526020016000205461156290919063ffffffff16565b600960008760ff1660ff168152602001908152602001600020819055506118b185611bcd565b90508073ffffffffffffffffffffffffffffffffffffffff166108fc859081150290604051600060405180830381858888f193505050501580156118f9573d6000803e3d6000fd5b508073ffffffffffffffffffffffffffffffffffffffff168560ff167f0fd79c527d8fff6ba27289ff9bf7bf508210c1b8503799ff89bba54447848e8c866040518082815260200191505060405180910390a360019250505092915050565b600080600080600080600f60009054906101000a900460ff1660ff16945061197e611373565b60ff16935061198b6113cb565b60ff16925061199b858585611411565b91506119a56116a3565b9050600160ff16871415611a3557600460ff168160ff1614806119ce5750600860ff168160ff16145b80156119e05750600060ff168260ff16145b15611a30576119ed611b63565b6119f5611c10565b101515611a2f57611a04611834565b600c819055506001600f60006101000a81548160ff021916908360ff16021790555060019550611b07565b5b600080fd5b600860ff16871415611a9a57600460ff168160ff161480611a5c5750600860ff168160ff16145b8015611a6b5750600260ff1683145b15611a95576008600f60006101000a81548160ff021916908360ff16021790555060019550611b07565b600080fd5b600460ff16871415611b0257600460ff168160ff161480611ac15750600860ff168160ff16145b8015611ad35750600160ff168260ff16145b15611afd576004600f60006101000a81548160ff021916908360ff16021790555060019550611b07565b600080fd5b600080fd5b5050505050919050565b600081601360006101000a81548173ffffffffffffffffffffffffffffffffffffffff021916908373ffffffffffffffffffffffffffffffffffffffff160217905550919050565b6000600b54905090565b6000600154905090565b6000600254905090565b6000600460ff168260ff16141515611b925760009050611bc8565b600960008360ff1660ff168152602001908152602001600020543073ffffffffffffffffffffffffffffffffffffffff16310390505b919050565b6000601160008360ff1660ff16815260200190815260200160002060009054906101000a900473ffffffffffffffffffffffffffffffffffffffff169050919050565b6000601360009054906101000a900473ffffffffffffffffffffffffffffffffffffffff1673ffffffffffffffffffffffffffffffffffffffff166370a08231306040518263ffffffff167c0100000000000000000000000000000000000000000000000000000000028152600401808273ffffffffffffffffffffffffffffffffffffffff1673ffffffffffffffffffffffffffffffffffffffff168152602001915050602060405180830381600087803b158015611ccf57600080fd5b505af1158015611ce3573d6000803e3d6000fd5b505050506040513d6020811015611cf957600080fd5b81019080805190602001909291905050509050905600a165627a7a72305820929706d511a1243a79a168e21731c0da0b8332efed22c86851c2a68a77a48b6a0029",
  "source": "pragma solidity ^0.4.23;\n\nimport \"../../abstract/ISAO/ISAO.sol\";\nimport \"../../abstract/TimeMachine/TimeMachineT.sol\";\nimport \"../../abstract/Cassette/ERC20Cassette.sol\";\n\ncontract ISAOTest is ISAO, TimeMachineT, ERC20Cassette {\n  uint constant DECIMAL_MULTIPLIER = 1e18;\n\n  event CostStairs(uint[] limits, uint[] costs);\n  \n  constructor(uint _raisingPeriod, \n              uint _distributionPeriod, \n              uint _minimalFundSize, \n              uint[] _limits, \n              uint[] _costs,\n              uint _minimalDeposit,\n              address _paybotAddress) public {\n    raisingPeriod = _raisingPeriod;\n    distributionPeriod = _distributionPeriod;\n\n    minimalDeposit = _minimalDeposit;\n    setCosts_(_minimalFundSize, _limits, _costs);\n\n    setRole_(RL_ADMIN, msg.sender);\n    setRole_(RL_PAYBOT, _paybotAddress);\n    emit CostStairs(_limits, _costs);\n  }\n}",
  "sourcePath": "E:\\WORK\\BNKX-POA\\ISAO\\contracts\\testing\\ISAOTest\\ISAOTest.sol",
  "compiler": {
    "name": "solc",
    "version": "0.4.23+commit.124ca40d.Emscripten.clang"
  },
  "schemaVersion": "2.0.0",
  "updatedAt": "2018-06-16T17:52:08.600Z"
}