{
  "contractName": "ISAOTest",
  "abi": [
    {
      "constant": true,
      "inputs": [],
      "name": "totalShare",
      "outputs": [
        {
          "name": "",
          "type": "uint256"
        }
      ],
      "payable": false,
      "stateMutability": "view",
      "type": "function"
    },
    {
      "constant": false,
      "inputs": [
        {
          "name": "_value",
          "type": "uint256"
        }
      ],
      "name": "acceptAbstractToken",
      "outputs": [
        {
          "name": "",
          "type": "bool"
        }
      ],
      "payable": false,
      "stateMutability": "nonpayable",
      "type": "function"
    },
    {
      "constant": true,
      "inputs": [],
      "name": "getState",
      "outputs": [
        {
          "name": "",
          "type": "uint8"
        }
      ],
      "payable": false,
      "stateMutability": "view",
      "type": "function"
    },
    {
      "constant": false,
      "inputs": [
        {
          "name": "_value",
          "type": "uint256"
        }
      ],
      "name": "refundShare",
      "outputs": [
        {
          "name": "",
          "type": "bool"
        }
      ],
      "payable": false,
      "stateMutability": "nonpayable",
      "type": "function"
    },
    {
      "constant": false,
      "inputs": [
        {
          "name": "_for",
          "type": "uint8"
        },
        {
          "name": "_value",
          "type": "uint256"
        }
      ],
      "name": "releaseEtherToStakeholderForce",
      "outputs": [
        {
          "name": "",
          "type": "bool"
        }
      ],
      "payable": false,
      "stateMutability": "nonpayable",
      "type": "function"
    },
    {
      "constant": true,
      "inputs": [
        {
          "name": "_targetAddress",
          "type": "address"
        }
      ],
      "name": "getRole",
      "outputs": [
        {
          "name": "",
          "type": "uint8"
        }
      ],
      "payable": false,
      "stateMutability": "view",
      "type": "function"
    },
    {
      "constant": false,
      "inputs": [
        {
          "name": "_for",
          "type": "address"
        },
        {
          "name": "_value",
          "type": "uint256"
        }
      ],
      "name": "refundShareForce",
      "outputs": [
        {
          "name": "",
          "type": "bool"
        }
      ],
      "payable": false,
      "stateMutability": "nonpayable",
      "type": "function"
    },
    {
      "constant": false,
      "inputs": [],
      "name": "buyShare",
      "outputs": [
        {
          "name": "",
          "type": "bool"
        }
      ],
      "payable": true,
      "stateMutability": "payable",
      "type": "function"
    },
    {
      "constant": true,
      "inputs": [],
      "name": "launchTimestamp",
      "outputs": [
        {
          "name": "",
          "type": "uint256"
        }
      ],
      "payable": false,
      "stateMutability": "view",
      "type": "function"
    },
    {
      "constant": true,
      "inputs": [],
      "name": "minimalDeposit",
      "outputs": [
        {
          "name": "",
          "type": "uint256"
        }
      ],
      "payable": false,
      "stateMutability": "view",
      "type": "function"
    },
    {
      "constant": true,
      "inputs": [],
      "name": "distributionPeriod",
      "outputs": [
        {
          "name": "",
          "type": "uint256"
        }
      ],
      "payable": false,
      "stateMutability": "view",
      "type": "function"
    },
    {
      "constant": true,
      "inputs": [],
      "name": "maximalFundSize",
      "outputs": [
        {
          "name": "",
          "type": "uint256"
        }
      ],
      "payable": false,
      "stateMutability": "view",
      "type": "function"
    },
    {
      "constant": true,
      "inputs": [],
      "name": "tokenAddress",
      "outputs": [
        {
          "name": "",
          "type": "address"
        }
      ],
      "payable": false,
      "stateMutability": "view",
      "type": "function"
    },
    {
      "constant": false,
      "inputs": [
        {
          "name": "_time",
          "type": "uint256"
        }
      ],
      "name": "setTimestamp",
      "outputs": [
        {
          "name": "",
          "type": "bool"
        }
      ],
      "payable": false,
      "stateMutability": "nonpayable",
      "type": "function"
    },
    {
      "constant": false,
      "inputs": [
        {
          "name": "newState",
          "type": "uint256"
        }
      ],
      "name": "setState",
      "outputs": [
        {
          "name": "",
          "type": "bool"
        }
      ],
      "payable": false,
      "stateMutability": "nonpayable",
      "type": "function"
    },
    {
      "constant": true,
      "inputs": [],
      "name": "raisingPeriod",
      "outputs": [
        {
          "name": "",
          "type": "uint256"
        }
      ],
      "payable": false,
      "stateMutability": "view",
      "type": "function"
    },
    {
      "constant": false,
      "inputs": [
        {
          "name": "_value",
          "type": "uint256"
        }
      ],
      "name": "releaseToken",
      "outputs": [
        {
          "name": "",
          "type": "bool"
        }
      ],
      "payable": false,
      "stateMutability": "nonpayable",
      "type": "function"
    },
    {
      "constant": false,
      "inputs": [
        {
          "name": "_dTime",
          "type": "uint256"
        }
      ],
      "name": "incTimestamp",
      "outputs": [
        {
          "name": "",
          "type": "bool"
        }
      ],
      "payable": false,
      "stateMutability": "nonpayable",
      "type": "function"
    },
    {
      "constant": true,
      "inputs": [
        {
          "name": "_for",
          "type": "address"
        }
      ],
      "name": "getBalanceTokenOf",
      "outputs": [
        {
          "name": "",
          "type": "uint256"
        }
      ],
      "payable": false,
      "stateMutability": "view",
      "type": "function"
    },
    {
      "constant": false,
      "inputs": [
        {
          "name": "_tokenAddress",
          "type": "address"
        }
      ],
      "name": "setERC20Token",
      "outputs": [
        {
          "name": "",
          "type": "bool"
        }
      ],
      "payable": false,
      "stateMutability": "nonpayable",
      "type": "function"
    },
    {
      "constant": false,
      "inputs": [
        {
          "name": "_for",
          "type": "address"
        },
        {
          "name": "_value",
          "type": "uint256"
        }
      ],
      "name": "releaseTokenForce",
      "outputs": [
        {
          "name": "",
          "type": "bool"
        }
      ],
      "payable": false,
      "stateMutability": "nonpayable",
      "type": "function"
    },
    {
      "constant": true,
      "inputs": [],
      "name": "minimalFundSize",
      "outputs": [
        {
          "name": "",
          "type": "uint256"
        }
      ],
      "payable": false,
      "stateMutability": "view",
      "type": "function"
    },
    {
      "inputs": [
        {
          "name": "_raisingPeriod",
          "type": "uint256"
        },
        {
          "name": "_distributionPeriod",
          "type": "uint256"
        },
        {
          "name": "_minimalFundSize",
          "type": "uint256"
        },
        {
          "name": "_limits",
          "type": "uint256[]"
        },
        {
          "name": "_costs",
          "type": "uint256[]"
        },
        {
          "name": "_minimalDeposit",
          "type": "uint256"
        },
        {
          "name": "_paybotAddress",
          "type": "address"
        }
      ],
      "payable": false,
      "stateMutability": "nonpayable",
      "type": "constructor"
    },
    {
      "payable": true,
      "stateMutability": "payable",
      "type": "fallback"
    },
    {
      "anonymous": false,
      "inputs": [
        {
          "indexed": false,
          "name": "limits",
          "type": "uint256[]"
        },
        {
          "indexed": false,
          "name": "costs",
          "type": "uint256[]"
        }
      ],
      "name": "CostStairs",
      "type": "event"
    },
    {
      "anonymous": false,
      "inputs": [
        {
          "indexed": true,
          "name": "addr",
          "type": "address"
        },
        {
          "indexed": false,
          "name": "value",
          "type": "uint256"
        }
      ],
      "name": "BuyShare",
      "type": "event"
    },
    {
      "anonymous": false,
      "inputs": [
        {
          "indexed": true,
          "name": "addr",
          "type": "address"
        },
        {
          "indexed": false,
          "name": "value",
          "type": "uint256"
        }
      ],
      "name": "RefundShare",
      "type": "event"
    },
    {
      "anonymous": false,
      "inputs": [
        {
          "indexed": true,
          "name": "role",
          "type": "uint8"
        },
        {
          "indexed": true,
          "name": "addr",
          "type": "address"
        },
        {
          "indexed": false,
          "name": "value",
          "type": "uint256"
        }
      ],
      "name": "ReleaseEtherToStakeholder",
      "type": "event"
    },
    {
      "anonymous": false,
      "inputs": [
        {
          "indexed": true,
          "name": "role",
          "type": "uint8"
        },
        {
          "indexed": true,
          "name": "addr",
          "type": "address"
        },
        {
          "indexed": false,
          "name": "value",
          "type": "uint256"
        }
      ],
      "name": "ReleaseTokenToStakeholder",
      "type": "event"
    },
    {
      "anonymous": false,
      "inputs": [
        {
          "indexed": true,
          "name": "addr",
          "type": "address"
        },
        {
          "indexed": false,
          "name": "value",
          "type": "uint256"
        }
      ],
      "name": "ReleaseEther",
      "type": "event"
    },
    {
      "anonymous": false,
      "inputs": [
        {
          "indexed": true,
          "name": "addr",
          "type": "address"
        },
        {
          "indexed": false,
          "name": "value",
          "type": "uint256"
        }
      ],
      "name": "ReleaseToken",
      "type": "event"
    }
  ],
  "bytecode": "0x60806040523480156200001157600080fd5b50604051620021c0380380620021c08339810180604052810190808051906020019092919080519060200190929190805190602001909291908051820192919060200180518201929190602001805190602001909291908051906020019092919050505086600d8190555085600e8190555081600081905550620000a6858585620001b3640100000000026401000000009004565b50620000c360043362000332640100000000026401000000009004565b50620000e060088262000332640100000000026401000000009004565b507f32a77d339835f060f74fc1d2d71394f25f6a037e3acd20e875be312f92deaf6f8484604051808060200180602001838103835285818151815260200191508051906020019060200280838360005b838110156200014d57808201518184015260208101905062000130565b50505050905001838103825284818151815260200191508051906020019060200280838360005b838110156200019157808201518184015260208101905062000174565b5050505090500194505050505060405180910390a150505050505050620004ba565b600080600084519150835182141515620001cc57600080fd5b600082111515620001dc57600080fd5b600090505b600182038110156200028e578460018201815181101515620001ff57fe5b906020019060200201516003600087848151811015156200021c57fe5b9060200190602002015181526020019081526020016000208190555083818151811015156200024757fe5b906020019060200201516004600087848151811015156200026457fe5b906020019060200201518152602001908152602001600020819055508080600101915050620001e1565b8360018303815181101515620002a057fe5b90602001906020020151600460008760018603815181101515620002c057fe5b90602001906020020151815260200190815260200160002081905550846000815181101515620002ec57fe5b906020019060200201516005819055508560018190555084600183038151811015156200031557fe5b906020019060200201516002819055506001925050509392505050565b600080601060008473ffffffffffffffffffffffffffffffffffffffff1673ffffffffffffffffffffffffffffffffffffffff16815260200190815260200160002060009054906101000a900460ff1660ff16148015620003f85750600073ffffffffffffffffffffffffffffffffffffffff16601160008560ff1660ff16815260200190815260200160002060009054906101000a900473ffffffffffffffffffffffffffffffffffffffff1673ffffffffffffffffffffffffffffffffffffffff16145b15156200040457600080fd5b82601060008473ffffffffffffffffffffffffffffffffffffffff1673ffffffffffffffffffffffffffffffffffffffff16815260200190815260200160002060006101000a81548160ff021916908360ff16021790555081601160008560ff1660ff16815260200190815260200160002060006101000a81548173ffffffffffffffffffffffffffffffffffffffff021916908373ffffffffffffffffffffffffffffffffffffffff16021790555092915050565b611cf680620004ca6000396000f300608060405260043610610128576000357c0100000000000000000000000000000000000000000000000000000000900463ffffffff168063026c4207146102805780630b43a09e146102ab5780631865c57d146102f05780632229fdf41461032157806331d98d211461036657806344276733146103b85780634aea6232146104155780634da13c2e1461047a57806365cf7c9b1461049c5780636fe4d97a146104c75780639b501723146104f25780639d12bf0a1461051d5780639d76ea5814610548578063a0a2b5731461059f578063a9e966b7146105e4578063afd54d8214610629578063b54d623814610654578063c173f24514610699578063dc08826d146106de578063de56248714610735578063e20d82df14610790578063ed48ee3d146107f5575b6000610132610820565b9050600160ff168160ff1614156101515761014b610868565b5061027d565b600460ff168160ff161415610200576101a933600660003373ffffffffffffffffffffffffffffffffffffffff1673ffffffffffffffffffffffffffffffffffffffff16815260200190815260200160002054610bcd565b5060003411156101fb573373ffffffffffffffffffffffffffffffffffffffff166108fc349081150290604051600060405180830381858888f193505050501580156101f9573d6000803e3d6000fd5b505b61027d565b600860ff168160ff161415610278576102213361021c33610dff565b610e99565b506000341115610273573373ffffffffffffffffffffffffffffffffffffffff166108fc349081150290604051600060405180830381858888f19350505050158015610271573d6000803e3d6000fd5b505b61027d565b600080fd5b50005b34801561028c57600080fd5b50610295610fac565b6040518082815260200191505060405180910390f35b3480156102b757600080fd5b506102d660048036038101908080359060200190929190505050610fb2565b604051808215151515815260200191505060405180910390f35b3480156102fc57600080fd5b50610305610fe5565b604051808260ff1660ff16815260200191505060405180910390f35b34801561032d57600080fd5b5061034c60048036038101908080359060200190929190505050610ff4565b604051808215151515815260200191505060405180910390f35b34801561037257600080fd5b5061039e600480360381019080803560ff16906020019092919080359060200190929190505050611028565b604051808215151515815260200191505060405180910390f35b3480156103c457600080fd5b506103f9600480360381019080803573ffffffffffffffffffffffffffffffffffffffff169060200190929190505050611090565b604051808260ff1660ff16815260200191505060405180910390f35b34801561042157600080fd5b50610460600480360381019080803573ffffffffffffffffffffffffffffffffffffffff169060200190929190803590602001909291905050506110e6565b604051808215151515815260200191505060405180910390f35b61048261115f565b604051808215151515815260200191505060405180910390f35b3480156104a857600080fd5b506104b161118f565b6040518082815260200191505060405180910390f35b3480156104d357600080fd5b506104dc611195565b6040518082815260200191505060405180910390f35b3480156104fe57600080fd5b5061050761119b565b6040518082815260200191505060405180910390f35b34801561052957600080fd5b506105326111a1565b6040518082815260200191505060405180910390f35b34801561055457600080fd5b5061055d6111a7565b604051808273ffffffffffffffffffffffffffffffffffffffff1673ffffffffffffffffffffffffffffffffffffffff16815260200191505060405180910390f35b3480156105ab57600080fd5b506105ca600480360381019080803590602001909291905050506111cd565b604051808215151515815260200191505060405180910390f35b3480156105f057600080fd5b5061060f600480360381019080803590602001909291905050506111e1565b604051808215151515815260200191505060405180910390f35b34801561063557600080fd5b5061063e6111f3565b6040518082815260200191505060405180910390f35b34801561066057600080fd5b5061067f600480360381019080803590602001909291905050506111f9565b604051808215151515815260200191505060405180910390f35b3480156106a557600080fd5b506106c46004803603810190808035906020019092919050505061122d565b604051808215151515815260200191505060405180910390f35b3480156106ea57600080fd5b5061071f600480360381019080803573ffffffffffffffffffffffffffffffffffffffff169060200190929190505050611248565b6040518082815260200191505060405180910390f35b34801561074157600080fd5b50610776600480360381019080803573ffffffffffffffffffffffffffffffffffffffff16906020019092919050505061125a565b604051808215151515815260200191505060405180910390f35b34801561079c57600080fd5b506107db600480360381019080803573ffffffffffffffffffffffffffffffffffffffff169060200190929190803590602001909291905050506112c0565b604051808215151515815260200191505060405180910390f35b34801561080157600080fd5b5061080a611328565b6040518082815260200191505060405180910390f35b600080600080600f60009054906101000a900460ff1660ff16925061084361132e565b60ff169150610850611386565b60ff1690506108608383836113cc565b935050505090565b600080600080600080600080600054341015151561088557600080fd5b600b54965086955060055494508493503492505b6000831180156108aa575060008414155b1561099e57600460008581526020019081526020016000205491506108f2826108e4670de0b6b3a7640000866114c790919063ffffffff16565b61150290919063ffffffff16565b905083610908828861151d90919063ffffffff16565b111561097f5761095f610950670de0b6b3a7640000610942856109348b8a61153b90919063ffffffff16565b6114c790919063ffffffff16565b61150290919063ffffffff16565b8461153b90919063ffffffff16565b925083955060036000858152602001908152602001600020549350610999565b60009250610996818761151d90919063ffffffff16565b95505b610899565b83851415156109af57836005819055505b8587141515610b0e57610a1c6109ce888861153b90919063ffffffff16565b600660003373ffffffffffffffffffffffffffffffffffffffff1673ffffffffffffffffffffffffffffffffffffffff1681526020019081526020016000205461151d90919063ffffffff16565b600660003373ffffffffffffffffffffffffffffffffffffffff1673ffffffffffffffffffffffffffffffffffffffff16815260200190815260200160002081905550610ac3610a75843461153b90919063ffffffff16565b600760003373ffffffffffffffffffffffffffffffffffffffff1673ffffffffffffffffffffffffffffffffffffffff1681526020019081526020016000205461151d90919063ffffffff16565b600760003373ffffffffffffffffffffffffffffffffffffffff1673ffffffffffffffffffffffffffffffffffffffff1681526020019081526020016000208190555085600b819055505b6000831115610b5f573373ffffffffffffffffffffffffffffffffffffffff166108fc849081150290604051600060405180830381858888f19350505050158015610b5d573d6000803e3d6000fd5b505b3373ffffffffffffffffffffffffffffffffffffffff167ff464123490dc166d6baa19aa737c29f15b3aebdf44f48937e30b5b481900f7d6610baa853461153b90919063ffffffff16565b6040518082815260200191505060405180910390a2600197505050505050505090565b6000806000806000600660008873ffffffffffffffffffffffffffffffffffffffff1673ffffffffffffffffffffffffffffffffffffffff168152602001908152602001600020549350600860008873ffffffffffffffffffffffffffffffffffffffff1673ffffffffffffffffffffffffffffffffffffffff16815260200190815260200160002054925085610c6d848661153b90919063ffffffff16565b10151515610c7a57600080fd5b600760008873ffffffffffffffffffffffffffffffffffffffff1673ffffffffffffffffffffffffffffffffffffffff168152602001908152602001600020549150610ce184610cd388856114c790919063ffffffff16565b61150290919063ffffffff16565b9050610cf6868561153b90919063ffffffff16565b600660008973ffffffffffffffffffffffffffffffffffffffff1673ffffffffffffffffffffffffffffffffffffffff16815260200190815260200160002081905550610d4c818361153b90919063ffffffff16565b600760008973ffffffffffffffffffffffffffffffffffffffff1673ffffffffffffffffffffffffffffffffffffffff16815260200190815260200160002081905550610da486600b5461153b90919063ffffffff16565b600b819055508673ffffffffffffffffffffffffffffffffffffffff166108fc829081150290604051600060405180830381858888f19350505050158015610df0573d6000803e3d6000fd5b50600194505050505092915050565b6000610e92600860008473ffffffffffffffffffffffffffffffffffffffff1673ffffffffffffffffffffffffffffffffffffffff16815260200190815260200160002054600660008573ffffffffffffffffffffffffffffffffffffffff1673ffffffffffffffffffffffffffffffffffffffff1681526020019081526020016000205461153b90919063ffffffff16565b9050919050565b600080610ea584610dff565b9050828110151515610eb657600080fd5b610f0883600860008773ffffffffffffffffffffffffffffffffffffffff1673ffffffffffffffffffffffffffffffffffffffff1681526020019081526020016000205461151d90919063ffffffff16565b600860008673ffffffffffffffffffffffffffffffffffffffff1673ffffffffffffffffffffffffffffffffffffffff168152602001908152602001600020819055508373ffffffffffffffffffffffffffffffffffffffff167fd777ee46b5c5e9bff9903e5b77152b900a28b55ea90ea99766fa3b5237f970f6846040518082815260200191505060405180910390a2610fa38484611554565b91505092915050565b600b5481565b600080610fbd61165e565b9050600460ff168160ff16141515610fd457600080fd5b610fdd836116b2565b915050919050565b6000610fef610820565b905090565b600080610fff610820565b9050600460ff168160ff1614151561101657600080fd5b6110203384610bcd565b915050919050565b600080600061103561165e565b915061103f610820565b9050600860ff168160ff1614151561105657600080fd5b600460ff168260ff1614806110715750600860ff168260ff16145b151561107c57600080fd5b61108685856117ef565b9250505092915050565b6000601060008373ffffffffffffffffffffffffffffffffffffffff1673ffffffffffffffffffffffffffffffffffffffff16815260200190815260200160002060009054906101000a900460ff169050919050565b60008060006110f3610820565b91506110fd61165e565b9050600460ff168160ff16148061111a5750600860ff168160ff16145b151561112557600080fd5b600460ff168260ff1614806111405750600160ff168260ff16145b151561114b57600080fd5b6111558585610bcd565b9250505092915050565b60008061116a610820565b9050600160ff168160ff1614151561118157600080fd5b611189610868565b91505090565b600c5481565b60005481565b600e5481565b60025481565b601360009054906101000a900473ffffffffffffffffffffffffffffffffffffffff1681565b600042820360128190555060019050919050565b60006111ec82611907565b9050919050565b600d5481565b600080611204610820565b9050600860ff168160ff1614151561121b57600080fd5b6112253384610e99565b915050919050565b60008160126000828254019250508190555060019050919050565b600061125382610dff565b9050919050565b600080600061126761165e565b9150611271610820565b9050600460ff168260ff16148061128e5750600860ff168260ff16145b151561129957600080fd5b600060ff168160ff161415156112ae57600080fd5b6112b784611ac0565b92505050919050565b60008060006112cd61165e565b91506112d7610820565b9050600860ff168160ff161415156112ee57600080fd5b600460ff168260ff1614806113095750600860ff168260ff16145b151561131457600080fd5b61131e8585610e99565b9250505092915050565b60015481565b6000806000600c54915081611341611b08565b03905060008214156113565760009250611381565b600d548110156113695760019250611381565b600e5481101561137c5760089250611381565b601092505b505090565b600080611391611b14565b905061139b611b1e565b8110156113ab57600191506113c8565b6113b3611b28565b8110156113c357600291506113c8565b600491505b5090565b60008060ff168414156113e257600090506114c0565b600160ff1684141561144b57600160ff1683141561141857600460ff1682141561140f57600890506114c0565b600190506114c0565b600160ff1682141561142d57600490506114c0565b600860ff1683141561144257600890506114c0565b601090506114c0565b600460ff1684141561148357600160ff1683148061146c5750600860ff1683145b1561147a57600490506114c0565b601090506114c0565b600860ff168414156114bb57600160ff168314806114a45750600860ff1683145b156114b257600890506114c0565b601090506114c0565b601090505b9392505050565b60008060008414156114dc57600091506114fb565b82840290508284828115156114ed57fe5b041415156114f757fe5b8091505b5092915050565b600080828481151561151057fe5b0490508091505092915050565b600080828401905083811015151561153157fe5b8091505092915050565b600082821115151561154957fe5b818303905092915050565b6000601360009054906101000a900473ffffffffffffffffffffffffffffffffffffffff1673ffffffffffffffffffffffffffffffffffffffff1663a9059cbb84846040518363ffffffff167c0100000000000000000000000000000000000000000000000000000000028152600401808373ffffffffffffffffffffffffffffffffffffffff1673ffffffffffffffffffffffffffffffffffffffff16815260200182815260200192505050602060405180830381600087803b15801561161b57600080fd5b505af115801561162f573d6000803e3d6000fd5b505050506040513d602081101561164557600080fd5b8101908080519060200190929190505050905092915050565b6000601060003373ffffffffffffffffffffffffffffffffffffffff1673ffffffffffffffffffffffffffffffffffffffff16815260200190815260200160002060009054906101000a900460ff16905090565b6000601360009054906101000a900473ffffffffffffffffffffffffffffffffffffffff1673ffffffffffffffffffffffffffffffffffffffff166323b872dd3330856040518463ffffffff167c0100000000000000000000000000000000000000000000000000000000028152600401808473ffffffffffffffffffffffffffffffffffffffff1673ffffffffffffffffffffffffffffffffffffffff1681526020018373ffffffffffffffffffffffffffffffffffffffff1673ffffffffffffffffffffffffffffffffffffffff1681526020018281526020019350505050602060405180830381600087803b1580156117ad57600080fd5b505af11580156117c1573d6000803e3d6000fd5b505050506040513d60208110156117d757600080fd5b81019080805190602001909291905050509050919050565b60008060006117fd85611b32565b915083821015151561180e57600080fd5b61183a84600960008860ff1660ff1681526020019081526020016000205461151d90919063ffffffff16565b600960008760ff1660ff1681526020019081526020016000208190555061186085611b88565b90508073ffffffffffffffffffffffffffffffffffffffff166108fc859081150290604051600060405180830381858888f193505050501580156118a8573d6000803e3d6000fd5b508073ffffffffffffffffffffffffffffffffffffffff168560ff167f0fd79c527d8fff6ba27289ff9bf7bf508210c1b8503799ff89bba54447848e8c866040518082815260200191505060405180910390a360019250505092915050565b600080600080600080600f60009054906101000a900460ff1660ff16945061192d61132e565b60ff16935061193a611386565b60ff16925061194a8585856113cc565b915061195461165e565b9050600160ff168714156119e457600460ff168160ff16148061197d5750600860ff168160ff16145b801561198f5750600060ff168260ff16145b156119df5761199c611b1e565b6119a4611bcb565b1015156119de576119b3611b08565b600c819055506001600f60006101000a81548160ff021916908360ff16021790555060019550611ab6565b5b600080fd5b600860ff16871415611a4957600460ff168160ff161480611a0b5750600860ff168160ff16145b8015611a1a5750600260ff1683145b15611a44576008600f60006101000a81548160ff021916908360ff16021790555060019550611ab6565b600080fd5b600460ff16871415611ab157600460ff168160ff161480611a705750600860ff168160ff16145b8015611a825750600160ff168260ff16145b15611aac576004600f60006101000a81548160ff021916908360ff16021790555060019550611ab6565b600080fd5b600080fd5b5050505050919050565b600081601360006101000a81548173ffffffffffffffffffffffffffffffffffffffff021916908373ffffffffffffffffffffffffffffffffffffffff160217905550919050565b60004260125401905090565b6000600b54905090565b6000600154905090565b6000600254905090565b6000600460ff168260ff16141515611b4d5760009050611b83565b600960008360ff1660ff168152602001908152602001600020543073ffffffffffffffffffffffffffffffffffffffff16310390505b919050565b6000601160008360ff1660ff16815260200190815260200160002060009054906101000a900473ffffffffffffffffffffffffffffffffffffffff169050919050565b6000601360009054906101000a900473ffffffffffffffffffffffffffffffffffffffff1673ffffffffffffffffffffffffffffffffffffffff166370a08231306040518263ffffffff167c0100000000000000000000000000000000000000000000000000000000028152600401808273ffffffffffffffffffffffffffffffffffffffff1673ffffffffffffffffffffffffffffffffffffffff168152602001915050602060405180830381600087803b158015611c8a57600080fd5b505af1158015611c9e573d6000803e3d6000fd5b505050506040513d6020811015611cb457600080fd5b81019080805190602001909291905050509050905600a165627a7a723058202daf369bf5616561296984ff337fd101cc381f394a76c4ca458701bf950662620029",
  "source": "pragma solidity ^0.4.23;\n\nimport \"../../abstract/ISAO/ISAO.sol\";\nimport \"../../abstract/TimeMachine/TimeMachineT.sol\";\nimport \"../../abstract/Cassette/ERC20Cassette.sol\";\n\ncontract ISAOTest is ISAO, TimeMachineT, ERC20Cassette {\n  uint constant DECIMAL_MULTIPLIER = 1e18;\n\n  event CostStairs(uint[] limits, uint[] costs);\n  \n  constructor(uint _raisingPeriod, \n              uint _distributionPeriod, \n              uint _minimalFundSize, \n              uint[] _limits, \n              uint[] _costs,\n              uint _minimalDeposit,\n              address _paybotAddress) public {\n    raisingPeriod = _raisingPeriod;\n    distributionPeriod = _distributionPeriod;\n\n    minimalDeposit = _minimalDeposit;\n    setCosts_(_minimalFundSize, _limits, _costs);\n\n    setRole_(RL_ADMIN, msg.sender);\n    setRole_(RL_PAYBOT, _paybotAddress);\n    emit CostStairs(_limits, _costs);\n  }\n}",
  "sourcePath": "E:\\WORK\\BNKX-POA\\ISAO\\contracts\\testing\\ISAOTest\\ISAOTest.sol",
  "compiler": {
    "name": "solc",
    "version": "0.4.23+commit.124ca40d.Emscripten.clang"
  },
  "schemaVersion": "2.0.0",
  "updatedAt": "2018-06-15T19:57:38.849Z"
}