{
  "contractName": "ISAOTest",
  "abi": [
    {
      "constant": true,
      "inputs": [],
      "name": "totalShare",
      "outputs": [
        {
          "name": "",
          "type": "uint256"
        }
      ],
      "payable": false,
      "stateMutability": "view",
      "type": "function"
    },
    {
      "constant": false,
      "inputs": [
        {
          "name": "_value",
          "type": "uint256"
        }
      ],
      "name": "acceptAbstractToken",
      "outputs": [
        {
          "name": "",
          "type": "bool"
        }
      ],
      "payable": false,
      "stateMutability": "nonpayable",
      "type": "function"
    },
    {
      "constant": true,
      "inputs": [],
      "name": "getState",
      "outputs": [
        {
          "name": "",
          "type": "uint8"
        }
      ],
      "payable": false,
      "stateMutability": "view",
      "type": "function"
    },
    {
      "constant": true,
      "inputs": [],
      "name": "getTimestamp",
      "outputs": [
        {
          "name": "",
          "type": "uint256"
        }
      ],
      "payable": false,
      "stateMutability": "view",
      "type": "function"
    },
    {
      "constant": false,
      "inputs": [
        {
          "name": "_value",
          "type": "uint256"
        }
      ],
      "name": "refundShare",
      "outputs": [
        {
          "name": "",
          "type": "bool"
        }
      ],
      "payable": false,
      "stateMutability": "nonpayable",
      "type": "function"
    },
    {
      "constant": false,
      "inputs": [
        {
          "name": "_for",
          "type": "uint8"
        },
        {
          "name": "_value",
          "type": "uint256"
        }
      ],
      "name": "releaseEtherToStakeholderForce",
      "outputs": [
        {
          "name": "",
          "type": "bool"
        }
      ],
      "payable": false,
      "stateMutability": "nonpayable",
      "type": "function"
    },
    {
      "constant": true,
      "inputs": [
        {
          "name": "_targetAddress",
          "type": "address"
        }
      ],
      "name": "getRole",
      "outputs": [
        {
          "name": "",
          "type": "uint8"
        }
      ],
      "payable": false,
      "stateMutability": "view",
      "type": "function"
    },
    {
      "constant": false,
      "inputs": [
        {
          "name": "_for",
          "type": "address"
        },
        {
          "name": "_value",
          "type": "uint256"
        }
      ],
      "name": "refundShareForce",
      "outputs": [
        {
          "name": "",
          "type": "bool"
        }
      ],
      "payable": false,
      "stateMutability": "nonpayable",
      "type": "function"
    },
    {
      "constant": false,
      "inputs": [],
      "name": "buyShare",
      "outputs": [
        {
          "name": "",
          "type": "bool"
        }
      ],
      "payable": true,
      "stateMutability": "payable",
      "type": "function"
    },
    {
      "constant": true,
      "inputs": [],
      "name": "launchTimestamp",
      "outputs": [
        {
          "name": "",
          "type": "uint256"
        }
      ],
      "payable": false,
      "stateMutability": "view",
      "type": "function"
    },
    {
      "constant": true,
      "inputs": [],
      "name": "minimalDeposit",
      "outputs": [
        {
          "name": "",
          "type": "uint256"
        }
      ],
      "payable": false,
      "stateMutability": "view",
      "type": "function"
    },
    {
      "constant": true,
      "inputs": [],
      "name": "distributionPeriod",
      "outputs": [
        {
          "name": "",
          "type": "uint256"
        }
      ],
      "payable": false,
      "stateMutability": "view",
      "type": "function"
    },
    {
      "constant": true,
      "inputs": [],
      "name": "maximalFundSize",
      "outputs": [
        {
          "name": "",
          "type": "uint256"
        }
      ],
      "payable": false,
      "stateMutability": "view",
      "type": "function"
    },
    {
      "constant": true,
      "inputs": [],
      "name": "tokenAddress",
      "outputs": [
        {
          "name": "",
          "type": "address"
        }
      ],
      "payable": false,
      "stateMutability": "view",
      "type": "function"
    },
    {
      "constant": false,
      "inputs": [
        {
          "name": "_time",
          "type": "uint256"
        }
      ],
      "name": "setTimestamp",
      "outputs": [
        {
          "name": "",
          "type": "bool"
        }
      ],
      "payable": false,
      "stateMutability": "nonpayable",
      "type": "function"
    },
    {
      "constant": false,
      "inputs": [
        {
          "name": "newState",
          "type": "uint256"
        }
      ],
      "name": "setState",
      "outputs": [
        {
          "name": "",
          "type": "bool"
        }
      ],
      "payable": false,
      "stateMutability": "nonpayable",
      "type": "function"
    },
    {
      "constant": true,
      "inputs": [],
      "name": "raisingPeriod",
      "outputs": [
        {
          "name": "",
          "type": "uint256"
        }
      ],
      "payable": false,
      "stateMutability": "view",
      "type": "function"
    },
    {
      "constant": false,
      "inputs": [
        {
          "name": "_value",
          "type": "uint256"
        }
      ],
      "name": "releaseToken",
      "outputs": [
        {
          "name": "",
          "type": "bool"
        }
      ],
      "payable": false,
      "stateMutability": "nonpayable",
      "type": "function"
    },
    {
      "constant": false,
      "inputs": [
        {
          "name": "_to",
          "type": "address"
        },
        {
          "name": "_value",
          "type": "uint256"
        },
        {
          "name": "_data",
          "type": "bytes"
        }
      ],
      "name": "execute",
      "outputs": [
        {
          "name": "",
          "type": "bool"
        }
      ],
      "payable": false,
      "stateMutability": "nonpayable",
      "type": "function"
    },
    {
      "constant": false,
      "inputs": [
        {
          "name": "_dTime",
          "type": "uint256"
        }
      ],
      "name": "incTimestamp",
      "outputs": [
        {
          "name": "",
          "type": "bool"
        }
      ],
      "payable": false,
      "stateMutability": "nonpayable",
      "type": "function"
    },
    {
      "constant": true,
      "inputs": [
        {
          "name": "_for",
          "type": "address"
        }
      ],
      "name": "getBalanceTokenOf",
      "outputs": [
        {
          "name": "",
          "type": "uint256"
        }
      ],
      "payable": false,
      "stateMutability": "view",
      "type": "function"
    },
    {
      "constant": false,
      "inputs": [
        {
          "name": "_tokenAddress",
          "type": "address"
        }
      ],
      "name": "setERC20Token",
      "outputs": [
        {
          "name": "",
          "type": "bool"
        }
      ],
      "payable": false,
      "stateMutability": "nonpayable",
      "type": "function"
    },
    {
      "constant": false,
      "inputs": [
        {
          "name": "_for",
          "type": "address"
        },
        {
          "name": "_value",
          "type": "uint256"
        }
      ],
      "name": "releaseTokenForce",
      "outputs": [
        {
          "name": "",
          "type": "bool"
        }
      ],
      "payable": false,
      "stateMutability": "nonpayable",
      "type": "function"
    },
    {
      "constant": true,
      "inputs": [],
      "name": "minimalFundSize",
      "outputs": [
        {
          "name": "",
          "type": "uint256"
        }
      ],
      "payable": false,
      "stateMutability": "view",
      "type": "function"
    },
    {
      "inputs": [
        {
          "name": "_raisingPeriod",
          "type": "uint256"
        },
        {
          "name": "_distributionPeriod",
          "type": "uint256"
        },
        {
          "name": "_minimalFundSize",
          "type": "uint256"
        },
        {
          "name": "_limits",
          "type": "uint256[]"
        },
        {
          "name": "_costs",
          "type": "uint256[]"
        },
        {
          "name": "_minimalDeposit",
          "type": "uint256"
        },
        {
          "name": "_adminAddress",
          "type": "address"
        },
        {
          "name": "_paybotAddress",
          "type": "address"
        }
      ],
      "payable": false,
      "stateMutability": "nonpayable",
      "type": "constructor"
    },
    {
      "payable": true,
      "stateMutability": "payable",
      "type": "fallback"
    },
    {
      "anonymous": false,
      "inputs": [
        {
          "indexed": false,
          "name": "limits",
          "type": "uint256[]"
        },
        {
          "indexed": false,
          "name": "costs",
          "type": "uint256[]"
        }
      ],
      "name": "CostStairs",
      "type": "event"
    },
    {
      "anonymous": false,
      "inputs": [
        {
          "indexed": true,
          "name": "addr",
          "type": "address"
        },
        {
          "indexed": false,
          "name": "value",
          "type": "uint256"
        }
      ],
      "name": "BuyShare",
      "type": "event"
    },
    {
      "anonymous": false,
      "inputs": [
        {
          "indexed": true,
          "name": "addr",
          "type": "address"
        },
        {
          "indexed": false,
          "name": "value",
          "type": "uint256"
        }
      ],
      "name": "RefundShare",
      "type": "event"
    },
    {
      "anonymous": false,
      "inputs": [
        {
          "indexed": true,
          "name": "role",
          "type": "uint8"
        },
        {
          "indexed": true,
          "name": "addr",
          "type": "address"
        },
        {
          "indexed": false,
          "name": "value",
          "type": "uint256"
        }
      ],
      "name": "ReleaseEtherToStakeholder",
      "type": "event"
    },
    {
      "anonymous": false,
      "inputs": [
        {
          "indexed": true,
          "name": "role",
          "type": "uint8"
        },
        {
          "indexed": true,
          "name": "addr",
          "type": "address"
        },
        {
          "indexed": false,
          "name": "value",
          "type": "uint256"
        }
      ],
      "name": "ReleaseTokenToStakeholder",
      "type": "event"
    },
    {
      "anonymous": false,
      "inputs": [
        {
          "indexed": true,
          "name": "addr",
          "type": "address"
        },
        {
          "indexed": false,
          "name": "value",
          "type": "uint256"
        }
      ],
      "name": "ReleaseEther",
      "type": "event"
    },
    {
      "anonymous": false,
      "inputs": [
        {
          "indexed": true,
          "name": "addr",
          "type": "address"
        },
        {
          "indexed": false,
          "name": "value",
          "type": "uint256"
        }
      ],
      "name": "ReleaseToken",
      "type": "event"
    }
  ],
  "bytecode": "0x60806040523480156200001157600080fd5b506040516200232a3803806200232a833981018060405281019080805190602001909291908051906020019092919080519060200190929190805182019291906020018051820192919060200180519060200190929190805190602001909291908051906020019092919050505087600d8190555086600e8190555082600081905550620000b0868686620001be640100000000026401000000009004565b50620000cd6004836200033d640100000000026401000000009004565b50620000ea6008826200033d640100000000026401000000009004565b507f32a77d339835f060f74fc1d2d71394f25f6a037e3acd20e875be312f92deaf6f8585604051808060200180602001838103835285818151815260200191508051906020019060200280838360005b83811015620001575780820151818401526020810190506200013a565b50505050905001838103825284818151815260200191508051906020019060200280838360005b838110156200019b5780820151818401526020810190506200017e565b5050505090500194505050505060405180910390a15050505050505050620004c5565b600080600084519150835182141515620001d757600080fd5b600082111515620001e757600080fd5b600090505b60018203811015620002995784600182018151811015156200020a57fe5b906020019060200201516003600087848151811015156200022757fe5b9060200190602002015181526020019081526020016000208190555083818151811015156200025257fe5b906020019060200201516004600087848151811015156200026f57fe5b906020019060200201518152602001908152602001600020819055508080600101915050620001ec565b8360018303815181101515620002ab57fe5b90602001906020020151600460008760018603815181101515620002cb57fe5b90602001906020020151815260200190815260200160002081905550846000815181101515620002f757fe5b906020019060200201516005819055508560018190555084600183038151811015156200032057fe5b906020019060200201516002819055506001925050509392505050565b600080601060008473ffffffffffffffffffffffffffffffffffffffff1673ffffffffffffffffffffffffffffffffffffffff16815260200190815260200160002060009054906101000a900460ff1660ff16148015620004035750600073ffffffffffffffffffffffffffffffffffffffff16601160008560ff1660ff16815260200190815260200160002060009054906101000a900473ffffffffffffffffffffffffffffffffffffffff1673ffffffffffffffffffffffffffffffffffffffff16145b15156200040f57600080fd5b82601060008473ffffffffffffffffffffffffffffffffffffffff1673ffffffffffffffffffffffffffffffffffffffff16815260200190815260200160002060006101000a81548160ff021916908360ff16021790555081601160008560ff1660ff16815260200190815260200160002060006101000a81548173ffffffffffffffffffffffffffffffffffffffff021916908373ffffffffffffffffffffffffffffffffffffffff16021790555092915050565b611e5580620004d56000396000f30060806040526004361061013e576000357c0100000000000000000000000000000000000000000000000000000000900463ffffffff168063026c4207146102965780630b43a09e146102c15780631865c57d14610306578063188ec356146103375780632229fdf41461036257806331d98d21146103a757806344276733146103f95780634aea6232146104565780634da13c2e146104bb57806365cf7c9b146104dd5780636fe4d97a146105085780639b501723146105335780639d12bf0a1461055e5780639d76ea5814610589578063a0a2b573146105e0578063a9e966b714610625578063afd54d821461066a578063b54d623814610695578063b61d27f6146106da578063c173f24514610757578063dc08826d1461079c578063de562487146107f3578063e20d82df1461084e578063ed48ee3d146108b3575b60006101486108de565b9050600160ff168160ff16141561016757610161610926565b50610293565b600460ff168160ff161415610216576101bf33600660003373ffffffffffffffffffffffffffffffffffffffff1673ffffffffffffffffffffffffffffffffffffffff16815260200190815260200160002054610c8b565b506000341115610211573373ffffffffffffffffffffffffffffffffffffffff166108fc349081150290604051600060405180830381858888f1935050505015801561020f573d6000803e3d6000fd5b505b610293565b600860ff168160ff16141561028e576102373361023233610ebd565b610f57565b506000341115610289573373ffffffffffffffffffffffffffffffffffffffff166108fc349081150290604051600060405180830381858888f19350505050158015610287573d6000803e3d6000fd5b505b610293565b600080fd5b50005b3480156102a257600080fd5b506102ab61106a565b6040518082815260200191505060405180910390f35b3480156102cd57600080fd5b506102ec60048036038101908080359060200190929190505050611070565b604051808215151515815260200191505060405180910390f35b34801561031257600080fd5b5061031b6110a3565b604051808260ff1660ff16815260200191505060405180910390f35b34801561034357600080fd5b5061034c6110b2565b6040518082815260200191505060405180910390f35b34801561036e57600080fd5b5061038d600480360381019080803590602001909291905050506110c1565b604051808215151515815260200191505060405180910390f35b3480156103b357600080fd5b506103df600480360381019080803560ff169060200190929190803590602001909291905050506110f5565b604051808215151515815260200191505060405180910390f35b34801561040557600080fd5b5061043a600480360381019080803573ffffffffffffffffffffffffffffffffffffffff16906020019092919050505061115d565b604051808260ff1660ff16815260200191505060405180910390f35b34801561046257600080fd5b506104a1600480360381019080803573ffffffffffffffffffffffffffffffffffffffff169060200190929190803590602001909291905050506111b3565b604051808215151515815260200191505060405180910390f35b6104c361122c565b604051808215151515815260200191505060405180910390f35b3480156104e957600080fd5b506104f261125c565b6040518082815260200191505060405180910390f35b34801561051457600080fd5b5061051d611262565b6040518082815260200191505060405180910390f35b34801561053f57600080fd5b50610548611268565b6040518082815260200191505060405180910390f35b34801561056a57600080fd5b5061057361126e565b6040518082815260200191505060405180910390f35b34801561059557600080fd5b5061059e611274565b604051808273ffffffffffffffffffffffffffffffffffffffff1673ffffffffffffffffffffffffffffffffffffffff16815260200191505060405180910390f35b3480156105ec57600080fd5b5061060b6004803603810190808035906020019092919050505061129a565b604051808215151515815260200191505060405180910390f35b34801561063157600080fd5b50610650600480360381019080803590602001909291905050506112ae565b604051808215151515815260200191505060405180910390f35b34801561067657600080fd5b5061067f6112c0565b6040518082815260200191505060405180910390f35b3480156106a157600080fd5b506106c0600480360381019080803590602001909291905050506112c6565b604051808215151515815260200191505060405180910390f35b3480156106e657600080fd5b5061073d600480360381019080803573ffffffffffffffffffffffffffffffffffffffff169060200190929190803590602001909291908035906020019082018035906020019190919293919293905050506112fa565b604051808215151515815260200191505060405180910390f35b34801561076357600080fd5b506107826004803603810190808035906020019092919050505061137c565b604051808215151515815260200191505060405180910390f35b3480156107a857600080fd5b506107dd600480360381019080803573ffffffffffffffffffffffffffffffffffffffff169060200190929190505050611397565b6040518082815260200191505060405180910390f35b3480156107ff57600080fd5b50610834600480360381019080803573ffffffffffffffffffffffffffffffffffffffff1690602001909291905050506113a9565b604051808215151515815260200191505060405180910390f35b34801561085a57600080fd5b50610899600480360381019080803573ffffffffffffffffffffffffffffffffffffffff1690602001909291908035906020019092919050505061140f565b604051808215151515815260200191505060405180910390f35b3480156108bf57600080fd5b506108c8611477565b6040518082815260200191505060405180910390f35b600080600080600f60009054906101000a900460ff1660ff16925061090161147d565b60ff16915061090e6114e5565b60ff16905061091e83838361152b565b935050505090565b600080600080600080600080600054341015151561094357600080fd5b600b54965086955060055494508493503492505b600083118015610968575060008414155b15610a5c57600460008581526020019081526020016000205491506109b0826109a2670de0b6b3a76400008661162690919063ffffffff16565b61166190919063ffffffff16565b9050836109c6828861167c90919063ffffffff16565b1115610a3d57610a1d610a0e670de0b6b3a7640000610a00856109f28b8a61169a90919063ffffffff16565b61162690919063ffffffff16565b61166190919063ffffffff16565b8461169a90919063ffffffff16565b925083955060036000858152602001908152602001600020549350610a57565b60009250610a54818761167c90919063ffffffff16565b95505b610957565b8385141515610a6d57836005819055505b8587141515610bcc57610ada610a8c888861169a90919063ffffffff16565b600660003373ffffffffffffffffffffffffffffffffffffffff1673ffffffffffffffffffffffffffffffffffffffff1681526020019081526020016000205461167c90919063ffffffff16565b600660003373ffffffffffffffffffffffffffffffffffffffff1673ffffffffffffffffffffffffffffffffffffffff16815260200190815260200160002081905550610b81610b33843461169a90919063ffffffff16565b600760003373ffffffffffffffffffffffffffffffffffffffff1673ffffffffffffffffffffffffffffffffffffffff1681526020019081526020016000205461167c90919063ffffffff16565b600760003373ffffffffffffffffffffffffffffffffffffffff1673ffffffffffffffffffffffffffffffffffffffff1681526020019081526020016000208190555085600b819055505b6000831115610c1d573373ffffffffffffffffffffffffffffffffffffffff166108fc849081150290604051600060405180830381858888f19350505050158015610c1b573d6000803e3d6000fd5b505b3373ffffffffffffffffffffffffffffffffffffffff167ff464123490dc166d6baa19aa737c29f15b3aebdf44f48937e30b5b481900f7d6610c68853461169a90919063ffffffff16565b6040518082815260200191505060405180910390a2600197505050505050505090565b6000806000806000600660008873ffffffffffffffffffffffffffffffffffffffff1673ffffffffffffffffffffffffffffffffffffffff168152602001908152602001600020549350600860008873ffffffffffffffffffffffffffffffffffffffff1673ffffffffffffffffffffffffffffffffffffffff16815260200190815260200160002054925085610d2b848661169a90919063ffffffff16565b10151515610d3857600080fd5b600760008873ffffffffffffffffffffffffffffffffffffffff1673ffffffffffffffffffffffffffffffffffffffff168152602001908152602001600020549150610d9f84610d91888561162690919063ffffffff16565b61166190919063ffffffff16565b9050610db4868561169a90919063ffffffff16565b600660008973ffffffffffffffffffffffffffffffffffffffff1673ffffffffffffffffffffffffffffffffffffffff16815260200190815260200160002081905550610e0a818361169a90919063ffffffff16565b600760008973ffffffffffffffffffffffffffffffffffffffff1673ffffffffffffffffffffffffffffffffffffffff16815260200190815260200160002081905550610e6286600b5461169a90919063ffffffff16565b600b819055508673ffffffffffffffffffffffffffffffffffffffff166108fc829081150290604051600060405180830381858888f19350505050158015610eae573d6000803e3d6000fd5b50600194505050505092915050565b6000610f50600860008473ffffffffffffffffffffffffffffffffffffffff1673ffffffffffffffffffffffffffffffffffffffff16815260200190815260200160002054600660008573ffffffffffffffffffffffffffffffffffffffff1673ffffffffffffffffffffffffffffffffffffffff1681526020019081526020016000205461169a90919063ffffffff16565b9050919050565b600080610f6384610ebd565b9050828110151515610f7457600080fd5b610fc683600860008773ffffffffffffffffffffffffffffffffffffffff1673ffffffffffffffffffffffffffffffffffffffff1681526020019081526020016000205461167c90919063ffffffff16565b600860008673ffffffffffffffffffffffffffffffffffffffff1673ffffffffffffffffffffffffffffffffffffffff168152602001908152602001600020819055508373ffffffffffffffffffffffffffffffffffffffff167fd777ee46b5c5e9bff9903e5b77152b900a28b55ea90ea99766fa3b5237f970f6846040518082815260200191505060405180910390a261106184846116b3565b91505092915050565b600b5481565b60008061107b6117bd565b9050600460ff168160ff1614151561109257600080fd5b61109b83611811565b915050919050565b60006110ad6108de565b905090565b60006110bc61194e565b905090565b6000806110cc6108de565b9050600460ff168160ff161415156110e357600080fd5b6110ed3384610c8b565b915050919050565b60008060006111026117bd565b915061110c6108de565b9050600860ff168160ff1614151561112357600080fd5b600460ff168260ff16148061113e5750600860ff168260ff16145b151561114957600080fd5b611153858561195a565b9250505092915050565b6000601060008373ffffffffffffffffffffffffffffffffffffffff1673ffffffffffffffffffffffffffffffffffffffff16815260200190815260200160002060009054906101000a900460ff169050919050565b60008060006111c06108de565b91506111ca6117bd565b9050600460ff168160ff1614806111e75750600860ff168160ff16145b15156111f257600080fd5b600460ff168260ff16148061120d5750600160ff168260ff16145b151561121857600080fd5b6112228585610c8b565b9250505092915050565b6000806112376108de565b9050600160ff168160ff1614151561124e57600080fd5b611256610926565b91505090565b600c5481565b60005481565b600e5481565b60025481565b601360009054906101000a900473ffffffffffffffffffffffffffffffffffffffff1681565b600042820360128190555060019050919050565b60006112b982611a72565b9050919050565b600d5481565b6000806112d16108de565b9050600860ff168160ff161415156112e857600080fd5b6112f23384610f57565b915050919050565b6000600460ff166113096117bd565b60ff1614151561131857600080fd5b601060ff166113256108de565b60ff1614151561133457600080fd5b8473ffffffffffffffffffffffffffffffffffffffff168484846040518083838082843782019150509250505060006040518083038185875af1925050509050949350505050565b60008160126000828254019250508190555060019050919050565b60006113a282610ebd565b9050919050565b60008060006113b66117bd565b91506113c06108de565b9050600460ff168260ff1614806113dd5750600860ff168260ff16145b15156113e857600080fd5b600060ff168160ff161415156113fd57600080fd5b61140684611c2b565b92505050919050565b600080600061141c6117bd565b91506114266108de565b9050600860ff168160ff1614151561143d57600080fd5b600460ff168260ff1614806114585750600860ff168260ff16145b151561146357600080fd5b61146d8585610f57565b9250505092915050565b60015481565b6000806000600c5491506114a18261149361194e565b61169a90919063ffffffff16565b905060008214156114b557600092506114e0565b600d548110156114c857600192506114e0565b600e548110156114db57600892506114e0565b601092505b505090565b6000806114f0611c73565b90506114fa611c7d565b81101561150a5760019150611527565b611512611c87565b8110156115225760029150611527565b600491505b5090565b60008060ff16841415611541576000905061161f565b600160ff168414156115aa57600160ff1683141561157757600460ff1682141561156e576008905061161f565b6001905061161f565b600860ff168314156115a157600160ff16821415611598576004905061161f565b6008905061161f565b6010905061161f565b600460ff168414156115e257600160ff168314806115cb5750600860ff1683145b156115d9576004905061161f565b6010905061161f565b600860ff1684141561161a57600160ff168314806116035750600860ff1683145b15611611576008905061161f565b6010905061161f565b601090505b9392505050565b600080600084141561163b576000915061165a565b828402905082848281151561164c57fe5b0414151561165657fe5b8091505b5092915050565b600080828481151561166f57fe5b0490508091505092915050565b600080828401905083811015151561169057fe5b8091505092915050565b60008282111515156116a857fe5b818303905092915050565b6000601360009054906101000a900473ffffffffffffffffffffffffffffffffffffffff1673ffffffffffffffffffffffffffffffffffffffff1663a9059cbb84846040518363ffffffff167c0100000000000000000000000000000000000000000000000000000000028152600401808373ffffffffffffffffffffffffffffffffffffffff1673ffffffffffffffffffffffffffffffffffffffff16815260200182815260200192505050602060405180830381600087803b15801561177a57600080fd5b505af115801561178e573d6000803e3d6000fd5b505050506040513d60208110156117a457600080fd5b8101908080519060200190929190505050905092915050565b6000601060003373ffffffffffffffffffffffffffffffffffffffff1673ffffffffffffffffffffffffffffffffffffffff16815260200190815260200160002060009054906101000a900460ff16905090565b6000601360009054906101000a900473ffffffffffffffffffffffffffffffffffffffff1673ffffffffffffffffffffffffffffffffffffffff166323b872dd3330856040518463ffffffff167c0100000000000000000000000000000000000000000000000000000000028152600401808473ffffffffffffffffffffffffffffffffffffffff1673ffffffffffffffffffffffffffffffffffffffff1681526020018373ffffffffffffffffffffffffffffffffffffffff1673ffffffffffffffffffffffffffffffffffffffff1681526020018281526020019350505050602060405180830381600087803b15801561190c57600080fd5b505af1158015611920573d6000803e3d6000fd5b505050506040513d602081101561193657600080fd5b81019080805190602001909291905050509050919050565b60004260125401905090565b600080600061196885611c91565b915083821015151561197957600080fd5b6119a584600960008860ff1660ff1681526020019081526020016000205461167c90919063ffffffff16565b600960008760ff1660ff168152602001908152602001600020819055506119cb85611ce7565b90508073ffffffffffffffffffffffffffffffffffffffff166108fc859081150290604051600060405180830381858888f19350505050158015611a13573d6000803e3d6000fd5b508073ffffffffffffffffffffffffffffffffffffffff168560ff167f0fd79c527d8fff6ba27289ff9bf7bf508210c1b8503799ff89bba54447848e8c866040518082815260200191505060405180910390a360019250505092915050565b600080600080600080600f60009054906101000a900460ff1660ff169450611a9861147d565b60ff169350611aa56114e5565b60ff169250611ab585858561152b565b9150611abf6117bd565b9050600160ff16871415611b4f57600460ff168160ff161480611ae85750600860ff168160ff16145b8015611afa5750600060ff168260ff16145b15611b4a57611b07611c87565b611b0f611d2a565b101515611b4957611b1e61194e565b600c819055506001600f60006101000a81548160ff021916908360ff16021790555060019550611c21565b5b600080fd5b600860ff16871415611bb457600460ff168160ff161480611b765750600860ff168160ff16145b8015611b855750600260ff1683145b15611baf576008600f60006101000a81548160ff021916908360ff16021790555060019550611c21565b600080fd5b600460ff16871415611c1c57600460ff168160ff161480611bdb5750600860ff168160ff16145b8015611bed5750600160ff168260ff16145b15611c17576004600f60006101000a81548160ff021916908360ff16021790555060019550611c21565b600080fd5b600080fd5b5050505050919050565b600081601360006101000a81548173ffffffffffffffffffffffffffffffffffffffff021916908373ffffffffffffffffffffffffffffffffffffffff160217905550919050565b6000600b54905090565b6000600154905090565b6000600254905090565b6000600460ff168260ff16141515611cac5760009050611ce2565b600960008360ff1660ff168152602001908152602001600020543073ffffffffffffffffffffffffffffffffffffffff16310390505b919050565b6000601160008360ff1660ff16815260200190815260200160002060009054906101000a900473ffffffffffffffffffffffffffffffffffffffff169050919050565b6000601360009054906101000a900473ffffffffffffffffffffffffffffffffffffffff1673ffffffffffffffffffffffffffffffffffffffff166370a08231306040518263ffffffff167c0100000000000000000000000000000000000000000000000000000000028152600401808273ffffffffffffffffffffffffffffffffffffffff1673ffffffffffffffffffffffffffffffffffffffff168152602001915050602060405180830381600087803b158015611de957600080fd5b505af1158015611dfd573d6000803e3d6000fd5b505050506040513d6020811015611e1357600080fd5b81019080805190602001909291905050509050905600a165627a7a723058202ad351d07f0c8740e5db08bc1e640ebb550368dc3d16c745843946591fbcbafb0029",
  "source": "pragma solidity ^0.4.23;\n\nimport \"../../abstract/ISAO/ISAO.sol\";\nimport \"../../abstract/TimeMachine/TimeMachineT.sol\";\nimport \"../../abstract/Cassette/ERC20Cassette.sol\";\n\ncontract ISAOTest is ISAO, TimeMachineT, ERC20Cassette {\n  event CostStairs(uint[] limits, uint[] costs);\n  \n  constructor(uint _raisingPeriod, \n              uint _distributionPeriod, \n              uint _minimalFundSize,\n              uint[] _limits, \n              uint[] _costs,\n              uint _minimalDeposit,\n              address _adminAddress,\n              address _paybotAddress) public {\n    raisingPeriod = _raisingPeriod;\n    distributionPeriod = _distributionPeriod;\n    minimalDeposit = _minimalDeposit;\n    setCosts_(_minimalFundSize, _limits, _costs);\n    setRole_(RL_ADMIN, _adminAddress);\n    setRole_(RL_PAYBOT, _paybotAddress);\n    emit CostStairs(_limits, _costs);\n  }\n}",
  "sourcePath": "E:\\WORK\\BNKX-POA\\ISAO\\contracts\\testing\\ISAOTest\\ISAOTest.sol",
  "compiler": {
    "name": "solc",
    "version": "0.4.23+commit.124ca40d.Emscripten.clang"
  },
  "schemaVersion": "2.0.0",
  "updatedAt": "2018-06-22T17:16:10.109Z"
}