{
  "contractName": "ISAOTest2",
  "abi": [
    {
      "constant": true,
      "inputs": [],
      "name": "totalShare",
      "outputs": [
        {
          "name": "",
          "type": "uint256"
        }
      ],
      "payable": false,
      "stateMutability": "view",
      "type": "function"
    },
    {
      "constant": false,
      "inputs": [
        {
          "name": "_value",
          "type": "uint256"
        }
      ],
      "name": "acceptAbstractToken",
      "outputs": [
        {
          "name": "",
          "type": "bool"
        }
      ],
      "payable": false,
      "stateMutability": "nonpayable",
      "type": "function"
    },
    {
      "constant": true,
      "inputs": [],
      "name": "getState",
      "outputs": [
        {
          "name": "",
          "type": "uint8"
        }
      ],
      "payable": false,
      "stateMutability": "view",
      "type": "function"
    },
    {
      "constant": true,
      "inputs": [],
      "name": "getTimestamp",
      "outputs": [
        {
          "name": "",
          "type": "uint256"
        }
      ],
      "payable": false,
      "stateMutability": "view",
      "type": "function"
    },
    {
      "constant": false,
      "inputs": [
        {
          "name": "_value",
          "type": "uint256"
        }
      ],
      "name": "refundShare",
      "outputs": [
        {
          "name": "",
          "type": "bool"
        }
      ],
      "payable": false,
      "stateMutability": "nonpayable",
      "type": "function"
    },
    {
      "constant": false,
      "inputs": [
        {
          "name": "_for",
          "type": "uint8"
        },
        {
          "name": "_value",
          "type": "uint256"
        }
      ],
      "name": "releaseEtherToStakeholderForce",
      "outputs": [
        {
          "name": "",
          "type": "bool"
        }
      ],
      "payable": false,
      "stateMutability": "nonpayable",
      "type": "function"
    },
    {
      "constant": true,
      "inputs": [
        {
          "name": "_targetAddress",
          "type": "address"
        }
      ],
      "name": "getRole",
      "outputs": [
        {
          "name": "",
          "type": "uint8"
        }
      ],
      "payable": false,
      "stateMutability": "view",
      "type": "function"
    },
    {
      "constant": false,
      "inputs": [
        {
          "name": "_for",
          "type": "address"
        },
        {
          "name": "_value",
          "type": "uint256"
        }
      ],
      "name": "refundShareForce",
      "outputs": [
        {
          "name": "",
          "type": "bool"
        }
      ],
      "payable": false,
      "stateMutability": "nonpayable",
      "type": "function"
    },
    {
      "constant": false,
      "inputs": [],
      "name": "buyShare",
      "outputs": [
        {
          "name": "",
          "type": "bool"
        }
      ],
      "payable": true,
      "stateMutability": "payable",
      "type": "function"
    },
    {
      "constant": true,
      "inputs": [],
      "name": "launchTimestamp",
      "outputs": [
        {
          "name": "",
          "type": "uint256"
        }
      ],
      "payable": false,
      "stateMutability": "view",
      "type": "function"
    },
    {
      "constant": true,
      "inputs": [],
      "name": "minimalDeposit",
      "outputs": [
        {
          "name": "",
          "type": "uint256"
        }
      ],
      "payable": false,
      "stateMutability": "view",
      "type": "function"
    },
    {
      "constant": true,
      "inputs": [],
      "name": "distributionPeriod",
      "outputs": [
        {
          "name": "",
          "type": "uint256"
        }
      ],
      "payable": false,
      "stateMutability": "view",
      "type": "function"
    },
    {
      "constant": true,
      "inputs": [],
      "name": "maximalFundSize",
      "outputs": [
        {
          "name": "",
          "type": "uint256"
        }
      ],
      "payable": false,
      "stateMutability": "view",
      "type": "function"
    },
    {
      "constant": true,
      "inputs": [],
      "name": "tokenAddress",
      "outputs": [
        {
          "name": "",
          "type": "address"
        }
      ],
      "payable": false,
      "stateMutability": "view",
      "type": "function"
    },
    {
      "constant": false,
      "inputs": [
        {
          "name": "_time",
          "type": "uint256"
        }
      ],
      "name": "setTimestamp",
      "outputs": [
        {
          "name": "",
          "type": "bool"
        }
      ],
      "payable": false,
      "stateMutability": "nonpayable",
      "type": "function"
    },
    {
      "constant": false,
      "inputs": [
        {
          "name": "newState",
          "type": "uint256"
        }
      ],
      "name": "setState",
      "outputs": [
        {
          "name": "",
          "type": "bool"
        }
      ],
      "payable": false,
      "stateMutability": "nonpayable",
      "type": "function"
    },
    {
      "constant": true,
      "inputs": [],
      "name": "raisingPeriod",
      "outputs": [
        {
          "name": "",
          "type": "uint256"
        }
      ],
      "payable": false,
      "stateMutability": "view",
      "type": "function"
    },
    {
      "constant": false,
      "inputs": [
        {
          "name": "_value",
          "type": "uint256"
        }
      ],
      "name": "releaseToken",
      "outputs": [
        {
          "name": "",
          "type": "bool"
        }
      ],
      "payable": false,
      "stateMutability": "nonpayable",
      "type": "function"
    },
    {
      "constant": false,
      "inputs": [
        {
          "name": "_dTime",
          "type": "uint256"
        }
      ],
      "name": "incTimestamp",
      "outputs": [
        {
          "name": "",
          "type": "bool"
        }
      ],
      "payable": false,
      "stateMutability": "nonpayable",
      "type": "function"
    },
    {
      "constant": true,
      "inputs": [
        {
          "name": "_for",
          "type": "address"
        }
      ],
      "name": "getBalanceTokenOf",
      "outputs": [
        {
          "name": "",
          "type": "uint256"
        }
      ],
      "payable": false,
      "stateMutability": "view",
      "type": "function"
    },
    {
      "constant": false,
      "inputs": [
        {
          "name": "_tokenAddress",
          "type": "address"
        }
      ],
      "name": "setERC20Token",
      "outputs": [
        {
          "name": "",
          "type": "bool"
        }
      ],
      "payable": false,
      "stateMutability": "nonpayable",
      "type": "function"
    },
    {
      "constant": false,
      "inputs": [
        {
          "name": "_for",
          "type": "address"
        },
        {
          "name": "_value",
          "type": "uint256"
        }
      ],
      "name": "releaseTokenForce",
      "outputs": [
        {
          "name": "",
          "type": "bool"
        }
      ],
      "payable": false,
      "stateMutability": "nonpayable",
      "type": "function"
    },
    {
      "constant": true,
      "inputs": [],
      "name": "minimalFundSize",
      "outputs": [
        {
          "name": "",
          "type": "uint256"
        }
      ],
      "payable": false,
      "stateMutability": "view",
      "type": "function"
    },
    {
      "inputs": [
        {
          "name": "_raisingPeriod",
          "type": "uint256"
        },
        {
          "name": "_distributionPeriod",
          "type": "uint256"
        },
        {
          "name": "_minimalFundSize",
          "type": "uint256"
        },
        {
          "name": "_limits",
          "type": "uint256[]"
        },
        {
          "name": "_costs",
          "type": "uint256[]"
        },
        {
          "name": "_minimalDeposit",
          "type": "uint256"
        },
        {
          "name": "_adminAddress",
          "type": "address"
        },
        {
          "name": "_paybotAddress",
          "type": "address"
        }
      ],
      "payable": false,
      "stateMutability": "nonpayable",
      "type": "constructor"
    },
    {
      "payable": true,
      "stateMutability": "payable",
      "type": "fallback"
    },
    {
      "anonymous": false,
      "inputs": [
        {
          "indexed": false,
          "name": "limits",
          "type": "uint256[]"
        },
        {
          "indexed": false,
          "name": "costs",
          "type": "uint256[]"
        }
      ],
      "name": "CostStairs",
      "type": "event"
    },
    {
      "anonymous": false,
      "inputs": [
        {
          "indexed": true,
          "name": "addr",
          "type": "address"
        },
        {
          "indexed": false,
          "name": "value",
          "type": "uint256"
        }
      ],
      "name": "BuyShare",
      "type": "event"
    },
    {
      "anonymous": false,
      "inputs": [
        {
          "indexed": true,
          "name": "addr",
          "type": "address"
        },
        {
          "indexed": false,
          "name": "value",
          "type": "uint256"
        }
      ],
      "name": "RefundShare",
      "type": "event"
    },
    {
      "anonymous": false,
      "inputs": [
        {
          "indexed": true,
          "name": "role",
          "type": "uint8"
        },
        {
          "indexed": true,
          "name": "addr",
          "type": "address"
        },
        {
          "indexed": false,
          "name": "value",
          "type": "uint256"
        }
      ],
      "name": "ReleaseEtherToStakeholder",
      "type": "event"
    },
    {
      "anonymous": false,
      "inputs": [
        {
          "indexed": true,
          "name": "role",
          "type": "uint8"
        },
        {
          "indexed": true,
          "name": "addr",
          "type": "address"
        },
        {
          "indexed": false,
          "name": "value",
          "type": "uint256"
        }
      ],
      "name": "ReleaseTokenToStakeholder",
      "type": "event"
    },
    {
      "anonymous": false,
      "inputs": [
        {
          "indexed": true,
          "name": "addr",
          "type": "address"
        },
        {
          "indexed": false,
          "name": "value",
          "type": "uint256"
        }
      ],
      "name": "ReleaseEther",
      "type": "event"
    },
    {
      "anonymous": false,
      "inputs": [
        {
          "indexed": true,
          "name": "addr",
          "type": "address"
        },
        {
          "indexed": false,
          "name": "value",
          "type": "uint256"
        }
      ],
      "name": "ReleaseToken",
      "type": "event"
    },
    {
      "constant": false,
      "inputs": [
        {
          "name": "_tokenAddress",
          "type": "address"
        }
      ],
      "name": "init",
      "outputs": [
        {
          "name": "",
          "type": "bool"
        }
      ],
      "payable": false,
      "stateMutability": "nonpayable",
      "type": "function"
    }
  ],
  "bytecode": "0x60806040523480156200001157600080fd5b5060405162002368380380620023688339810180604052810190808051906020019092919080519060200190929190805190602001909291908051820192919060200180518201929190602001805190602001909291908051906020019092919080519060200190929190505050878787878787878787600d8190555086600e8190555082600081905550620000b8868686620001ce640100000000026401000000009004565b50620000d56004836200034d640100000000026401000000009004565b50620000f26008826200034d640100000000026401000000009004565b507f32a77d339835f060f74fc1d2d71394f25f6a037e3acd20e875be312f92deaf6f8585604051808060200180602001838103835285818151815260200191508051906020019060200280838360005b838110156200015f57808201518184015260208101905062000142565b50505050905001838103825284818151815260200191508051906020019060200280838360005b83811015620001a357808201518184015260208101905062000186565b5050505090500194505050505060405180910390a150505050505050505050505050505050620004d5565b600080600084519150835182141515620001e757600080fd5b600082111515620001f757600080fd5b600090505b60018203811015620002a95784600182018151811015156200021a57fe5b906020019060200201516003600087848151811015156200023757fe5b9060200190602002015181526020019081526020016000208190555083818151811015156200026257fe5b906020019060200201516004600087848151811015156200027f57fe5b906020019060200201518152602001908152602001600020819055508080600101915050620001fc565b8360018303815181101515620002bb57fe5b90602001906020020151600460008760018603815181101515620002db57fe5b906020019060200201518152602001908152602001600020819055508460008151811015156200030757fe5b906020019060200201516005819055508560018190555084600183038151811015156200033057fe5b906020019060200201516002819055506001925050509392505050565b600080601060008473ffffffffffffffffffffffffffffffffffffffff1673ffffffffffffffffffffffffffffffffffffffff16815260200190815260200160002060009054906101000a900460ff1660ff16148015620004135750600073ffffffffffffffffffffffffffffffffffffffff16601160008560ff1660ff16815260200190815260200160002060009054906101000a900473ffffffffffffffffffffffffffffffffffffffff1673ffffffffffffffffffffffffffffffffffffffff16145b15156200041f57600080fd5b82601060008473ffffffffffffffffffffffffffffffffffffffff1673ffffffffffffffffffffffffffffffffffffffff16815260200190815260200160002060006101000a81548160ff021916908360ff16021790555081601160008560ff1660ff16815260200190815260200160002060006101000a81548173ffffffffffffffffffffffffffffffffffffffff021916908373ffffffffffffffffffffffffffffffffffffffff16021790555092915050565b611e8380620004e56000396000f30060806040526004361061013e576000357c0100000000000000000000000000000000000000000000000000000000900463ffffffff168063026c4207146102965780630b43a09e146102c15780631865c57d14610306578063188ec3561461033757806319ab453c146103625780632229fdf4146103bd57806331d98d211461040257806344276733146104545780634aea6232146104b15780634da13c2e1461051657806365cf7c9b146105385780636fe4d97a146105635780639b5017231461058e5780639d12bf0a146105b95780639d76ea58146105e4578063a0a2b5731461063b578063a9e966b714610680578063afd54d82146106c5578063b54d6238146106f0578063c173f24514610735578063dc08826d1461077a578063de562487146107d1578063e20d82df1461082c578063ed48ee3d14610891575b60006101486108bc565b9050600160ff168160ff16141561016757610161610904565b50610293565b600460ff168160ff161415610216576101bf33600660003373ffffffffffffffffffffffffffffffffffffffff1673ffffffffffffffffffffffffffffffffffffffff16815260200190815260200160002054610c69565b506000341115610211573373ffffffffffffffffffffffffffffffffffffffff166108fc349081150290604051600060405180830381858888f1935050505015801561020f573d6000803e3d6000fd5b505b610293565b600860ff168160ff16141561028e576102373361023233610e9b565b610f35565b506000341115610289573373ffffffffffffffffffffffffffffffffffffffff166108fc349081150290604051600060405180830381858888f19350505050158015610287573d6000803e3d6000fd5b505b610293565b600080fd5b50005b3480156102a257600080fd5b506102ab611048565b6040518082815260200191505060405180910390f35b3480156102cd57600080fd5b506102ec6004803603810190808035906020019092919050505061104e565b604051808215151515815260200191505060405180910390f35b34801561031257600080fd5b5061031b611081565b604051808260ff1660ff16815260200191505060405180910390f35b34801561034357600080fd5b5061034c611090565b6040518082815260200191505060405180910390f35b34801561036e57600080fd5b506103a3600480360381019080803573ffffffffffffffffffffffffffffffffffffffff16906020019092919050505061109f565b604051808215151515815260200191505060405180910390f35b3480156103c957600080fd5b506103e860048036038101908080359060200190929190505050611171565b604051808215151515815260200191505060405180910390f35b34801561040e57600080fd5b5061043a600480360381019080803560ff169060200190929190803590602001909291905050506111a5565b604051808215151515815260200191505060405180910390f35b34801561046057600080fd5b50610495600480360381019080803573ffffffffffffffffffffffffffffffffffffffff16906020019092919050505061120d565b604051808260ff1660ff16815260200191505060405180910390f35b3480156104bd57600080fd5b506104fc600480360381019080803573ffffffffffffffffffffffffffffffffffffffff16906020019092919080359060200190929190505050611263565b604051808215151515815260200191505060405180910390f35b61051e6112dc565b604051808215151515815260200191505060405180910390f35b34801561054457600080fd5b5061054d61130c565b6040518082815260200191505060405180910390f35b34801561056f57600080fd5b50610578611312565b6040518082815260200191505060405180910390f35b34801561059a57600080fd5b506105a3611318565b6040518082815260200191505060405180910390f35b3480156105c557600080fd5b506105ce61131e565b6040518082815260200191505060405180910390f35b3480156105f057600080fd5b506105f9611324565b604051808273ffffffffffffffffffffffffffffffffffffffff1673ffffffffffffffffffffffffffffffffffffffff16815260200191505060405180910390f35b34801561064757600080fd5b506106666004803603810190808035906020019092919050505061134a565b604051808215151515815260200191505060405180910390f35b34801561068c57600080fd5b506106ab6004803603810190808035906020019092919050505061135e565b604051808215151515815260200191505060405180910390f35b3480156106d157600080fd5b506106da611370565b6040518082815260200191505060405180910390f35b3480156106fc57600080fd5b5061071b60048036038101908080359060200190929190505050611376565b604051808215151515815260200191505060405180910390f35b34801561074157600080fd5b50610760600480360381019080803590602001909291905050506113aa565b604051808215151515815260200191505060405180910390f35b34801561078657600080fd5b506107bb600480360381019080803573ffffffffffffffffffffffffffffffffffffffff1690602001909291905050506113c5565b6040518082815260200191505060405180910390f35b3480156107dd57600080fd5b50610812600480360381019080803573ffffffffffffffffffffffffffffffffffffffff1690602001909291905050506113d7565b604051808215151515815260200191505060405180910390f35b34801561083857600080fd5b50610877600480360381019080803573ffffffffffffffffffffffffffffffffffffffff1690602001909291908035906020019092919050505061143d565b604051808215151515815260200191505060405180910390f35b34801561089d57600080fd5b506108a66114a5565b6040518082815260200191505060405180910390f35b600080600080600f60009054906101000a900460ff1660ff1692506108df6114ab565b60ff1691506108ec611513565b60ff1690506108fc838383611559565b935050505090565b600080600080600080600080600054341015151561092157600080fd5b600b54965086955060055494508493503492505b600083118015610946575060008414155b15610a3a576004600085815260200190815260200160002054915061098e82610980670de0b6b3a76400008661165490919063ffffffff16565b61168f90919063ffffffff16565b9050836109a482886116aa90919063ffffffff16565b1115610a1b576109fb6109ec670de0b6b3a76400006109de856109d08b8a6116c890919063ffffffff16565b61165490919063ffffffff16565b61168f90919063ffffffff16565b846116c890919063ffffffff16565b925083955060036000858152602001908152602001600020549350610a35565b60009250610a3281876116aa90919063ffffffff16565b95505b610935565b8385141515610a4b57836005819055505b8587141515610baa57610ab8610a6a88886116c890919063ffffffff16565b600660003373ffffffffffffffffffffffffffffffffffffffff1673ffffffffffffffffffffffffffffffffffffffff168152602001908152602001600020546116aa90919063ffffffff16565b600660003373ffffffffffffffffffffffffffffffffffffffff1673ffffffffffffffffffffffffffffffffffffffff16815260200190815260200160002081905550610b5f610b1184346116c890919063ffffffff16565b600760003373ffffffffffffffffffffffffffffffffffffffff1673ffffffffffffffffffffffffffffffffffffffff168152602001908152602001600020546116aa90919063ffffffff16565b600760003373ffffffffffffffffffffffffffffffffffffffff1673ffffffffffffffffffffffffffffffffffffffff1681526020019081526020016000208190555085600b819055505b6000831115610bfb573373ffffffffffffffffffffffffffffffffffffffff166108fc849081150290604051600060405180830381858888f19350505050158015610bf9573d6000803e3d6000fd5b505b3373ffffffffffffffffffffffffffffffffffffffff167ff464123490dc166d6baa19aa737c29f15b3aebdf44f48937e30b5b481900f7d6610c4685346116c890919063ffffffff16565b6040518082815260200191505060405180910390a2600197505050505050505090565b6000806000806000600660008873ffffffffffffffffffffffffffffffffffffffff1673ffffffffffffffffffffffffffffffffffffffff168152602001908152602001600020549350600860008873ffffffffffffffffffffffffffffffffffffffff1673ffffffffffffffffffffffffffffffffffffffff16815260200190815260200160002054925085610d0984866116c890919063ffffffff16565b10151515610d1657600080fd5b600760008873ffffffffffffffffffffffffffffffffffffffff1673ffffffffffffffffffffffffffffffffffffffff168152602001908152602001600020549150610d7d84610d6f888561165490919063ffffffff16565b61168f90919063ffffffff16565b9050610d9286856116c890919063ffffffff16565b600660008973ffffffffffffffffffffffffffffffffffffffff1673ffffffffffffffffffffffffffffffffffffffff16815260200190815260200160002081905550610de881836116c890919063ffffffff16565b600760008973ffffffffffffffffffffffffffffffffffffffff1673ffffffffffffffffffffffffffffffffffffffff16815260200190815260200160002081905550610e4086600b546116c890919063ffffffff16565b600b819055508673ffffffffffffffffffffffffffffffffffffffff166108fc829081150290604051600060405180830381858888f19350505050158015610e8c573d6000803e3d6000fd5b50600194505050505092915050565b6000610f2e600860008473ffffffffffffffffffffffffffffffffffffffff1673ffffffffffffffffffffffffffffffffffffffff16815260200190815260200160002054600660008573ffffffffffffffffffffffffffffffffffffffff1673ffffffffffffffffffffffffffffffffffffffff168152602001908152602001600020546116c890919063ffffffff16565b9050919050565b600080610f4184610e9b565b9050828110151515610f5257600080fd5b610fa483600860008773ffffffffffffffffffffffffffffffffffffffff1673ffffffffffffffffffffffffffffffffffffffff168152602001908152602001600020546116aa90919063ffffffff16565b600860008673ffffffffffffffffffffffffffffffffffffffff1673ffffffffffffffffffffffffffffffffffffffff168152602001908152602001600020819055508373ffffffffffffffffffffffffffffffffffffffff167fd777ee46b5c5e9bff9903e5b77152b900a28b55ea90ea99766fa3b5237f970f6846040518082815260200191505060405180910390a261103f84846116e1565b91505092915050565b600b5481565b6000806110596117eb565b9050600460ff168160ff1614151561107057600080fd5b6110798361183f565b915050919050565b600061108b6108bc565b905090565b600061109a61197c565b905090565b60008073ffffffffffffffffffffffffffffffffffffffff16601360009054906101000a900473ffffffffffffffffffffffffffffffffffffffff1673ffffffffffffffffffffffffffffffffffffffff161415156110fd57600080fd5b81601360006101000a81548173ffffffffffffffffffffffffffffffffffffffff021916908373ffffffffffffffffffffffffffffffffffffffff1602179055506001600f60006101000a81548160ff021916908360ff16021790555061116261197c565b600c8190555060019050919050565b60008061117c6108bc565b9050600460ff168160ff1614151561119357600080fd5b61119d3384610c69565b915050919050565b60008060006111b26117eb565b91506111bc6108bc565b9050600860ff168160ff161415156111d357600080fd5b600460ff168260ff1614806111ee5750600860ff168260ff16145b15156111f957600080fd5b6112038585611988565b9250505092915050565b6000601060008373ffffffffffffffffffffffffffffffffffffffff1673ffffffffffffffffffffffffffffffffffffffff16815260200190815260200160002060009054906101000a900460ff169050919050565b60008060006112706108bc565b915061127a6117eb565b9050600460ff168160ff1614806112975750600860ff168160ff16145b15156112a257600080fd5b600460ff168260ff1614806112bd5750600160ff168260ff16145b15156112c857600080fd5b6112d28585610c69565b9250505092915050565b6000806112e76108bc565b9050600160ff168160ff161415156112fe57600080fd5b611306610904565b91505090565b600c5481565b60005481565b600e5481565b60025481565b601360009054906101000a900473ffffffffffffffffffffffffffffffffffffffff1681565b600042820360128190555060019050919050565b600061136982611aa0565b9050919050565b600d5481565b6000806113816108bc565b9050600860ff168160ff1614151561139857600080fd5b6113a23384610f35565b915050919050565b60008160126000828254019250508190555060019050919050565b60006113d082610e9b565b9050919050565b60008060006113e46117eb565b91506113ee6108bc565b9050600460ff168260ff16148061140b5750600860ff168260ff16145b151561141657600080fd5b600060ff168160ff1614151561142b57600080fd5b61143484611c59565b92505050919050565b600080600061144a6117eb565b91506114546108bc565b9050600860ff168160ff1614151561146b57600080fd5b600460ff168260ff1614806114865750600860ff168260ff16145b151561149157600080fd5b61149b8585610f35565b9250505092915050565b60015481565b6000806000600c5491506114cf826114c161197c565b6116c890919063ffffffff16565b905060008214156114e3576000925061150e565b600d548110156114f6576001925061150e565b600e54811015611509576008925061150e565b601092505b505090565b60008061151e611ca1565b9050611528611cab565b8110156115385760019150611555565b611540611cb5565b8110156115505760029150611555565b600491505b5090565b60008060ff1684141561156f576000905061164d565b600160ff168414156115d857600160ff168314156115a557600460ff1682141561159c576008905061164d565b6001905061164d565b600860ff168314156115cf57600160ff168214156115c6576004905061164d565b6008905061164d565b6010905061164d565b600460ff1684141561161057600160ff168314806115f95750600860ff1683145b15611607576004905061164d565b6010905061164d565b600860ff1684141561164857600160ff168314806116315750600860ff1683145b1561163f576008905061164d565b6010905061164d565b601090505b9392505050565b60008060008414156116695760009150611688565b828402905082848281151561167a57fe5b0414151561168457fe5b8091505b5092915050565b600080828481151561169d57fe5b0490508091505092915050565b60008082840190508381101515156116be57fe5b8091505092915050565b60008282111515156116d657fe5b818303905092915050565b6000601360009054906101000a900473ffffffffffffffffffffffffffffffffffffffff1673ffffffffffffffffffffffffffffffffffffffff1663a9059cbb84846040518363ffffffff167c0100000000000000000000000000000000000000000000000000000000028152600401808373ffffffffffffffffffffffffffffffffffffffff1673ffffffffffffffffffffffffffffffffffffffff16815260200182815260200192505050602060405180830381600087803b1580156117a857600080fd5b505af11580156117bc573d6000803e3d6000fd5b505050506040513d60208110156117d257600080fd5b8101908080519060200190929190505050905092915050565b6000601060003373ffffffffffffffffffffffffffffffffffffffff1673ffffffffffffffffffffffffffffffffffffffff16815260200190815260200160002060009054906101000a900460ff16905090565b6000601360009054906101000a900473ffffffffffffffffffffffffffffffffffffffff1673ffffffffffffffffffffffffffffffffffffffff166323b872dd3330856040518463ffffffff167c0100000000000000000000000000000000000000000000000000000000028152600401808473ffffffffffffffffffffffffffffffffffffffff1673ffffffffffffffffffffffffffffffffffffffff1681526020018373ffffffffffffffffffffffffffffffffffffffff1673ffffffffffffffffffffffffffffffffffffffff1681526020018281526020019350505050602060405180830381600087803b15801561193a57600080fd5b505af115801561194e573d6000803e3d6000fd5b505050506040513d602081101561196457600080fd5b81019080805190602001909291905050509050919050565b60004260125401905090565b600080600061199685611cbf565b91508382101515156119a757600080fd5b6119d384600960008860ff1660ff168152602001908152602001600020546116aa90919063ffffffff16565b600960008760ff1660ff168152602001908152602001600020819055506119f985611d15565b90508073ffffffffffffffffffffffffffffffffffffffff166108fc859081150290604051600060405180830381858888f19350505050158015611a41573d6000803e3d6000fd5b508073ffffffffffffffffffffffffffffffffffffffff168560ff167f0fd79c527d8fff6ba27289ff9bf7bf508210c1b8503799ff89bba54447848e8c866040518082815260200191505060405180910390a360019250505092915050565b600080600080600080600f60009054906101000a900460ff1660ff169450611ac66114ab565b60ff169350611ad3611513565b60ff169250611ae3858585611559565b9150611aed6117eb565b9050600160ff16871415611b7d57600460ff168160ff161480611b165750600860ff168160ff16145b8015611b285750600060ff168260ff16145b15611b7857611b35611cb5565b611b3d611d58565b101515611b7757611b4c61197c565b600c819055506001600f60006101000a81548160ff021916908360ff16021790555060019550611c4f565b5b600080fd5b600860ff16871415611be257600460ff168160ff161480611ba45750600860ff168160ff16145b8015611bb35750600260ff1683145b15611bdd576008600f60006101000a81548160ff021916908360ff16021790555060019550611c4f565b600080fd5b600460ff16871415611c4a57600460ff168160ff161480611c095750600860ff168160ff16145b8015611c1b5750600160ff168260ff16145b15611c45576004600f60006101000a81548160ff021916908360ff16021790555060019550611c4f565b600080fd5b600080fd5b5050505050919050565b600081601360006101000a81548173ffffffffffffffffffffffffffffffffffffffff021916908373ffffffffffffffffffffffffffffffffffffffff160217905550919050565b6000600b54905090565b6000600154905090565b6000600254905090565b6000600460ff168260ff16141515611cda5760009050611d10565b600960008360ff1660ff168152602001908152602001600020543073ffffffffffffffffffffffffffffffffffffffff16310390505b919050565b6000601160008360ff1660ff16815260200190815260200160002060009054906101000a900473ffffffffffffffffffffffffffffffffffffffff169050919050565b6000601360009054906101000a900473ffffffffffffffffffffffffffffffffffffffff1673ffffffffffffffffffffffffffffffffffffffff166370a08231306040518263ffffffff167c0100000000000000000000000000000000000000000000000000000000028152600401808273ffffffffffffffffffffffffffffffffffffffff1673ffffffffffffffffffffffffffffffffffffffff168152602001915050602060405180830381600087803b158015611e1757600080fd5b505af1158015611e2b573d6000803e3d6000fd5b505050506040513d6020811015611e4157600080fd5b81019080805190602001909291905050509050905600a165627a7a723058201928a21adb591e4e2afde03f838fa2916a4efc75aedc3bdb894639941fc17fbf0029",
  "source": "pragma solidity ^0.4.23;\n\nimport \"./ISAOTest.sol\";\nimport \"../../libs/token/ERC20/ERC20.sol\";\n\n\ncontract ERC20Test is ERC20 {\n\n  string public name = \"ISAO Token\";\n  string public symbol = \"ISAOT\";\n  uint8 public decimals = 18;\n  \n  function mint(address _for, uint _value) public returns (bool) {\n    require(totalSupply_==0);\n    totalSupply_ = _value;\n    balances[_for] = _value;\n    emit Transfer(address(0), _for, _value);\n    return true;\n  }\n}\n\ncontract ISAOTest2 is ISAOTest {\n  uint8 constant ST_RAISING = 0x01;\n  constructor(uint _raisingPeriod, \n              uint _distributionPeriod, \n              uint _minimalFundSize,\n              uint[] _limits, \n              uint[] _costs,\n              uint _minimalDeposit,\n              address _adminAddress,\n              address _paybotAddress) public ISAOTest(_raisingPeriod, _distributionPeriod,\n              _minimalFundSize, _limits, _costs, _minimalDeposit, _adminAddress, _paybotAddress\n              ) {\n  }\n  function init (address _tokenAddress) public returns(bool) {\n      require(tokenAddress==address(0));\n      tokenAddress=_tokenAddress;\n      initialState_ = ST_RAISING;\n      launchTimestamp = getTimestamp_();\n      return true;\n  }\n}\n\n/// @notice  This factory is not legacy, but it is ganache-compatible. Do not write in-constructor factories for production!\ncontract ISAOTestFactory {\n  uint8 constant ST_RAISING = 0x01;\n  address public isaoAddress;\n  address public erc20Address;\n\n  constructor(uint _raisingPeriod, \n              uint _distributionPeriod, \n              uint _minimalFundSize,\n              uint[] _limits, \n              uint[] _costs,\n              uint _minimalDeposit,\n              address _adminAddress,\n              address _paybotAddress) public {\n                  \n    erc20Address = new ERC20Test();\n    isaoAddress = new ISAOTest2(_raisingPeriod, _distributionPeriod, \n      _minimalFundSize, _limits, _costs, _minimalDeposit, _adminAddress, _paybotAddress);\n    ISAOTest2(isaoAddress).init(erc20Address);\n    ERC20Test(erc20Address).mint(isaoAddress, _limits[_limits.length-1]);\n\n  }\n}",
  "sourcePath": "E:\\WORK\\BNKX-POA\\ISAO\\contracts\\testing\\ISAOTest\\ISAOTestFactory.sol",
  "compiler": {
    "name": "solc",
    "version": "0.4.23+commit.124ca40d.Emscripten.clang"
  },
  "schemaVersion": "2.0.0",
  "updatedAt": "2018-06-19T14:51:02.902Z"
}