{
  "contractName": "ISAOTestFactory",
  "abi": [
    {
      "constant": true,
      "inputs": [],
      "name": "erc20Address",
      "outputs": [
        {
          "name": "",
          "type": "address"
        }
      ],
      "payable": false,
      "stateMutability": "view",
      "type": "function"
    },
    {
      "constant": true,
      "inputs": [],
      "name": "isaoAddress",
      "outputs": [
        {
          "name": "",
          "type": "address"
        }
      ],
      "payable": false,
      "stateMutability": "view",
      "type": "function"
    },
    {
      "inputs": [
        {
          "name": "_raisingPeriod",
          "type": "uint256"
        },
        {
          "name": "_distributionPeriod",
          "type": "uint256"
        },
        {
          "name": "_minimalFundSize",
          "type": "uint256"
        },
        {
          "name": "_limits",
          "type": "uint256[]"
        },
        {
          "name": "_costs",
          "type": "uint256[]"
        },
        {
          "name": "_minimalDeposit",
          "type": "uint256"
        },
        {
          "name": "_paybotAddress",
          "type": "address"
        }
      ],
      "payable": false,
      "stateMutability": "nonpayable",
      "type": "constructor"
    }
  ],
  "bytecode": "0x608060405234801561001057600080fd5b506040516139f03803806139f08339810180604052810190808051906020019092919080519060200190929190805190602001909291908051820192919060200180518201929190602001805190602001909291908051906020019092919050505086868686868686610081610495565b8088815260200187815260200186815260200180602001806020018581526020018473ffffffffffffffffffffffffffffffffffffffff1673ffffffffffffffffffffffffffffffffffffffff168152602001838103835287818151815260200191508051906020019060200280838360005b8381101561010f5780820151818401526020810190506100f4565b50505050905001838103825286818151815260200191508051906020019060200280838360005b83811015610151578082015181840152602081019050610136565b505050509050019950505050505050505050604051809103906000f08015801561017f573d6000803e3d6000fd5b506000806101000a81548173ffffffffffffffffffffffffffffffffffffffff021916908373ffffffffffffffffffffffffffffffffffffffff1602179055506000809054906101000a900473ffffffffffffffffffffffffffffffffffffffff168460018651038151811015156101f357fe5b906020019060200201516102056104a5565b808373ffffffffffffffffffffffffffffffffffffffff1673ffffffffffffffffffffffffffffffffffffffff16815260200182815260200192505050604051809103906000f08015801561025e573d6000803e3d6000fd5b50600160006101000a81548173ffffffffffffffffffffffffffffffffffffffff021916908373ffffffffffffffffffffffffffffffffffffffff1602179055506000809054906101000a900473ffffffffffffffffffffffffffffffffffffffff1673ffffffffffffffffffffffffffffffffffffffff1663de562487600160009054906101000a900473ffffffffffffffffffffffffffffffffffffffff166040518263ffffffff167c0100000000000000000000000000000000000000000000000000000000028152600401808273ffffffffffffffffffffffffffffffffffffffff1673ffffffffffffffffffffffffffffffffffffffff168152602001915050602060405180830381600087803b15801561037d57600080fd5b505af1158015610391573d6000803e3d6000fd5b505050506040513d60208110156103a757600080fd5b8101908080519060200190929190505050506000809054906101000a900473ffffffffffffffffffffffffffffffffffffffff1673ffffffffffffffffffffffffffffffffffffffff1663a9e966b760016040518263ffffffff167c0100000000000000000000000000000000000000000000000000000000028152600401808260ff168152602001915050602060405180830381600087803b15801561044d57600080fd5b505af1158015610461573d6000803e3d6000fd5b505050506040513d602081101561047757600080fd5b810190808051906020019092919050505050505050505050506104b5565b6040516122058061063a83390190565b6040516111b18061283f83390190565b610176806104c46000396000f30060806040526004361061004c576000357c0100000000000000000000000000000000000000000000000000000000900463ffffffff168063276184ae14610051578063ff4bd54e146100a8575b600080fd5b34801561005d57600080fd5b506100666100ff565b604051808273ffffffffffffffffffffffffffffffffffffffff1673ffffffffffffffffffffffffffffffffffffffff16815260200191505060405180910390f35b3480156100b457600080fd5b506100bd610125565b604051808273ffffffffffffffffffffffffffffffffffffffff1673ffffffffffffffffffffffffffffffffffffffff16815260200191505060405180910390f35b600160009054906101000a900473ffffffffffffffffffffffffffffffffffffffff1681565b6000809054906101000a900473ffffffffffffffffffffffffffffffffffffffff16815600a165627a7a72305820944f9d8395e208c3448c7d5b22adf9c11cd50008b7bbfdfb8a76278ba6b50fa3002960806040523480156200001157600080fd5b5060405162002205380380620022058339810180604052810190808051906020019092919080519060200190929190805190602001909291908051820192919060200180518201929190602001805190602001909291908051906020019092919050505086600d8190555085600e8190555081600081905550620000a6858585620001b3640100000000026401000000009004565b50620000c360043362000332640100000000026401000000009004565b50620000e060088262000332640100000000026401000000009004565b507f32a77d339835f060f74fc1d2d71394f25f6a037e3acd20e875be312f92deaf6f8484604051808060200180602001838103835285818151815260200191508051906020019060200280838360005b838110156200014d57808201518184015260208101905062000130565b50505050905001838103825284818151815260200191508051906020019060200280838360005b838110156200019157808201518184015260208101905062000174565b5050505090500194505050505060405180910390a150505050505050620004ba565b600080600084519150835182141515620001cc57600080fd5b600082111515620001dc57600080fd5b600090505b600182038110156200028e578460018201815181101515620001ff57fe5b906020019060200201516003600087848151811015156200021c57fe5b9060200190602002015181526020019081526020016000208190555083818151811015156200024757fe5b906020019060200201516004600087848151811015156200026457fe5b906020019060200201518152602001908152602001600020819055508080600101915050620001e1565b8360018303815181101515620002a057fe5b90602001906020020151600460008760018603815181101515620002c057fe5b90602001906020020151815260200190815260200160002081905550846000815181101515620002ec57fe5b906020019060200201516005819055508560018190555084600183038151811015156200031557fe5b906020019060200201516002819055506001925050509392505050565b600080601060008473ffffffffffffffffffffffffffffffffffffffff1673ffffffffffffffffffffffffffffffffffffffff16815260200190815260200160002060009054906101000a900460ff1660ff16148015620003f85750600073ffffffffffffffffffffffffffffffffffffffff16601160008560ff1660ff16815260200190815260200160002060009054906101000a900473ffffffffffffffffffffffffffffffffffffffff1673ffffffffffffffffffffffffffffffffffffffff16145b15156200040457600080fd5b82601060008473ffffffffffffffffffffffffffffffffffffffff1673ffffffffffffffffffffffffffffffffffffffff16815260200190815260200160002060006101000a81548160ff021916908360ff16021790555081601160008560ff1660ff16815260200190815260200160002060006101000a81548173ffffffffffffffffffffffffffffffffffffffff021916908373ffffffffffffffffffffffffffffffffffffffff16021790555092915050565b611d3b80620004ca6000396000f300608060405260043610610133576000357c0100000000000000000000000000000000000000000000000000000000900463ffffffff168063026c42071461028b5780630b43a09e146102b65780631865c57d146102fb578063188ec3561461032c5780632229fdf41461035757806331d98d211461039c57806344276733146103ee5780634aea62321461044b5780634da13c2e146104b057806365cf7c9b146104d25780636fe4d97a146104fd5780639b501723146105285780639d12bf0a146105535780639d76ea581461057e578063a0a2b573146105d5578063a9e966b71461061a578063afd54d821461065f578063b54d62381461068a578063c173f245146106cf578063dc08826d14610714578063de5624871461076b578063e20d82df146107c6578063ed48ee3d1461082b575b600061013d610856565b9050600160ff168160ff16141561015c5761015661089e565b50610288565b600460ff168160ff16141561020b576101b433600660003373ffffffffffffffffffffffffffffffffffffffff1673ffffffffffffffffffffffffffffffffffffffff16815260200190815260200160002054610c03565b506000341115610206573373ffffffffffffffffffffffffffffffffffffffff166108fc349081150290604051600060405180830381858888f19350505050158015610204573d6000803e3d6000fd5b505b610288565b600860ff168160ff1614156102835761022c3361022733610e35565b610ecf565b50600034111561027e573373ffffffffffffffffffffffffffffffffffffffff166108fc349081150290604051600060405180830381858888f1935050505015801561027c573d6000803e3d6000fd5b505b610288565b600080fd5b50005b34801561029757600080fd5b506102a0610fe2565b6040518082815260200191505060405180910390f35b3480156102c257600080fd5b506102e160048036038101908080359060200190929190505050610fe8565b604051808215151515815260200191505060405180910390f35b34801561030757600080fd5b5061031061101b565b604051808260ff1660ff16815260200191505060405180910390f35b34801561033857600080fd5b5061034161102a565b6040518082815260200191505060405180910390f35b34801561036357600080fd5b5061038260048036038101908080359060200190929190505050611039565b604051808215151515815260200191505060405180910390f35b3480156103a857600080fd5b506103d4600480360381019080803560ff1690602001909291908035906020019092919050505061106d565b604051808215151515815260200191505060405180910390f35b3480156103fa57600080fd5b5061042f600480360381019080803573ffffffffffffffffffffffffffffffffffffffff1690602001909291905050506110d5565b604051808260ff1660ff16815260200191505060405180910390f35b34801561045757600080fd5b50610496600480360381019080803573ffffffffffffffffffffffffffffffffffffffff1690602001909291908035906020019092919050505061112b565b604051808215151515815260200191505060405180910390f35b6104b86111a4565b604051808215151515815260200191505060405180910390f35b3480156104de57600080fd5b506104e76111d4565b6040518082815260200191505060405180910390f35b34801561050957600080fd5b506105126111da565b6040518082815260200191505060405180910390f35b34801561053457600080fd5b5061053d6111e0565b6040518082815260200191505060405180910390f35b34801561055f57600080fd5b506105686111e6565b6040518082815260200191505060405180910390f35b34801561058a57600080fd5b506105936111ec565b604051808273ffffffffffffffffffffffffffffffffffffffff1673ffffffffffffffffffffffffffffffffffffffff16815260200191505060405180910390f35b3480156105e157600080fd5b5061060060048036038101908080359060200190929190505050611212565b604051808215151515815260200191505060405180910390f35b34801561062657600080fd5b5061064560048036038101908080359060200190929190505050611226565b604051808215151515815260200191505060405180910390f35b34801561066b57600080fd5b50610674611238565b6040518082815260200191505060405180910390f35b34801561069657600080fd5b506106b56004803603810190808035906020019092919050505061123e565b604051808215151515815260200191505060405180910390f35b3480156106db57600080fd5b506106fa60048036038101908080359060200190929190505050611272565b604051808215151515815260200191505060405180910390f35b34801561072057600080fd5b50610755600480360381019080803573ffffffffffffffffffffffffffffffffffffffff16906020019092919050505061128d565b6040518082815260200191505060405180910390f35b34801561077757600080fd5b506107ac600480360381019080803573ffffffffffffffffffffffffffffffffffffffff16906020019092919050505061129f565b604051808215151515815260200191505060405180910390f35b3480156107d257600080fd5b50610811600480360381019080803573ffffffffffffffffffffffffffffffffffffffff16906020019092919080359060200190929190505050611305565b604051808215151515815260200191505060405180910390f35b34801561083757600080fd5b5061084061136d565b6040518082815260200191505060405180910390f35b600080600080600f60009054906101000a900460ff1660ff169250610879611373565b60ff1691506108866113cb565b60ff169050610896838383611411565b935050505090565b60008060008060008060008060005434101515156108bb57600080fd5b600b54965086955060055494508493503492505b6000831180156108e0575060008414155b156109d457600460008581526020019081526020016000205491506109288261091a670de0b6b3a76400008661150c90919063ffffffff16565b61154790919063ffffffff16565b90508361093e828861156290919063ffffffff16565b11156109b557610995610986670de0b6b3a76400006109788561096a8b8a61158090919063ffffffff16565b61150c90919063ffffffff16565b61154790919063ffffffff16565b8461158090919063ffffffff16565b9250839550600360008581526020019081526020016000205493506109cf565b600092506109cc818761156290919063ffffffff16565b95505b6108cf565b83851415156109e557836005819055505b8587141515610b4457610a52610a04888861158090919063ffffffff16565b600660003373ffffffffffffffffffffffffffffffffffffffff1673ffffffffffffffffffffffffffffffffffffffff1681526020019081526020016000205461156290919063ffffffff16565b600660003373ffffffffffffffffffffffffffffffffffffffff1673ffffffffffffffffffffffffffffffffffffffff16815260200190815260200160002081905550610af9610aab843461158090919063ffffffff16565b600760003373ffffffffffffffffffffffffffffffffffffffff1673ffffffffffffffffffffffffffffffffffffffff1681526020019081526020016000205461156290919063ffffffff16565b600760003373ffffffffffffffffffffffffffffffffffffffff1673ffffffffffffffffffffffffffffffffffffffff1681526020019081526020016000208190555085600b819055505b6000831115610b95573373ffffffffffffffffffffffffffffffffffffffff166108fc849081150290604051600060405180830381858888f19350505050158015610b93573d6000803e3d6000fd5b505b3373ffffffffffffffffffffffffffffffffffffffff167ff464123490dc166d6baa19aa737c29f15b3aebdf44f48937e30b5b481900f7d6610be0853461158090919063ffffffff16565b6040518082815260200191505060405180910390a2600197505050505050505090565b6000806000806000600660008873ffffffffffffffffffffffffffffffffffffffff1673ffffffffffffffffffffffffffffffffffffffff168152602001908152602001600020549350600860008873ffffffffffffffffffffffffffffffffffffffff1673ffffffffffffffffffffffffffffffffffffffff16815260200190815260200160002054925085610ca3848661158090919063ffffffff16565b10151515610cb057600080fd5b600760008873ffffffffffffffffffffffffffffffffffffffff1673ffffffffffffffffffffffffffffffffffffffff168152602001908152602001600020549150610d1784610d09888561150c90919063ffffffff16565b61154790919063ffffffff16565b9050610d2c868561158090919063ffffffff16565b600660008973ffffffffffffffffffffffffffffffffffffffff1673ffffffffffffffffffffffffffffffffffffffff16815260200190815260200160002081905550610d82818361158090919063ffffffff16565b600760008973ffffffffffffffffffffffffffffffffffffffff1673ffffffffffffffffffffffffffffffffffffffff16815260200190815260200160002081905550610dda86600b5461158090919063ffffffff16565b600b819055508673ffffffffffffffffffffffffffffffffffffffff166108fc829081150290604051600060405180830381858888f19350505050158015610e26573d6000803e3d6000fd5b50600194505050505092915050565b6000610ec8600860008473ffffffffffffffffffffffffffffffffffffffff1673ffffffffffffffffffffffffffffffffffffffff16815260200190815260200160002054600660008573ffffffffffffffffffffffffffffffffffffffff1673ffffffffffffffffffffffffffffffffffffffff1681526020019081526020016000205461158090919063ffffffff16565b9050919050565b600080610edb84610e35565b9050828110151515610eec57600080fd5b610f3e83600860008773ffffffffffffffffffffffffffffffffffffffff1673ffffffffffffffffffffffffffffffffffffffff1681526020019081526020016000205461156290919063ffffffff16565b600860008673ffffffffffffffffffffffffffffffffffffffff1673ffffffffffffffffffffffffffffffffffffffff168152602001908152602001600020819055508373ffffffffffffffffffffffffffffffffffffffff167fd777ee46b5c5e9bff9903e5b77152b900a28b55ea90ea99766fa3b5237f970f6846040518082815260200191505060405180910390a2610fd98484611599565b91505092915050565b600b5481565b600080610ff36116a3565b9050600460ff168160ff1614151561100a57600080fd5b611013836116f7565b915050919050565b6000611025610856565b905090565b6000611034611834565b905090565b600080611044610856565b9050600460ff168160ff1614151561105b57600080fd5b6110653384610c03565b915050919050565b600080600061107a6116a3565b9150611084610856565b9050600860ff168160ff1614151561109b57600080fd5b600460ff168260ff1614806110b65750600860ff168260ff16145b15156110c157600080fd5b6110cb8585611840565b9250505092915050565b6000601060008373ffffffffffffffffffffffffffffffffffffffff1673ffffffffffffffffffffffffffffffffffffffff16815260200190815260200160002060009054906101000a900460ff169050919050565b6000806000611138610856565b91506111426116a3565b9050600460ff168160ff16148061115f5750600860ff168160ff16145b151561116a57600080fd5b600460ff168260ff1614806111855750600160ff168260ff16145b151561119057600080fd5b61119a8585610c03565b9250505092915050565b6000806111af610856565b9050600160ff168160ff161415156111c657600080fd5b6111ce61089e565b91505090565b600c5481565b60005481565b600e5481565b60025481565b601360009054906101000a900473ffffffffffffffffffffffffffffffffffffffff1681565b600042820360128190555060019050919050565b600061123182611958565b9050919050565b600d5481565b600080611249610856565b9050600860ff168160ff1614151561126057600080fd5b61126a3384610ecf565b915050919050565b60008160126000828254019250508190555060019050919050565b600061129882610e35565b9050919050565b60008060006112ac6116a3565b91506112b6610856565b9050600460ff168260ff1614806112d35750600860ff168260ff16145b15156112de57600080fd5b600060ff168160ff161415156112f357600080fd5b6112fc84611b11565b92505050919050565b60008060006113126116a3565b915061131c610856565b9050600860ff168160ff1614151561133357600080fd5b600460ff168260ff16148061134e5750600860ff168260ff16145b151561135957600080fd5b6113638585610ecf565b9250505092915050565b60015481565b6000806000600c54915081611386611834565b039050600082141561139b57600092506113c6565b600d548110156113ae57600192506113c6565b600e548110156113c157600892506113c6565b601092505b505090565b6000806113d6611b59565b90506113e0611b63565b8110156113f0576001915061140d565b6113f8611b6d565b811015611408576002915061140d565b600491505b5090565b60008060ff168414156114275760009050611505565b600160ff1684141561149057600160ff1683141561145d57600460ff168214156114545760089050611505565b60019050611505565b600160ff168214156114725760049050611505565b600860ff168314156114875760089050611505565b60109050611505565b600460ff168414156114c857600160ff168314806114b15750600860ff1683145b156114bf5760049050611505565b60109050611505565b600860ff1684141561150057600160ff168314806114e95750600860ff1683145b156114f75760089050611505565b60109050611505565b601090505b9392505050565b60008060008414156115215760009150611540565b828402905082848281151561153257fe5b0414151561153c57fe5b8091505b5092915050565b600080828481151561155557fe5b0490508091505092915050565b600080828401905083811015151561157657fe5b8091505092915050565b600082821115151561158e57fe5b818303905092915050565b6000601360009054906101000a900473ffffffffffffffffffffffffffffffffffffffff1673ffffffffffffffffffffffffffffffffffffffff1663a9059cbb84846040518363ffffffff167c0100000000000000000000000000000000000000000000000000000000028152600401808373ffffffffffffffffffffffffffffffffffffffff1673ffffffffffffffffffffffffffffffffffffffff16815260200182815260200192505050602060405180830381600087803b15801561166057600080fd5b505af1158015611674573d6000803e3d6000fd5b505050506040513d602081101561168a57600080fd5b8101908080519060200190929190505050905092915050565b6000601060003373ffffffffffffffffffffffffffffffffffffffff1673ffffffffffffffffffffffffffffffffffffffff16815260200190815260200160002060009054906101000a900460ff16905090565b6000601360009054906101000a900473ffffffffffffffffffffffffffffffffffffffff1673ffffffffffffffffffffffffffffffffffffffff166323b872dd3330856040518463ffffffff167c0100000000000000000000000000000000000000000000000000000000028152600401808473ffffffffffffffffffffffffffffffffffffffff1673ffffffffffffffffffffffffffffffffffffffff1681526020018373ffffffffffffffffffffffffffffffffffffffff1673ffffffffffffffffffffffffffffffffffffffff1681526020018281526020019350505050602060405180830381600087803b1580156117f257600080fd5b505af1158015611806573d6000803e3d6000fd5b505050506040513d602081101561181c57600080fd5b81019080805190602001909291905050509050919050565b60004260125401905090565b600080600061184e85611b77565b915083821015151561185f57600080fd5b61188b84600960008860ff1660ff1681526020019081526020016000205461156290919063ffffffff16565b600960008760ff1660ff168152602001908152602001600020819055506118b185611bcd565b90508073ffffffffffffffffffffffffffffffffffffffff166108fc859081150290604051600060405180830381858888f193505050501580156118f9573d6000803e3d6000fd5b508073ffffffffffffffffffffffffffffffffffffffff168560ff167f0fd79c527d8fff6ba27289ff9bf7bf508210c1b8503799ff89bba54447848e8c866040518082815260200191505060405180910390a360019250505092915050565b600080600080600080600f60009054906101000a900460ff1660ff16945061197e611373565b60ff16935061198b6113cb565b60ff16925061199b858585611411565b91506119a56116a3565b9050600160ff16871415611a3557600460ff168160ff1614806119ce5750600860ff168160ff16145b80156119e05750600060ff168260ff16145b15611a30576119ed611b63565b6119f5611c10565b101515611a2f57611a04611834565b600c819055506001600f60006101000a81548160ff021916908360ff16021790555060019550611b07565b5b600080fd5b600860ff16871415611a9a57600460ff168160ff161480611a5c5750600860ff168160ff16145b8015611a6b5750600260ff1683145b15611a95576008600f60006101000a81548160ff021916908360ff16021790555060019550611b07565b600080fd5b600460ff16871415611b0257600460ff168160ff161480611ac15750600860ff168160ff16145b8015611ad35750600160ff168260ff16145b15611afd576004600f60006101000a81548160ff021916908360ff16021790555060019550611b07565b600080fd5b600080fd5b5050505050919050565b600081601360006101000a81548173ffffffffffffffffffffffffffffffffffffffff021916908373ffffffffffffffffffffffffffffffffffffffff160217905550919050565b6000600b54905090565b6000600154905090565b6000600254905090565b6000600460ff168260ff16141515611b925760009050611bc8565b600960008360ff1660ff168152602001908152602001600020543073ffffffffffffffffffffffffffffffffffffffff16310390505b919050565b6000601160008360ff1660ff16815260200190815260200160002060009054906101000a900473ffffffffffffffffffffffffffffffffffffffff169050919050565b6000601360009054906101000a900473ffffffffffffffffffffffffffffffffffffffff1673ffffffffffffffffffffffffffffffffffffffff166370a08231306040518263ffffffff167c0100000000000000000000000000000000000000000000000000000000028152600401808273ffffffffffffffffffffffffffffffffffffffff1673ffffffffffffffffffffffffffffffffffffffff168152602001915050602060405180830381600087803b158015611ccf57600080fd5b505af1158015611ce3573d6000803e3d6000fd5b505050506040513d6020811015611cf957600080fd5b81019080805190602001909291905050509050905600a165627a7a72305820d329c783049ac1a32b11bc405214b83d575c249cbe6dc5231dcae70b0df087e5002960806040526040805190810160405280600a81526020017f4953414f20546f6b656e000000000000000000000000000000000000000000008152506003908051906020019062000051929190620001af565b506040805190810160405280600581526020017f4953414f54000000000000000000000000000000000000000000000000000000815250600490805190602001906200009f929190620001af565b506012600560006101000a81548160ff021916908360ff160217905550348015620000c957600080fd5b50604051604080620011b1833981018060405281019080805190602001909291908051906020019092919050505080600281905550806000808473ffffffffffffffffffffffffffffffffffffffff1673ffffffffffffffffffffffffffffffffffffffff168152602001908152602001600020819055508173ffffffffffffffffffffffffffffffffffffffff16600073ffffffffffffffffffffffffffffffffffffffff167fddf252ad1be2c89b69c2b068fc378daa952ba7f163c4a11628f55a4df523b3ef836040518082815260200191505060405180910390a350506200025e565b828054600181600116156101000203166002900490600052602060002090601f016020900481019282601f10620001f257805160ff191683800117855562000223565b8280016001018555821562000223579182015b828111156200022257825182559160200191906001019062000205565b5b50905062000232919062000236565b5090565b6200025b91905b80821115620002575760008160009055506001016200023d565b5090565b90565b610f43806200026e6000396000f3006080604052600436106100af576000357c0100000000000000000000000000000000000000000000000000000000900463ffffffff16806306fdde03146100b4578063095ea7b31461014457806318160ddd146101a957806323b872dd146101d4578063313ce56714610259578063661884631461028a57806370a08231146102ef57806395d89b4114610346578063a9059cbb146103d6578063d73dd6231461043b578063dd62ed3e146104a0575b600080fd5b3480156100c057600080fd5b506100c9610517565b6040518080602001828103825283818151815260200191508051906020019080838360005b838110156101095780820151818401526020810190506100ee565b50505050905090810190601f1680156101365780820380516001836020036101000a031916815260200191505b509250505060405180910390f35b34801561015057600080fd5b5061018f600480360381019080803573ffffffffffffffffffffffffffffffffffffffff169060200190929190803590602001909291905050506105b5565b604051808215151515815260200191505060405180910390f35b3480156101b557600080fd5b506101be6106a7565b6040518082815260200191505060405180910390f35b3480156101e057600080fd5b5061023f600480360381019080803573ffffffffffffffffffffffffffffffffffffffff169060200190929190803573ffffffffffffffffffffffffffffffffffffffff169060200190929190803590602001909291905050506106b1565b604051808215151515815260200191505060405180910390f35b34801561026557600080fd5b5061026e6106c7565b604051808260ff1660ff16815260200191505060405180910390f35b34801561029657600080fd5b506102d5600480360381019080803573ffffffffffffffffffffffffffffffffffffffff169060200190929190803590602001909291905050506106da565b604051808215151515815260200191505060405180910390f35b3480156102fb57600080fd5b50610330600480360381019080803573ffffffffffffffffffffffffffffffffffffffff169060200190929190505050610874565b6040518082815260200191505060405180910390f35b34801561035257600080fd5b5061035b6108bc565b6040518080602001828103825283818151815260200191508051906020019080838360005b8381101561039b578082015181840152602081019050610380565b50505050905090810190601f1680156103c85780820380516001836020036101000a031916815260200191505b509250505060405180910390f35b3480156103e257600080fd5b50610421600480360381019080803573ffffffffffffffffffffffffffffffffffffffff1690602001909291908035906020019092919050505061095a565b604051808215151515815260200191505060405180910390f35b34801561044757600080fd5b50610486600480360381019080803573ffffffffffffffffffffffffffffffffffffffff1690602001909291908035906020019092919050505061096f565b604051808215151515815260200191505060405180910390f35b3480156104ac57600080fd5b50610501600480360381019080803573ffffffffffffffffffffffffffffffffffffffff169060200190929190803573ffffffffffffffffffffffffffffffffffffffff169060200190929190505050610af7565b6040518082815260200191505060405180910390f35b60038054600181600116156101000203166002900480601f0160208091040260200160405190810160405280929190818152602001828054600181600116156101000203166002900480156105ad5780601f10610582576101008083540402835291602001916105ad565b820191906000526020600020905b81548152906001019060200180831161059057829003601f168201915b505050505081565b600081600160003373ffffffffffffffffffffffffffffffffffffffff1673ffffffffffffffffffffffffffffffffffffffff16815260200190815260200160002060008573ffffffffffffffffffffffffffffffffffffffff1673ffffffffffffffffffffffffffffffffffffffff168152602001908152602001600020819055508273ffffffffffffffffffffffffffffffffffffffff163373ffffffffffffffffffffffffffffffffffffffff167f8c5be1e5ebec7d5bd14f71427d1e84f3dd0314c0f7b2291e5b200ac8c7c3b925846040518082815260200191505060405180910390a36001905092915050565b6000600254905090565b60006106be848484610b7e565b90509392505050565b600560009054906101000a900460ff1681565b600080600160003373ffffffffffffffffffffffffffffffffffffffff1673ffffffffffffffffffffffffffffffffffffffff16815260200190815260200160002060008573ffffffffffffffffffffffffffffffffffffffff1673ffffffffffffffffffffffffffffffffffffffff1681526020019081526020016000205490508083111561076d5760009050610783565b6107808382610cb790919063ffffffff16565b90505b80600160003373ffffffffffffffffffffffffffffffffffffffff1673ffffffffffffffffffffffffffffffffffffffff16815260200190815260200160002060008673ffffffffffffffffffffffffffffffffffffffff1673ffffffffffffffffffffffffffffffffffffffff168152602001908152602001600020819055508373ffffffffffffffffffffffffffffffffffffffff163373ffffffffffffffffffffffffffffffffffffffff167f8c5be1e5ebec7d5bd14f71427d1e84f3dd0314c0f7b2291e5b200ac8c7c3b925836040518082815260200191505060405180910390a3600191505092915050565b60008060008373ffffffffffffffffffffffffffffffffffffffff1673ffffffffffffffffffffffffffffffffffffffff168152602001908152602001600020549050919050565b60048054600181600116156101000203166002900480601f0160208091040260200160405190810160405280929190818152602001828054600181600116156101000203166002900480156109525780601f1061092757610100808354040283529160200191610952565b820191906000526020600020905b81548152906001019060200180831161093557829003601f168201915b505050505081565b6000610967338484610cd0565b905092915050565b600080600160003373ffffffffffffffffffffffffffffffffffffffff1673ffffffffffffffffffffffffffffffffffffffff16815260200190815260200160002060008573ffffffffffffffffffffffffffffffffffffffff1673ffffffffffffffffffffffffffffffffffffffff168152602001908152602001600020549050610a048382610ef990919063ffffffff16565b905080600160003373ffffffffffffffffffffffffffffffffffffffff1673ffffffffffffffffffffffffffffffffffffffff16815260200190815260200160002060008673ffffffffffffffffffffffffffffffffffffffff1673ffffffffffffffffffffffffffffffffffffffff168152602001908152602001600020819055508373ffffffffffffffffffffffffffffffffffffffff163373ffffffffffffffffffffffffffffffffffffffff167f8c5be1e5ebec7d5bd14f71427d1e84f3dd0314c0f7b2291e5b200ac8c7c3b925836040518082815260200191505060405180910390a3600191505092915050565b6000600160008473ffffffffffffffffffffffffffffffffffffffff1673ffffffffffffffffffffffffffffffffffffffff16815260200190815260200160002060008373ffffffffffffffffffffffffffffffffffffffff1673ffffffffffffffffffffffffffffffffffffffff16815260200190815260200160002054905092915050565b600080600160008673ffffffffffffffffffffffffffffffffffffffff1673ffffffffffffffffffffffffffffffffffffffff16815260200190815260200160002060003373ffffffffffffffffffffffffffffffffffffffff1673ffffffffffffffffffffffffffffffffffffffff168152602001908152602001600020549050808311151515610c0f57600080fd5b610c228382610cb790919063ffffffff16565b600160008773ffffffffffffffffffffffffffffffffffffffff1673ffffffffffffffffffffffffffffffffffffffff16815260200190815260200160002060003373ffffffffffffffffffffffffffffffffffffffff1673ffffffffffffffffffffffffffffffffffffffff16815260200190815260200160002081905550610cad858585610cd0565b9150509392505050565b6000828211151515610cc557fe5b818303905092915050565b60008060008473ffffffffffffffffffffffffffffffffffffffff168673ffffffffffffffffffffffffffffffffffffffff1614151515610d1057600080fd5b6000808773ffffffffffffffffffffffffffffffffffffffff1673ffffffffffffffffffffffffffffffffffffffff1681526020019081526020016000205491506000808673ffffffffffffffffffffffffffffffffffffffff1673ffffffffffffffffffffffffffffffffffffffff168152602001908152602001600020549050600073ffffffffffffffffffffffffffffffffffffffff168573ffffffffffffffffffffffffffffffffffffffff1614151515610dce57600080fd5b818411151515610ddd57600080fd5b610df08483610cb790919063ffffffff16565b6000808873ffffffffffffffffffffffffffffffffffffffff1673ffffffffffffffffffffffffffffffffffffffff16815260200190815260200160002081905550610e458482610ef990919063ffffffff16565b6000808773ffffffffffffffffffffffffffffffffffffffff1673ffffffffffffffffffffffffffffffffffffffff168152602001908152602001600020819055508473ffffffffffffffffffffffffffffffffffffffff168673ffffffffffffffffffffffffffffffffffffffff167fddf252ad1be2c89b69c2b068fc378daa952ba7f163c4a11628f55a4df523b3ef866040518082815260200191505060405180910390a36001925050509392505050565b6000808284019050838110151515610f0d57fe5b80915050929150505600a165627a7a72305820df2e5a7a073cfae172c0180374e6f4323261686aea13ee59530457e60121cf3a0029",
  "source": "pragma solidity ^0.4.23;\n\nimport \"./ISAOTest.sol\";\nimport \"../../libs/token/ERC20/ERC20.sol\";\n\n\ncontract ERC20Test is ERC20 {\n\n  string public name = \"ISAO Token\";\n  string public symbol = \"ISAOT\";\n  uint8 public decimals = 18;\n\n\n  constructor(address _owner, uint _totalSupply) public {\n    totalSupply_ = _totalSupply;\n    balances[_owner] = _totalSupply;\n    emit Transfer(address(0), _owner, _totalSupply);\n  }\n}\n\n\n/// @notice  This factory is not legacy, but it is ganache-compatible. Do not write in-constructor factories for production!\ncontract ISAOTestFactory {\n  uint8 constant ST_RAISING = 0x01;\n  address public isaoAddress;\n  address public erc20Address;\n\n  constructor(uint _raisingPeriod, \n              uint _distributionPeriod, \n              uint _minimalFundSize, \n              uint[] _limits, \n              uint[] _costs,\n              uint _minimalDeposit,\n              address _paybotAddress) public {\n    isaoAddress = new ISAOTest(_raisingPeriod, _distributionPeriod, \n      _minimalFundSize, _limits, _costs, _minimalDeposit, _paybotAddress);\n    erc20Address = new ERC20Test(isaoAddress, _limits[_limits.length-1]);\n    ISAOTest(isaoAddress).setERC20Token(erc20Address); \n    ISAOTest(isaoAddress).setState(ST_RAISING);\n    \n  }\n}",
  "sourcePath": "E:\\WORK\\BNKX-POA\\ISAO\\contracts\\testing\\ISAOTest\\ISAOTestFactory.sol",
  "compiler": {
    "name": "solc",
    "version": "0.4.23+commit.124ca40d.Emscripten.clang"
  },
  "schemaVersion": "2.0.0",
  "updatedAt": "2018-06-18T14:01:03.172Z"
}