{
  "contractName": "MultiToken",
  "abi": [
    {
      "anonymous": false,
      "inputs": [
        {
          "indexed": true,
          "name": "tokenId",
          "type": "uint256"
        },
        {
          "indexed": true,
          "name": "from",
          "type": "address"
        },
        {
          "indexed": true,
          "name": "to",
          "type": "address"
        },
        {
          "indexed": false,
          "name": "value",
          "type": "uint256"
        }
      ],
      "name": "Transfer",
      "type": "event"
    },
    {
      "anonymous": false,
      "inputs": [
        {
          "indexed": true,
          "name": "tokenId",
          "type": "uint256"
        },
        {
          "indexed": true,
          "name": "owner",
          "type": "address"
        },
        {
          "indexed": true,
          "name": "spender",
          "type": "address"
        },
        {
          "indexed": false,
          "name": "value",
          "type": "uint256"
        }
      ],
      "name": "Approval",
      "type": "event"
    },
    {
      "constant": true,
      "inputs": [
        {
          "name": "_tokenId",
          "type": "uint256"
        }
      ],
      "name": "totalSupply",
      "outputs": [
        {
          "name": "",
          "type": "uint256"
        }
      ],
      "payable": false,
      "stateMutability": "view",
      "type": "function"
    },
    {
      "constant": true,
      "inputs": [
        {
          "name": "_tokenId",
          "type": "uint256"
        },
        {
          "name": "_owner",
          "type": "address"
        }
      ],
      "name": "balanceOf",
      "outputs": [
        {
          "name": "",
          "type": "uint256"
        }
      ],
      "payable": false,
      "stateMutability": "view",
      "type": "function"
    },
    {
      "constant": true,
      "inputs": [
        {
          "name": "_tokenId",
          "type": "uint256"
        },
        {
          "name": "_owner",
          "type": "address"
        },
        {
          "name": "_spender",
          "type": "address"
        }
      ],
      "name": "allowance",
      "outputs": [
        {
          "name": "",
          "type": "uint256"
        }
      ],
      "payable": false,
      "stateMutability": "view",
      "type": "function"
    },
    {
      "constant": false,
      "inputs": [
        {
          "name": "_tokenId",
          "type": "uint256"
        },
        {
          "name": "_to",
          "type": "address"
        },
        {
          "name": "_value",
          "type": "uint256"
        }
      ],
      "name": "transfer",
      "outputs": [
        {
          "name": "",
          "type": "bool"
        }
      ],
      "payable": false,
      "stateMutability": "nonpayable",
      "type": "function"
    },
    {
      "constant": false,
      "inputs": [
        {
          "name": "_tokenId",
          "type": "uint256"
        },
        {
          "name": "_from",
          "type": "address"
        },
        {
          "name": "_to",
          "type": "address"
        },
        {
          "name": "_value",
          "type": "uint256"
        }
      ],
      "name": "transferFrom",
      "outputs": [
        {
          "name": "",
          "type": "bool"
        }
      ],
      "payable": false,
      "stateMutability": "nonpayable",
      "type": "function"
    },
    {
      "constant": false,
      "inputs": [
        {
          "name": "_tokenId",
          "type": "uint256"
        },
        {
          "name": "_spender",
          "type": "address"
        },
        {
          "name": "_value",
          "type": "uint256"
        }
      ],
      "name": "approve",
      "outputs": [
        {
          "name": "",
          "type": "bool"
        }
      ],
      "payable": false,
      "stateMutability": "nonpayable",
      "type": "function"
    },
    {
      "constant": false,
      "inputs": [
        {
          "name": "_tokenId",
          "type": "uint256"
        },
        {
          "name": "_spender",
          "type": "address"
        },
        {
          "name": "_addedValue",
          "type": "uint256"
        }
      ],
      "name": "increaseApproval",
      "outputs": [
        {
          "name": "",
          "type": "bool"
        }
      ],
      "payable": false,
      "stateMutability": "nonpayable",
      "type": "function"
    },
    {
      "constant": false,
      "inputs": [
        {
          "name": "_tokenId",
          "type": "uint256"
        },
        {
          "name": "_spender",
          "type": "address"
        },
        {
          "name": "_subtractedValue",
          "type": "uint256"
        }
      ],
      "name": "decreaseApproval",
      "outputs": [
        {
          "name": "",
          "type": "bool"
        }
      ],
      "payable": false,
      "stateMutability": "nonpayable",
      "type": "function"
    }
  ],
  "bytecode": "0x608060405234801561001057600080fd5b50610dbb806100206000396000f30060806040526004361061008e576000357c0100000000000000000000000000000000000000000000000000000000900463ffffffff1680630d550b75146100935780631c0f12b6146101145780633656eec2146101a35780638cb0a51114610204578063bb88c01614610273578063bd85b039146102e2578063c9101f6c14610323578063f8548e3614610392575b600080fd5b34801561009f57600080fd5b506100fe60048036038101908080359060200190929190803573ffffffffffffffffffffffffffffffffffffffff169060200190929190803573ffffffffffffffffffffffffffffffffffffffff169060200190929190505050610401565b6040518082815260200191505060405180910390f35b34801561012057600080fd5b5061018960048036038101908080359060200190929190803573ffffffffffffffffffffffffffffffffffffffff169060200190929190803573ffffffffffffffffffffffffffffffffffffffff16906020019092919080359060200190929190505050610499565b604051808215151515815260200191505060405180910390f35b3480156101af57600080fd5b506101ee60048036038101908080359060200190929190803573ffffffffffffffffffffffffffffffffffffffff1690602001909291905050506104b1565b6040518082815260200191505060405180910390f35b34801561021057600080fd5b5061025960048036038101908080359060200190929190803573ffffffffffffffffffffffffffffffffffffffff1690602001909291908035906020019092919050505061050c565b604051808215151515815260200191505060405180910390f35b34801561027f57600080fd5b506102c860048036038101908080359060200190929190803573ffffffffffffffffffffffffffffffffffffffff16906020019092919080359060200190929190505050610615565b604051808215151515815260200191505060405180910390f35b3480156102ee57600080fd5b5061030d600480360381019080803590602001909291905050506107d7565b6040518082815260200191505060405180910390f35b34801561032f57600080fd5b5061037860048036038101908080359060200190929190803573ffffffffffffffffffffffffffffffffffffffff169060200190929190803590602001909291905050506107f4565b604051808215151515815260200191505060405180910390f35b34801561039e57600080fd5b506103e760048036038101908080359060200190929190803573ffffffffffffffffffffffffffffffffffffffff169060200190929190803590602001909291905050506109a4565b604051808215151515815260200191505060405180910390f35b600080600085815260200190815260200160002060008473ffffffffffffffffffffffffffffffffffffffff1673ffffffffffffffffffffffffffffffffffffffff16815260200190815260200160002060008373ffffffffffffffffffffffffffffffffffffffff1673ffffffffffffffffffffffffffffffffffffffff1681526020019081526020016000205490509392505050565b60006104a7858585856109bb565b9050949350505050565b60006001600084815260200190815260200160002060008373ffffffffffffffffffffffffffffffffffffffff1673ffffffffffffffffffffffffffffffffffffffff16815260200190815260200160002054905092915050565b6000803390508260008087815260200190815260200160002060008373ffffffffffffffffffffffffffffffffffffffff1673ffffffffffffffffffffffffffffffffffffffff16815260200190815260200160002060008673ffffffffffffffffffffffffffffffffffffffff1673ffffffffffffffffffffffffffffffffffffffff168152602001908152602001600020819055508373ffffffffffffffffffffffffffffffffffffffff168173ffffffffffffffffffffffffffffffffffffffff16867f69e4aaf23f9318cf40839ac20453d8fbedaac2955eb08a27ae5189cc71925716866040518082815260200191505060405180910390a460019150509392505050565b600080600033915060008087815260200190815260200160002060008373ffffffffffffffffffffffffffffffffffffffff1673ffffffffffffffffffffffffffffffffffffffff16815260200190815260200160002060008673ffffffffffffffffffffffffffffffffffffffff1673ffffffffffffffffffffffffffffffffffffffff168152602001908152602001600020549050808411156106bd57600090506106d3565b6106d08482610b1690919063ffffffff16565b90505b8060008088815260200190815260200160002060008473ffffffffffffffffffffffffffffffffffffffff1673ffffffffffffffffffffffffffffffffffffffff16815260200190815260200160002060008773ffffffffffffffffffffffffffffffffffffffff1673ffffffffffffffffffffffffffffffffffffffff168152602001908152602001600020819055508473ffffffffffffffffffffffffffffffffffffffff168273ffffffffffffffffffffffffffffffffffffffff16877f69e4aaf23f9318cf40839ac20453d8fbedaac2955eb08a27ae5189cc71925716846040518082815260200191505060405180910390a46001925050509392505050565b600060026000838152602001908152602001600020549050919050565b600080600033915060008087815260200190815260200160002060008373ffffffffffffffffffffffffffffffffffffffff1673ffffffffffffffffffffffffffffffffffffffff16815260200190815260200160002060008673ffffffffffffffffffffffffffffffffffffffff1673ffffffffffffffffffffffffffffffffffffffff16815260200190815260200160002054905061089e8482610b2f90919063ffffffff16565b90508060008088815260200190815260200160002060008473ffffffffffffffffffffffffffffffffffffffff1673ffffffffffffffffffffffffffffffffffffffff16815260200190815260200160002060008773ffffffffffffffffffffffffffffffffffffffff1673ffffffffffffffffffffffffffffffffffffffff168152602001908152602001600020819055508473ffffffffffffffffffffffffffffffffffffffff168273ffffffffffffffffffffffffffffffffffffffff16877f69e4aaf23f9318cf40839ac20453d8fbedaac2955eb08a27ae5189cc71925716846040518082815260200191505060405180910390a46001925050509392505050565b60006109b284338585610b4d565b90509392505050565b60008060008087815260200190815260200160002060008673ffffffffffffffffffffffffffffffffffffffff1673ffffffffffffffffffffffffffffffffffffffff16815260200190815260200160002060003373ffffffffffffffffffffffffffffffffffffffff1673ffffffffffffffffffffffffffffffffffffffff168152602001908152602001600020549050808311151515610a5c57600080fd5b610a6f8382610b1690919063ffffffff16565b60008088815260200190815260200160002060008773ffffffffffffffffffffffffffffffffffffffff1673ffffffffffffffffffffffffffffffffffffffff16815260200190815260200160002060003373ffffffffffffffffffffffffffffffffffffffff1673ffffffffffffffffffffffffffffffffffffffff16815260200190815260200160002081905550610b0b86868686610b4d565b915050949350505050565b6000828211151515610b2457fe5b818303905092915050565b6000808284019050838110151515610b4357fe5b8091505092915050565b6000806000808573ffffffffffffffffffffffffffffffffffffffff168773ffffffffffffffffffffffffffffffffffffffff1614151515610b8e57600080fd5b6001600089815260200190815260200160002092508260008873ffffffffffffffffffffffffffffffffffffffff1673ffffffffffffffffffffffffffffffffffffffff1681526020019081526020016000205491508260008773ffffffffffffffffffffffffffffffffffffffff1673ffffffffffffffffffffffffffffffffffffffff168152602001908152602001600020549050600073ffffffffffffffffffffffffffffffffffffffff168673ffffffffffffffffffffffffffffffffffffffff1614151515610c6157600080fd5b818511151515610c7057600080fd5b610c838583610b1690919063ffffffff16565b8360008973ffffffffffffffffffffffffffffffffffffffff1673ffffffffffffffffffffffffffffffffffffffff16815260200190815260200160002081905550610cd88582610b2f90919063ffffffff16565b8360008873ffffffffffffffffffffffffffffffffffffffff1673ffffffffffffffffffffffffffffffffffffffff168152602001908152602001600020819055508573ffffffffffffffffffffffffffffffffffffffff168773ffffffffffffffffffffffffffffffffffffffff16897ff2dbd98d79f00f7aff338b824931d607bfcc63d47307162470f25a055102d3b0886040518082815260200191505060405180910390a4600193505050509493505050505600a165627a7a7230582054a0dbc177213a67258f0718a7be2041e32c8713c61577fef03cdbd2505332ea0029",
  "source": "pragma solidity ^0.4.23;\n\nimport \"../../math/SafeMath.sol\";\nimport \"./MultiTokenInterface.sol\";\n\n\ncontract MultiToken is MultiTokenInterface {\n  using SafeMath for uint;\n\n  mapping(uint => mapping(address => mapping(address => uint))) internal allowed;\n  mapping(uint => mapping(address => uint)) internal balances;\n  mapping(uint => uint) internal totalSupply_;\n\n \n  /**\n  * @dev Gets the total amount of tokens stored by the contract\n  * @param _tokenId is subtoken identifier\n  * @return representing the total amount of tokens\n  */\n\n  function totalSupply(uint _tokenId) external view returns (uint) {\n    return totalSupply_[_tokenId];\n  }\n\n  /**\n  * @dev Gets the balance of the specified address\n  * @param _tokenId is subtoken identifier\n  * @param _owner address to query the balance of\n  * @return representing the amount owned by the passed address\n  */\n\n  function balanceOf(uint _tokenId, address _owner) external view returns (uint) {\n    return balances[_tokenId][_owner];\n  }\n\n\n\n  /**\n  * @dev Function to check the amount of tokens that an owner allowed to a spender.\n  * @param _tokenId subtoken identifier\n  * @param _owner The address which owns the funds.\n  * @param _spender The address which will spend the funds.\n  * @return specifying the amount of tokens still available for the spender.\n  */\n\n  function allowance(uint _tokenId, address _owner, address _spender) external view returns (uint) {\n    return allowed[_tokenId][_owner][_spender];\n  }\n\n\n\n  /**\n  * @dev transfer token for a specified address\n  * @param _tokenId subtoken identifier\n  * @param _to The address to transfer to.\n  * @param _value The amount to be transferred.\n  */\n\n  function transfer(uint _tokenId, address _to, uint _value) external returns (bool) {\n    return transfer_(_tokenId, msg.sender, _to, _value);\n  }\n\n\n  /**\n  * @dev Transfer tokens from one address to another\n  * @param _tokenId subtoken identifier\n  * @param _from The address which you want to send tokens from\n  * @param _to The address which you want to transfer to\n  * @param _value uint the amount of tokens to be transferred\n  */\n\n  function transfer_(uint _tokenId, address _from, address _to, uint _value) internal returns (bool) {\n    require(_from != _to);\n    mapping(address => uint) _balances = balances[_tokenId];\n    uint _bfrom = _balances[_from];\n    uint _bto = _balances[_to];\n    require(_to != address(0));\n    require(_value <= _bfrom);\n    _balances[_from] = _bfrom.sub(_value);\n    _balances[_to] = _bto.add(_value);\n    emit Transfer(_tokenId, _from, _to, _value);\n    return true;\n  }\n\n\n  /**\n  * @dev Transfer tokens from one address to another, decreasing allowance\n  * @param _tokenId subtoken identifier\n  * @param _from address The address which you want to send tokens from\n  * @param _to address The address which you want to transfer to\n  * @param _value The amount of tokens to be transferred\n  */\n  function transferAllowed_(uint _tokenId, address _from, address _to, uint _value) internal returns (bool) {\n    uint _allowed = allowed[_tokenId][_from][msg.sender];\n    require(_value <= _allowed);\n    allowed[_tokenId][_from][msg.sender] = _allowed.sub(_value);\n    return transfer_(_tokenId, _from, _to, _value);\n  }\n\n\n  /**\n  * @dev Transfer tokens from one address to another\n  * @param _tokenId subtoken identifier\n  * @param _from The address which you want to send tokens from\n  * @param _to The address which you want to transfer to\n  * @param _value uint the amount of tokens to be transferred\n  */\n\n  function transferFrom(uint _tokenId, address _from, address _to, uint _value) external returns (bool) {\n    return transferAllowed_(_tokenId, _from, _to, _value);\n  }\n\n\n\n  /**\n  * @dev Approve the passed address to spend the specified amount of tokens on behalf of msg.sender.\n  *\n  * Beware that changing an allowance with this method brings the risk that someone may use both the old\n  * and the new allowance by unfortunate transaction ordering. One possible solution to mitigate this\n  * race condition is to first reduce the spender's allowance to 0 and set the desired value afterwards:\n  * https://github.com/ethereum/EIPs/issues/20#issuecomment-263524729\n  * @param _tokenId uint is subtoken identifier\n  * @param _spender The address which will spend the funds.\n  * @param _value The amount of tokens to be spent.\n  */\n\n\n\n  function approve(uint _tokenId, address _spender, uint _value) external returns (bool) {\n    address _sender = msg.sender;\n    allowed[_tokenId][_sender][_spender] = _value;\n    emit Approval(_tokenId, _sender, _spender, _value);\n    return true;\n  }\n\n\n  /**\n    * @dev Increase the amount of tokens that an owner allowed to a spender.\n    * @param _tokenId subtoken identifier.\n    * @param _spender The address which will spend the funds.\n    * @param _addedValue The amount of tokens to increase the allowance by.\n    */\n\n  function increaseApproval(uint _tokenId, address _spender, uint _addedValue) external returns (bool) {\n    address _sender = msg.sender;\n    uint _allowed = allowed[_tokenId][_sender][_spender];\n    _allowed=_allowed.add(_addedValue);\n    allowed[_tokenId][_sender][_spender] = _allowed;\n    emit Approval(_tokenId, _sender, _spender, _allowed);\n    return true;\n  }\n\n  /**\n    * @dev Decrease the amount of tokens that an owner allowed to a spender.\n    * \n    * @param _tokenId subtoken identifier.\n    * @param _spender The address which will spend the funds.\n    * @param _subtractedValue The amount of tokens to decrease the allowance by.\n    */\n  function decreaseApproval(uint _tokenId, address _spender, uint _subtractedValue) external returns (bool) {\n    address _sender = msg.sender;\n    uint _allowed = allowed[_tokenId][_sender][_spender];\n    if (_subtractedValue > _allowed) {\n      _allowed = 0;\n    } else {\n      _allowed = _allowed.sub(_subtractedValue);\n    }\n    allowed[_tokenId][_sender][_spender] = _allowed;\n    emit Approval(_tokenId, _sender, _spender, _allowed);\n    return true;\n  }\n}\n",
  "sourcePath": "E:\\WORK\\BNKX-POA\\multi_token\\contracts\\token\\multiToken\\MultiToken.sol",
  "compiler": {
    "name": "solc",
    "version": "0.4.23+commit.124ca40d.Emscripten.clang"
  },
  "schemaVersion": "2.0.0",
  "updatedAt": "2018-06-22T18:39:02.610Z"
}